:020000040800F2
:100000007006002089010008910100089301000892
:100010009501000897010008990100080000000000
:100020000000000000000000000000009B0100082C
:100030009D010008000000009F010008A1010008C8
:10004000A3010008A3010008A3010008A301000800
:10005000A3010008A3010008A3010008A3010008F0
:10006000A3010008A3010008A3010008A3010008E0
:10007000A3010008A3010008A3010008A3010008D0
:10008000A3010008A3010008A3010008A3010008C0
:10009000A3010008A3010008A3010008A3010008B0
:1000A000A3010008A3010008A3010008A3010008A0
:1000B000A3010008A3010008A3010008A301000890
:1000C000A3010008A3010008A3010008A301000880
:1000D000A3010008A3010008A3010008A301000870
:1000E000A3010008A3010008A301000800F002F822
:1000F00000F03AF80AA090E8000C82448344AAF188
:100100000107DA4501D100F02FF8AFF2090EBAE885
:100110000F0013F0010F18BFFB1A43F0010318473B
:100120002C0500004C050000103A24BF78C878C1A7
:10013000FAD8520724BF30C830C144BF04680C60ED
:10014000704700000023002400250026103A28BF35
:1001500078C1FBD8520728BF30C148BF0B60704739
:100160001FB51FBD10B510BD00F031F81146FFF7E7
:10017000F7FF00F08FF900F04FF803B4FFF7F2FF3C
:1001800003BC00F057F800000948804709480047C1
:10019000FEE7FEE7FEE7FEE7FEE7FEE7FEE7FEE737
:1001A000FEE7FEE704480549054A064B7047000094
:1001B0006D030008ED0000087000002070060020AC
:1001C000700200207002002070477047704775462B
:1001D00000F02CF8AE4605006946534620F00700B3
:1001E000854618B020B5FFF7DDFFBDE820404FF091
:1001F00000064FF000074FF000084FF0000B21F011
:100200000701AC46ACE8C009ACE8C009ACE8C009DD
:10021000ACE8C0098D46704710B50446AFF30080C6
:100220002046BDE81040FFF7A8BF00000048704717
:100230001000002001491820ABBEFEE72600020096
:10024000704770B504460D46164600F08BF9002144
:10025000D02000F0BBF900F097F900F083F9D1202D
:1002600000F070F9012000F03FF93070012000F03B
:100270003BF92870002000F037F9207000F084F975
:1002800070BD10B500F002F810BD00000CB50020E4
:10029000019000903348006840F480303149086094
:1002A00000BF3048006800F4003000900198401C06
:1002B0000190009818B90198B0F5A06FF1D12948C4
:1002C000006800F4003010B10120009001E000202F
:1002D00000900098012843D12348006840F01000A6
:1002E000214908600846006820F0030008600846BD
:1002F000006840F0020008601A48406819494860E8
:100300000846406848600846406840F4806048609D
:100310000846406820F47C1048600846406840F475
:10032000E81048600846006840F08070086000BF30
:100330000C48006800F000700028F9D009484068B7
:1003400020F00300074948600846406840F002007A
:10035000486000BF0348406800F00C000828F9D14D
:100360000CBD0000001002400020024010B51348F0
:10037000006840F0010011490860084640681049D3
:1003800008400E494860084600680E4908400B497D
:1003900008600846006820F480200860084640682D
:1003A00020F4FE0048604FF41F008860FFF769FFEB
:1003B0004FF000600449086010BD000000100240CA
:1003C0000000FFF8FFFFF6FE08ED00E0010900F075
:1003D0000F0201EB810359008B18D8B2704700005F
:1003E00000202949C96941F48001274AD161274980
:1003F00009884FF6C0721140244A118011460988BD
:1004000041F024011180111F09884FF6FE7211403E
:100410001E4A121F118025211C4A1C321180B42152
:10042000121F11801949091F098841F00101174A5B
:10043000121F1180114609884FF6F5321140134AF8
:10044000121F118011460988118011140F4A121DC4
:1004500011800E49091F088800F0010139B90B49C4
:10046000091F098841F00101084A121F118006493D
:10047000896941F00801044A91610549096841F41C
:100480006E41034A1160704700100240045800405A
:10049000040C014000F048F81048806940F010005A
:1004A0000E4988610E48406840F400100C494860CD
:1004B00012E000F073F80B49887800EBD071491016
:1004C000A0EB410121B94FF400500549486103E018
:1004D0004FF4005002490861EBE7000000100240B1
:1004E0000010014009000020014631B10D4800888C
:1004F00040F480600B4A108006E00A4800884FF6FE
:10050000FF321040074A108000BF064814300088B0
:1005100000F040000028F8D0024810300088C0B237
:10052000704700000058004000B5FFF759FF00F089
:1005300019F800220E21D02000F062F800F024F813
:1005400000BD0000064A108000BF054A121D128837
:1005500002F00202002AF8D0014A083211887047DE
:10056000105800400748008840F480700549088012
:1005700000BF04481430008800F001000028F8D0C3
:1005800070470000005800400348008840F40070A5
:1005900001490880704700000058004010B5094A22
:1005A000511E481EFFF74DFE002407E00549891E35
:1005B000085DFFF70BFF04490855641C032CF5DBAD
:1005C00010BD000002000020090000200B4B188025
:1005D00000BF0A4B1B1D1B8803F00203002BF8D041
:1005E000064B08331A88054B198000BF034B1B1DAF
:1005F0001B8803F08003002BF8D070471058004090
:1006000010B5114C208000BF0F4C241D248804F02D
:100610000204002CF8D00C4C083423880A4C2180AA
:1006200000BF094C241D248804F08004002CF8D05D
:10063000054C228000BF044C241D248804F0800453
:10064000002CF8D010BD0000105800406C060008C7
:100650000000002010000000280100087C060008AF
:1006600010000020600600004401000800000000A7
:0C0670000000000000000000000000007E
:040000050800018965
:00000001FF
