:020000040800F2
:100000001004002001010008610900085D090008D2
:100010005F0900086D010008150A000800000000D3
:10002000000000000000000000000000850900083A
:100030006F0100080000000083090008870900081C
:100040001B0100081B0100081B0100081B01000820
:100050001B0100081B0100081B0100081B01000810
:100060001B0100081B0100081B0100081B01000800
:100070001B0100081B0100081B0100081B010008F0
:100080001B0100081B0100081B0100081B010008E0
:100090001B0100081B0100081B0100081B010008D0
:1000A0001B0100081B0100081B0100081B010008C0
:1000B0001B0100081B0100081B0100081B010008B0
:1000C0001B0100081B0100081B0100081B010008A0
:1000D0001B0100081B0100081B0100081B01000890
:1000E0001B0100081B0100081B010008DFF80CD0F1
:1000F00000F02AF800480047350A000810040020E4
:100100000648804706480047FEE7FEE7FEE7FEE7B1
:10011000FEE7FEE7FEE7FEE7FEE7FEE7CD090008A3
:10012000ED000008D2B201E000F8012B491EFBD21D
:1001300070470022F6E710B513460A4604461946F2
:10014000FFF7F0FF204610BD064C074D06E0E068C3
:1001500040F0010394E8070098471034AC42F6D30E
:10016000FFF7C8FFA00A0008C00A0008FEE77047B2
:100170002DE9F84FDFF890A100220AF1040B144694
:1001800001274FF00F090BF1040E00BF0B6807FAAF
:1001900004F52B40AB4274D1DFF870C14E68A6EB7A
:1001A0000C0866452BD00DDC032E34D005DC36B3AD
:1001B000012E19D0022E2FD11BE0112E16D0122E97
:1001C0002AD119E0B8F5881F19D006DCB8F5803FB0
:1001D00015D0B8F5801F1FD111E0B8F5001F0ED063
:1001E000B8F5041F18D10AE0CA6815E0CA68121DE4
:1001F00012E0CA6808320FE0CA680C320CE08A6864
:100200002AB1012A4FF0080203D0456104E004221C
:1002100002E0056100E00022FF2B01D8064601E064
:1002200000F104064FEA840501D9A5F12005D6F8AE
:1002300000C009FA05F82CEA080C02FA05F54CEAA8
:10024000050CC6F800C04D68ED0057D5304DAE69BD
:1002500046F00106AE61AD6924F0030605F0010524
:1002600000952C4D06EB050CDCF80850A6074FEA6C
:10027000167809FA08F6B543274EB04202D1002697
:1002800010E03BE0254EB04201D101260AE0244EA9
:10029000B04201D1022605E0224EB04201D1032630
:1002A00000E0042606FA08F62E43CCF808604D68F4
:1002B000DAF80060ED03554601D51E4300E09E4389
:1002C0002E604D68DBF80060AD035D4601D51E432E
:1002D00000E09E432E604D68DEF80060ED0275463A
:1002E00001D51E4300E09E432E604D68AD020E4DC9
:1002F0002E6801D51E4300E09E432E60641C102C26
:10030000FFF444AFBDE8F88F000401400000111075
:10031000001002400000014000080140000C0140B4
:1003200000100140001401400C0401400AB10161B9
:1003300070470904FBE7000001488068704700002F
:1003400000000020024881680278114481607047F3
:1003500000000020074810B5016841F0100101605D
:10036000032000F067F8002000F006F800F024F801
:10037000002010BD0020024070B50D4D04464FF422
:100380007A712878B1FBF0F00A490968B1FBF0F006
:1003900000F0D0FA48B9102C07D200222146501E96
:1003A00000F028F800206C6070BD012070BD0000D6
:1003B000000000200C0000200C4808B5816941F0C5
:1003C00001018161816901F001010091C16941F080
:1003D0008051C161C06900F08050009004484168BC
:1003E00021F0E06141F08061416008BD00100240F1
:1003F00000000140F0B40E4B1B680C46C3F302230F
:10040000C3F10705042D00D90425191D072901D2C0
:10041000002300E0DB1E012606FA05F1491E2140FB
:1004200099409E40761E16403143F0BC00F099BAC8
:100430000CED00E0064900F0070208684FF6FF03E4
:10044000184040EA0220034A104308607047000049
:100450000CED00E00000FA052DE9F047DFF85481CB
:1004600005460E46D8F8000000F00700B0420CD256
:10047000D8F8001021F007013143C8F80010D8F86F
:10048000000000F00700B0426FD128684A4C810795
:1004900012D5400703D5606840F4E06060602878BA
:1004A000000703D5606840F4605060606068A96828
:1004B00020F0F000084360602878C00744D06868E6
:1004C000012816D02168022816D0890700294CDAA5
:1004D000616821F0030101436160FFF72DFF696846
:1004E000074641F2883001290ED00229814618D0F2
:1004F00026E021688903E9E78901E7E7FFF71CFFA8
:10050000C11B494501D918E081466068C0F38100EC
:100510000128F3D118E000BFFFF70EFFC11B4945CA
:100520000BD86068C0F381000228F5D10CE000BF51
:10053000FFF702FFC11B494502D90320BDE8F08740
:10054000606810F00C0FF3D1D8F80010404601F0AD
:100550000701B1420BD9016821F007013143016065
:10056000006800F00700B04201D00120E6E72878DB
:10057000400705D56068E96820F4E06008436060E2
:100580002878000706D56068296920F4605040EAA1
:10059000C100606000F016F86168084AC1F30311F9
:1005A000515CC840064908600020FFF7E5FE0020C6
:1005B000C4E700000020024000100240900A00083A
:1005C0000C00002012A185B00FC98DE80F0014A007
:1005D000144A006804905168134801F00C03042B7E
:1005E00010D0082B0ED1C1F38343C9031DF80300BB
:1005F0000AD5516804AAC1F34041515C0A4A5043EC
:10060000B0FBF1F005B0704708494843FAE7000035
:1006100002030405060708090A0B0C0D0E0F101043
:10062000010200000010024000127A0000093D00A3
:100630002DE9F84F04460078B94DC00748D06868E6
:10064000C0F38100012807D06868C0F38100022848
:1006500009D16868C00306D52868800338D560686A
:1006600000286FD034E06068B0F5803F0BD010B147
:10067000B0F5A02F11D0286820F4803028602868B9
:1006800020F4802002E0286840F480302860606810
:1006900088B1FFF751FE064609E0286840F4802043
:1006A0002860F0E7FFF748FE801B642875D82868AB
:1006B0008003F7D50CE0FFF73FFE064605E000BFDC
:1006C000FFF73AFE801B6428F0D828688003F7D42F
:1006D0002078944E80074FF001094FF000083BD579
:1006E000686810F00C0F07D06868C0F3810002281A
:1006F00009D16868C00306D42868800714D520692A
:1007000001281FD110E02069B0B1C6F80090FFF7B2
:1007100013FE074605E000BFFFF70EFEC01B0228D0
:10072000C4D828688007F7D52868616920F0F800E8
:1007300040EAC10028600FE0C6F80080FFF7FCFD2A
:10074000074606E0E9E000BFFFF7F6FDC01B022800
:1007500023D828688007F7D4207800072CD5724862
:10076000A169D9B1C0F80090FFF7E6FD074604E0A3
:10077000FFF7E2FDC01B02280FD8686A8007F7D593
:100780006A484FF4FA510068B0FBF1F0009000BFE6
:100790000098411E0091FAD20EE080E0C0F800807F
:1007A000FFF7CAFD074604E0FFF7C6FDC01B02289D
:1007B00075D8686A8007F7D42078400760D5E86963
:1007C0000027C00008D4E86940F08050E861E8697B
:1007D000012700F08050009055480168C90513D4E6
:1007E0000168834641F480710160FFF7A5FD8246F0
:1007F00006E000BFFFF7A0FDA0EB0A0064284ED87A
:10080000DBF80000C005F5D5E06801280AD008B182
:10081000052813D0286A20F001002862286A20F0F9
:10082000040002E0286A40F001002862E06841F21A
:10083000883B98B1FFF780FD82460BE0286A40F0C4
:1008400004002862EEE700BFFFF776FDA0EB0A0187
:1008500059455AD8286A8007F6D50CE0FFF76CFD99
:10086000824605E0FFF768FDA0EB0A0159454CD828
:10087000286A8007F6D41FB1E86920F08050E8614B
:10088000E06988B36968C1F38101022945D0022873
:10089000C6F8608004D0FFF74FFD044638E034E02E
:1008A000FFF74AFD074604E0FFF746FDC01B02289C
:1008B0002BD828688001F7D4206AB0F5803F05D195
:1008C0006868A16820F4003008436860D4E9080132
:1008D0000843696821F4741108436860C6F86090A1
:1008E000FFF72AFD044606E015E000BFFFF724FDF0
:1008F000001B022809D828688001F7D50BE000BF4B
:10090000FFF71AFD001B022802D90320BDE8F88F6B
:1009100028688001F4D40020F8E70120F6E7000001
:100920000010024000004242800442420C000020BD
:100930000070004010B5401EB0F1807F01D301204F
:1009400010BD4FF0E02460610F21601700F009F83E
:100950000020A06107202061002010BDFEE7FEE717
:1009600070470907090E002806DA00F00F0000F1B1
:10097000E02080F8141D704700F1E02080F800149A
:10098000704770477047FFF7DDBC10B590B0282165
:100990006846FFF7CEFB14210AA8FFF7CAFB022026
:1009A00000900120049010200024059007946846D0
:1009B000FFF73EFE0F20CDE90A040C940D940021B0
:1009C0000AA80E94FFF748FD10B010BD0D4801684D
:1009D00041F00101016041680B4A1140416001682A
:1009E0000A4A11400160016821F4802101604168D8
:1009F00021F4FE0141604FF41F0181600449C003EE
:100A000008607047001002400000FFF8FFFFF6FE8C
:100A100008ED00E0FEE702E008C8121F08C1002A46
:100A2000FAD170477047002001E001C1121F002A6F
:100A3000FBD1704786B0FFF78DFCFFF7A6FF0024BF
:100A400011480094019402940394816941F01001CB
:100A5000816180690D4E00F010004FF40055049044
:100A6000224629463046FFF761FC01210095CDE979
:100A70000114039169463046FFF77AFB00222946AC
:100A80003046FFF753FCFEE7001002400010014023
:100A9000000000000000000001020304060708092E
:100AA000C00A00080000002010000000160A00081C
:100AB000D00A00081000002000040000260A0008E8
:100AC00001000000100000000000000000A24A0425
:04000005080000ED02
:00000001FF
