Archive member included to satisfy reference by file (symbol)

c:/ac6/systemworkbench/plugins/fr.ac6.mcu.externaltools.arm-none.win32_1.17.0.201812190825/tools/compiler/bin/../lib/gcc/arm-none-eabi/7.3.1/../../../../arm-none-eabi/lib/thumb/v7-m\libc_nano.a(lib_a-errno.o)
                              Core/Src/syscalls.o (__errno)
c:/ac6/systemworkbench/plugins/fr.ac6.mcu.externaltools.arm-none.win32_1.17.0.201812190825/tools/compiler/bin/../lib/gcc/arm-none-eabi/7.3.1/../../../../arm-none-eabi/lib/thumb/v7-m\libc_nano.a(lib_a-exit.o)
                              c:/ac6/systemworkbench/plugins/fr.ac6.mcu.externaltools.arm-none.win32_1.17.0.201812190825/tools/compiler/bin/../lib/gcc/arm-none-eabi/7.3.1/../../../../arm-none-eabi/lib/thumb/v7-m/crt0.o (exit)
c:/ac6/systemworkbench/plugins/fr.ac6.mcu.externaltools.arm-none.win32_1.17.0.201812190825/tools/compiler/bin/../lib/gcc/arm-none-eabi/7.3.1/../../../../arm-none-eabi/lib/thumb/v7-m\libc_nano.a(lib_a-impure.o)
                              c:/ac6/systemworkbench/plugins/fr.ac6.mcu.externaltools.arm-none.win32_1.17.0.201812190825/tools/compiler/bin/../lib/gcc/arm-none-eabi/7.3.1/../../../../arm-none-eabi/lib/thumb/v7-m\libc_nano.a(lib_a-exit.o) (_global_impure_ptr)
c:/ac6/systemworkbench/plugins/fr.ac6.mcu.externaltools.arm-none.win32_1.17.0.201812190825/tools/compiler/bin/../lib/gcc/arm-none-eabi/7.3.1/../../../../arm-none-eabi/lib/thumb/v7-m\libc_nano.a(lib_a-init.o)
                              c:/ac6/systemworkbench/plugins/fr.ac6.mcu.externaltools.arm-none.win32_1.17.0.201812190825/tools/compiler/bin/../lib/gcc/arm-none-eabi/7.3.1/../../../../arm-none-eabi/lib/thumb/v7-m/crt0.o (__libc_init_array)
c:/ac6/systemworkbench/plugins/fr.ac6.mcu.externaltools.arm-none.win32_1.17.0.201812190825/tools/compiler/bin/../lib/gcc/arm-none-eabi/7.3.1/../../../../arm-none-eabi/lib/thumb/v7-m\libc_nano.a(lib_a-memset.o)
                              c:/ac6/systemworkbench/plugins/fr.ac6.mcu.externaltools.arm-none.win32_1.17.0.201812190825/tools/compiler/bin/../lib/gcc/arm-none-eabi/7.3.1/../../../../arm-none-eabi/lib/thumb/v7-m/crt0.o (memset)

Allocating common symbols
Common symbol       size              file

hspi2               0x58              Core/Src/main.o
hi2c2               0x54              Core/Src/main.o
uwTick              0x4               Drivers/STM32F1xx_HAL_Driver/Src/stm32f1xx_hal.o
pFlash              0x20              Drivers/STM32F1xx_HAL_Driver/Src/stm32f1xx_hal_flash.o
huart1              0x40              Core/Src/main.o
buffer              0x40              Core/Src/main.o
time                0x7               Core/Src/main.o

Discarded input sections

 .text          0x00000000        0x0 c:/ac6/systemworkbench/plugins/fr.ac6.mcu.externaltools.arm-none.win32_1.17.0.201812190825/tools/compiler/bin/../lib/gcc/arm-none-eabi/7.3.1/thumb/v7-m/crti.o
 .data          0x00000000        0x0 c:/ac6/systemworkbench/plugins/fr.ac6.mcu.externaltools.arm-none.win32_1.17.0.201812190825/tools/compiler/bin/../lib/gcc/arm-none-eabi/7.3.1/thumb/v7-m/crti.o
 .bss           0x00000000        0x0 c:/ac6/systemworkbench/plugins/fr.ac6.mcu.externaltools.arm-none.win32_1.17.0.201812190825/tools/compiler/bin/../lib/gcc/arm-none-eabi/7.3.1/thumb/v7-m/crti.o
 .data          0x00000000        0x4 c:/ac6/systemworkbench/plugins/fr.ac6.mcu.externaltools.arm-none.win32_1.17.0.201812190825/tools/compiler/bin/../lib/gcc/arm-none-eabi/7.3.1/thumb/v7-m/crtbegin.o
 .text          0x00000000       0x74 c:/ac6/systemworkbench/plugins/fr.ac6.mcu.externaltools.arm-none.win32_1.17.0.201812190825/tools/compiler/bin/../lib/gcc/arm-none-eabi/7.3.1/../../../../arm-none-eabi/lib/thumb/v7-m/crt0.o
 .data          0x00000000        0x0 c:/ac6/systemworkbench/plugins/fr.ac6.mcu.externaltools.arm-none.win32_1.17.0.201812190825/tools/compiler/bin/../lib/gcc/arm-none-eabi/7.3.1/../../../../arm-none-eabi/lib/thumb/v7-m/crt0.o
 .bss           0x00000000        0x0 c:/ac6/systemworkbench/plugins/fr.ac6.mcu.externaltools.arm-none.win32_1.17.0.201812190825/tools/compiler/bin/../lib/gcc/arm-none-eabi/7.3.1/../../../../arm-none-eabi/lib/thumb/v7-m/crt0.o
 .ARM.extab     0x00000000        0x0 c:/ac6/systemworkbench/plugins/fr.ac6.mcu.externaltools.arm-none.win32_1.17.0.201812190825/tools/compiler/bin/../lib/gcc/arm-none-eabi/7.3.1/../../../../arm-none-eabi/lib/thumb/v7-m/crt0.o
 .ARM.exidx     0x00000000        0x8 c:/ac6/systemworkbench/plugins/fr.ac6.mcu.externaltools.arm-none.win32_1.17.0.201812190825/tools/compiler/bin/../lib/gcc/arm-none-eabi/7.3.1/../../../../arm-none-eabi/lib/thumb/v7-m/crt0.o
 .ARM.attributes
                0x00000000       0x1b c:/ac6/systemworkbench/plugins/fr.ac6.mcu.externaltools.arm-none.win32_1.17.0.201812190825/tools/compiler/bin/../lib/gcc/arm-none-eabi/7.3.1/../../../../arm-none-eabi/lib/thumb/v7-m/crt0.o
 .group         0x00000000        0xc Core/Src/main.o
 .group         0x00000000        0xc Core/Src/main.o
 .group         0x00000000        0xc Core/Src/main.o
 .group         0x00000000        0xc Core/Src/main.o
 .group         0x00000000        0xc Core/Src/main.o
 .group         0x00000000        0xc Core/Src/main.o
 .group         0x00000000        0xc Core/Src/main.o
Memory Configuration

Name             Origin             Length             Attributes
RAM              0x20000000         0x00005000         xrw
FLASH            0x08000000         0x00010000         xr
*default*        0x00000000         0xffffffff

Linker script and memory map

LOAD c:/ac6/systemworkbench/plugins/fr.ac6.mcu.externaltools.arm-none.win32_1.17.0.201812190825/tools/compiler/bin/../lib/gcc/arm-none-eabi/7.3.1/thumb/v7-m/crti.o
LOAD c:/ac6/systemworkbench/plugins/fr.ac6.mcu.externaltools.arm-none.win32_1.17.0.201812190825/tools/compiler/bin/../lib/gcc/arm-none-eabi/7.3.1/thumb/v7-m/crtbegin.o
LOAD c:/ac6/systemworkbench/plugins/fr.ac6.mcu.externaltools.arm-none.win32_1.17.0.201812190825/tools/compiler/bin/../lib/gcc/arm-none-eabi/7.3.1/../../../../arm-none-eabi/lib/thumb/v7-m/crt0.o
LOAD Core/Src/main.o
LOAD Core/Src/max7219.o
LOAD Core/Src/stm32f1xx_hal_msp.o
LOAD Core/Src/stm32f1xx_it.o
LOAD Core/Src/syscalls.o
LOAD Core/Src/system_stm32f1xx.o
LOAD Drivers/STM32F1xx_HAL_Driver/Src/stm32f1xx_hal.o
LOAD Drivers/STM32F1xx_HAL_Driver/Src/stm32f1xx_hal_cortex.o
LOAD Drivers/STM32F1xx_HAL_Driver/Src/stm32f1xx_hal_dma.o
LOAD Drivers/STM32F1xx_HAL_Driver/Src/stm32f1xx_hal_exti.o
LOAD Drivers/STM32F1xx_HAL_Driver/Src/stm32f1xx_hal_flash.o
LOAD Drivers/STM32F1xx_HAL_Driver/Src/stm32f1xx_hal_flash_ex.o
LOAD Drivers/STM32F1xx_HAL_Driver/Src/stm32f1xx_hal_gpio.o
LOAD Drivers/STM32F1xx_HAL_Driver/Src/stm32f1xx_hal_gpio_ex.o
LOAD Drivers/STM32F1xx_HAL_Driver/Src/stm32f1xx_hal_i2c.o
LOAD Drivers/STM32F1xx_HAL_Driver/Src/stm32f1xx_hal_pwr.o
LOAD Drivers/STM32F1xx_HAL_Driver/Src/stm32f1xx_hal_rcc.o
LOAD Drivers/STM32F1xx_HAL_Driver/Src/stm32f1xx_hal_rcc_ex.o
LOAD Drivers/STM32F1xx_HAL_Driver/Src/stm32f1xx_hal_spi.o
LOAD Drivers/STM32F1xx_HAL_Driver/Src/stm32f1xx_hal_tim.o
LOAD Drivers/STM32F1xx_HAL_Driver/Src/stm32f1xx_hal_tim_ex.o
LOAD Drivers/STM32F1xx_HAL_Driver/Src/stm32f1xx_hal_uart.o
LOAD startup/startup_stm32f103xb.o
LOAD c:/ac6/systemworkbench/plugins/fr.ac6.mcu.externaltools.arm-none.win32_1.17.0.201812190825/tools/compiler/bin/../lib/gcc/arm-none-eabi/7.3.1/../../../../arm-none-eabi/lib/thumb/v7-m\libm.a
START GROUP
LOAD c:/ac6/systemworkbench/plugins/fr.ac6.mcu.externaltools.arm-none.win32_1.17.0.201812190825/tools/compiler/bin/../lib/gcc/arm-none-eabi/7.3.1/thumb/v7-m\libgcc.a
LOAD c:/ac6/systemworkbench/plugins/fr.ac6.mcu.externaltools.arm-none.win32_1.17.0.201812190825/tools/compiler/bin/../lib/gcc/arm-none-eabi/7.3.1/../../../../arm-none-eabi/lib/thumb/v7-m\libc_nano.a
END GROUP
START GROUP
LOAD c:/ac6/systemworkbench/plugins/fr.ac6.mcu.externaltools.arm-none.win32_1.17.0.201812190825/tools/compiler/bin/../lib/gcc/arm-none-eabi/7.3.1/thumb/v7-m\libgcc.a
LOAD c:/ac6/systemworkbench/plugins/fr.ac6.mcu.externaltools.arm-none.win32_1.17.0.201812190825/tools/compiler/bin/../lib/gcc/arm-none-eabi/7.3.1/../../../../arm-none-eabi/lib/thumb/v7-m\libc_nano.a
LOAD c:/ac6/systemworkbench/plugins/fr.ac6.mcu.externaltools.arm-none.win32_1.17.0.201812190825/tools/compiler/bin/../lib/gcc/arm-none-eabi/7.3.1/../../../../arm-none-eabi/lib/thumb/v7-m\libnosys.a
END GROUP
START GROUP
LOAD c:/ac6/systemworkbench/plugins/fr.ac6.mcu.externaltools.arm-none.win32_1.17.0.201812190825/tools/compiler/bin/../lib/gcc/arm-none-eabi/7.3.1/thumb/v7-m\libgcc.a
LOAD c:/ac6/systemworkbench/plugins/fr.ac6.mcu.externaltools.arm-none.win32_1.17.0.201812190825/tools/compiler/bin/../lib/gcc/arm-none-eabi/7.3.1/../../../../arm-none-eabi/lib/thumb/v7-m\libc_nano.a
LOAD c:/ac6/systemworkbench/plugins/fr.ac6.mcu.externaltools.arm-none.win32_1.17.0.201812190825/tools/compiler/bin/../lib/gcc/arm-none-eabi/7.3.1/../../../../arm-none-eabi/lib/thumb/v7-m\libnosys.a
END GROUP
LOAD c:/ac6/systemworkbench/plugins/fr.ac6.mcu.externaltools.arm-none.win32_1.17.0.201812190825/tools/compiler/bin/../lib/gcc/arm-none-eabi/7.3.1/thumb/v7-m/crtend.o
LOAD c:/ac6/systemworkbench/plugins/fr.ac6.mcu.externaltools.arm-none.win32_1.17.0.201812190825/tools/compiler/bin/../lib/gcc/arm-none-eabi/7.3.1/thumb/v7-m/crtn.o
                0x20005000                _estack = 0x20005000
                0x00000200                _Min_Heap_Size = 0x200
                0x00000400                _Min_Stack_Size = 0x400

.isr_vector     0x08000000      0x10c
                0x08000000                . = ALIGN (0x4)
 *(.isr_vector)
 .isr_vector    0x08000000      0x10c startup/startup_stm32f103xb.o
                0x08000000                g_pfnVectors
                0x0800010c                . = ALIGN (0x4)

.text           0x0800010c     0x1664
                0x0800010c                . = ALIGN (0x4)
 *(.text)
 .text          0x0800010c       0x40 c:/ac6/systemworkbench/plugins/fr.ac6.mcu.externaltools.arm-none.win32_1.17.0.201812190825/tools/compiler/bin/../lib/gcc/arm-none-eabi/7.3.1/thumb/v7-m/crtbegin.o
 *(.text*)
 .text.MX_GPIO_Init
                0x0800014c       0x78 Core/Src/main.o
 .text.MX_I2C2_Init
                0x080001c4       0x34 Core/Src/main.o
 .text.MX_SPI2_Init
                0x080001f8       0x38 Core/Src/main.o
 .text.MX_USART1_UART_Init
                0x08000230       0x2c Core/Src/main.o
 .text.SystemClock_Config
                0x0800025c       0x52 Core/Src/main.o
                0x0800025c                SystemClock_Config
 *fill*         0x080002ae        0x2 
 .text.max7219_SendData
                0x080002b0       0x38 Core/Src/main.o
                0x080002b0                max7219_SendData
 .text.initMatrix
                0x080002e8      0x100 Core/Src/main.o
                0x080002e8                initMatrix
 .text.clearMatrix
                0x080003e8       0x40 Core/Src/main.o
                0x080003e8                clearMatrix
 .text.initBuffer
                0x08000428       0x18 Core/Src/main.o
                0x08000428                initBuffer
 .text.pushBuffer
                0x08000440       0x2c Core/Src/main.o
                0x08000440                pushBuffer
 .text.displayBuffer
                0x0800046c       0x74 Core/Src/main.o
                0x0800046c                displayBuffer
 .text.pushCharacter
                0x080004e0       0x30 Core/Src/main.o
                0x080004e0                pushCharacter
 .text.displayMessage
                0x08000510       0x2e Core/Src/main.o
                0x08000510                displayMessage
 *fill*         0x0800053e        0x2 
 .text.main     0x08000540       0x38 Core/Src/main.o
                0x08000540                main
 .text.HAL_MspInit
                0x08000578       0x44 Core/Src/stm32f1xx_hal_msp.o
                0x08000578                HAL_MspInit
 .text.HAL_I2C_MspInit
                0x080005bc       0x64 Core/Src/stm32f1xx_hal_msp.o
                0x080005bc                HAL_I2C_MspInit
 .text.HAL_SPI_MspInit
                0x08000620       0x64 Core/Src/stm32f1xx_hal_msp.o
                0x08000620                HAL_SPI_MspInit
 .text.HAL_UART_MspInit
                0x08000684       0x78 Core/Src/stm32f1xx_hal_msp.o
                0x08000684                HAL_UART_MspInit
 .text.NMI_Handler
                0x080006fc        0x2 Core/Src/stm32f1xx_it.o
                0x080006fc                NMI_Handler
 .text.HardFault_Handler
                0x080006fe        0x2 Core/Src/stm32f1xx_it.o
                0x080006fe                HardFault_Handler
 .text.MemManage_Handler
                0x08000700        0x2 Core/Src/stm32f1xx_it.o
                0x08000700                MemManage_Handler
 .text.BusFault_Handler
                0x08000702        0x2 Core/Src/stm32f1xx_it.o
                0x08000702                BusFault_Handler
 .text.UsageFault_Handler
                0x08000704        0x2 Core/Src/stm32f1xx_it.o
                0x08000704                UsageFault_Handler
 .text.SVC_Handler
                0x08000706        0x2 Core/Src/stm32f1xx_it.o
                0x08000706                SVC_Handler
 .text.DebugMon_Handler
                0x08000708        0x2 Core/Src/stm32f1xx_it.o
                0x08000708                DebugMon_Handler
 .text.PendSV_Handler
                0x0800070a        0x2 Core/Src/stm32f1xx_it.o
                0x0800070a                PendSV_Handler
 .text.SysTick_Handler
                0x0800070c        0x8 Core/Src/stm32f1xx_it.o
                0x0800070c                SysTick_Handler
 .text.SystemInit
                0x08000714        0x2 Core/Src/system_stm32f1xx.o
                0x08000714                SystemInit
 *fill*         0x08000716        0x2 
 .text.HAL_InitTick
                0x08000718       0x48 Drivers/STM32F1xx_HAL_Driver/Src/stm32f1xx_hal.o
                0x08000718                HAL_InitTick
 .text.HAL_Init
                0x08000760       0x24 Drivers/STM32F1xx_HAL_Driver/Src/stm32f1xx_hal.o
                0x08000760                HAL_Init
 .text.HAL_IncTick
                0x08000784       0x18 Drivers/STM32F1xx_HAL_Driver/Src/stm32f1xx_hal.o
                0x08000784                HAL_IncTick
 .text.HAL_GetTick
                0x0800079c        0xc Drivers/STM32F1xx_HAL_Driver/Src/stm32f1xx_hal.o
                0x0800079c                HAL_GetTick
 .text.HAL_Delay
                0x080007a8       0x28 Drivers/STM32F1xx_HAL_Driver/Src/stm32f1xx_hal.o
                0x080007a8                HAL_Delay
 .text.HAL_NVIC_SetPriorityGrouping
                0x080007d0       0x24 Drivers/STM32F1xx_HAL_Driver/Src/stm32f1xx_hal_cortex.o
                0x080007d0                HAL_NVIC_SetPriorityGrouping
 .text.HAL_NVIC_SetPriority
                0x080007f4       0x68 Drivers/STM32F1xx_HAL_Driver/Src/stm32f1xx_hal_cortex.o
                0x080007f4                HAL_NVIC_SetPriority
 .text.HAL_SYSTICK_Config
                0x0800085c       0x2c Drivers/STM32F1xx_HAL_Driver/Src/stm32f1xx_hal_cortex.o
                0x0800085c                HAL_SYSTICK_Config
 .text.HAL_GPIO_Init
                0x08000888      0x1d8 Drivers/STM32F1xx_HAL_Driver/Src/stm32f1xx_hal_gpio.o
                0x08000888                HAL_GPIO_Init
 .text.HAL_GPIO_WritePin
                0x08000a60        0xc Drivers/STM32F1xx_HAL_Driver/Src/stm32f1xx_hal_gpio.o
                0x08000a60                HAL_GPIO_WritePin
 .text.HAL_I2C_Init
                0x08000a6c      0x1b4 Drivers/STM32F1xx_HAL_Driver/Src/stm32f1xx_hal_i2c.o
                0x08000a6c                HAL_I2C_Init
 .text.RCC_Delay
                0x08000c20       0x2c Drivers/STM32F1xx_HAL_Driver/Src/stm32f1xx_hal_rcc.o
 .text.HAL_RCC_OscConfig
                0x08000c4c      0x410 Drivers/STM32F1xx_HAL_Driver/Src/stm32f1xx_hal_rcc.o
                0x08000c4c                HAL_RCC_OscConfig
 .text.HAL_RCC_GetSysClockFreq
                0x0800105c       0x70 Drivers/STM32F1xx_HAL_Driver/Src/stm32f1xx_hal_rcc.o
                0x0800105c                HAL_RCC_GetSysClockFreq
 .text.HAL_RCC_ClockConfig
                0x080010cc      0x168 Drivers/STM32F1xx_HAL_Driver/Src/stm32f1xx_hal_rcc.o
                0x080010cc                HAL_RCC_ClockConfig
 .text.HAL_RCC_GetHCLKFreq
                0x08001234        0xc Drivers/STM32F1xx_HAL_Driver/Src/stm32f1xx_hal_rcc.o
                0x08001234                HAL_RCC_GetHCLKFreq
 .text.HAL_RCC_GetPCLK1Freq
                0x08001240       0x20 Drivers/STM32F1xx_HAL_Driver/Src/stm32f1xx_hal_rcc.o
                0x08001240                HAL_RCC_GetPCLK1Freq
 .text.HAL_RCC_GetPCLK2Freq
                0x08001260       0x20 Drivers/STM32F1xx_HAL_Driver/Src/stm32f1xx_hal_rcc.o
                0x08001260                HAL_RCC_GetPCLK2Freq
 .text.SPI_WaitFlagStateUntilTimeout
                0x08001280       0xd0 Drivers/STM32F1xx_HAL_Driver/Src/stm32f1xx_hal_spi.o
 .text.SPI_EndRxTxTransaction
                0x08001350       0x28 Drivers/STM32F1xx_HAL_Driver/Src/stm32f1xx_hal_spi.o
 .text.HAL_SPI_Init
                0x08001378       0xb6 Drivers/STM32F1xx_HAL_Driver/Src/stm32f1xx_hal_spi.o
                0x08001378                HAL_SPI_Init
 .text.HAL_SPI_Transmit
                0x0800142e      0x1a4 Drivers/STM32F1xx_HAL_Driver/Src/stm32f1xx_hal_spi.o
                0x0800142e                HAL_SPI_Transmit
 *fill*         0x080015d2        0x2 
 .text.UART_SetConfig
                0x080015d4       0x90 Drivers/STM32F1xx_HAL_Driver/Src/stm32f1xx_hal_uart.o
 .text.HAL_UART_Init
                0x08001664       0x5e Drivers/STM32F1xx_HAL_Driver/Src/stm32f1xx_hal_uart.o
                0x08001664                HAL_UART_Init
 *fill*         0x080016c2        0x2 
 .text.Reset_Handler
                0x080016c4       0x48 startup/startup_stm32f103xb.o
                0x080016c4                Reset_Handler
 .text.Default_Handler
                0x0800170c        0x2 startup/startup_stm32f103xb.o
                0x0800170c                RTC_Alarm_IRQHandler
                0x0800170c                EXTI2_IRQHandler
                0x0800170c                TIM1_CC_IRQHandler
                0x0800170c                PVD_IRQHandler
                0x0800170c                EXTI3_IRQHandler
                0x0800170c                EXTI0_IRQHandler
                0x0800170c                I2C2_EV_IRQHandler
                0x0800170c                ADC1_2_IRQHandler
                0x0800170c                SPI1_IRQHandler
                0x0800170c                TAMPER_IRQHandler
                0x0800170c                DMA1_Channel4_IRQHandler
                0x0800170c                USART3_IRQHandler
                0x0800170c                RTC_IRQHandler
                0x0800170c                DMA1_Channel7_IRQHandler
                0x0800170c                CAN1_RX1_IRQHandler
                0x0800170c                TIM4_IRQHandler
                0x0800170c                I2C1_EV_IRQHandler
                0x0800170c                DMA1_Channel6_IRQHandler
                0x0800170c                TIM3_IRQHandler
                0x0800170c                RCC_IRQHandler
                0x0800170c                TIM1_TRG_COM_IRQHandler
                0x0800170c                DMA1_Channel1_IRQHandler
                0x0800170c                Default_Handler
                0x0800170c                EXTI15_10_IRQHandler
                0x0800170c                EXTI9_5_IRQHandler
                0x0800170c                SPI2_IRQHandler
                0x0800170c                DMA1_Channel5_IRQHandler
                0x0800170c                EXTI4_IRQHandler
                0x0800170c                USB_LP_CAN1_RX0_IRQHandler
                0x0800170c                USB_HP_CAN1_TX_IRQHandler
                0x0800170c                DMA1_Channel3_IRQHandler
                0x0800170c                TIM1_UP_IRQHandler
                0x0800170c                WWDG_IRQHandler
                0x0800170c                TIM2_IRQHandler
                0x0800170c                TIM1_BRK_IRQHandler
                0x0800170c                EXTI1_IRQHandler
                0x0800170c                USART2_IRQHandler
                0x0800170c                I2C2_ER_IRQHandler
                0x0800170c                DMA1_Channel2_IRQHandler
                0x0800170c                CAN1_SCE_IRQHandler
                0x0800170c                FLASH_IRQHandler
                0x0800170c                USART1_IRQHandler
                0x0800170c                I2C1_ER_IRQHandler
                0x0800170c                USBWakeUp_IRQHandler
 *fill*         0x0800170e        0x2 
 .text.__libc_init_array
                0x08001710       0x48 c:/ac6/systemworkbench/plugins/fr.ac6.mcu.externaltools.arm-none.win32_1.17.0.201812190825/tools/compiler/bin/../lib/gcc/arm-none-eabi/7.3.1/../../../../arm-none-eabi/lib/thumb/v7-m\libc_nano.a(lib_a-init.o)
                0x08001710                __libc_init_array
 *(.glue_7)
 .glue_7        0x08001758        0x0 linker stubs
 *(.glue_7t)
 .glue_7t       0x08001758        0x0 linker stubs
 *(.eh_frame)
 .eh_frame      0x08001758        0x0 c:/ac6/systemworkbench/plugins/fr.ac6.mcu.externaltools.arm-none.win32_1.17.0.201812190825/tools/compiler/bin/../lib/gcc/arm-none-eabi/7.3.1/thumb/v7-m/crtbegin.o
 *(.init)
 .init          0x08001758        0x4 c:/ac6/systemworkbench/plugins/fr.ac6.mcu.externaltools.arm-none.win32_1.17.0.201812190825/tools/compiler/bin/../lib/gcc/arm-none-eabi/7.3.1/thumb/v7-m/crti.o
                0x08001758                _init
 .init          0x0800175c        0x8 c:/ac6/systemworkbench/plugins/fr.ac6.mcu.externaltools.arm-none.win32_1.17.0.201812190825/tools/compiler/bin/../lib/gcc/arm-none-eabi/7.3.1/thumb/v7-m/crtn.o
 *(.fini)
 .fini          0x08001764        0x4 c:/ac6/systemworkbench/plugins/fr.ac6.mcu.externaltools.arm-none.win32_1.17.0.201812190825/tools/compiler/bin/../lib/gcc/arm-none-eabi/7.3.1/thumb/v7-m/crti.o
                0x08001764                _fini
 .fini          0x08001768        0x8 c:/ac6/systemworkbench/plugins/fr.ac6.mcu.externaltools.arm-none.win32_1.17.0.201812190825/tools/compiler/bin/../lib/gcc/arm-none-eabi/7.3.1/thumb/v7-m/crtn.o
                0x08001770                . = ALIGN (0x4)
                0x08001770                _etext = .

.vfp11_veneer   0x08001770        0x0
 .vfp11_veneer  0x08001770        0x0 linker stubs

.v4_bx          0x08001770        0x0
 .v4_bx         0x08001770        0x0 linker stubs

.iplt           0x08001770        0x0
 .iplt          0x08001770        0x0 c:/ac6/systemworkbench/plugins/fr.ac6.mcu.externaltools.arm-none.win32_1.17.0.201812190825/tools/compiler/bin/../lib/gcc/arm-none-eabi/7.3.1/thumb/v7-m/crtbegin.o

.rodata         0x08001770     0x58e4
                0x08001770                . = ALIGN (0x4)
 *(.rodata)
 .rodata        0x08001770     0x58b5 Core/Src/main.o
 *fill*         0x08007025        0x3 
 .rodata        0x08007028       0x18 Core/Src/system_stm32f1xx.o
                0x08007028                AHBPrescTable
                0x08007038                APBPrescTable
 .rodata        0x08007040       0x12 Drivers/STM32F1xx_HAL_Driver/Src/stm32f1xx_hal_rcc.o
 *(.rodata*)
                0x08007054                . = ALIGN (0x4)
 *fill*         0x08007052        0x2 

.rel.dyn        0x08007054        0x0
 .rel.iplt      0x08007054        0x0 c:/ac6/systemworkbench/plugins/fr.ac6.mcu.externaltools.arm-none.win32_1.17.0.201812190825/tools/compiler/bin/../lib/gcc/arm-none-eabi/7.3.1/thumb/v7-m/crtbegin.o

.ARM.extab
 *(.ARM.extab* .gnu.linkonce.armextab.*)

.ARM            0x08007054        0x0
                0x08007054                __exidx_start = .
 *(.ARM.exidx*)
                0x08007054                __exidx_end = .

.preinit_array  0x08007054        0x0
                0x08007054                PROVIDE (__preinit_array_start = .)
 *(.preinit_array*)
                0x08007054                PROVIDE (__preinit_array_end = .)

.init_array     0x08007054        0x4
                0x08007054                PROVIDE (__init_array_start = .)
 *(SORT_BY_NAME(.init_array.*))
 *(.init_array*)
 .init_array    0x08007054        0x4 c:/ac6/systemworkbench/plugins/fr.ac6.mcu.externaltools.arm-none.win32_1.17.0.201812190825/tools/compiler/bin/../lib/gcc/arm-none-eabi/7.3.1/thumb/v7-m/crtbegin.o
                0x08007058                PROVIDE (__init_array_end = .)

.fini_array     0x08007058        0x4
                [!provide]                PROVIDE (__fini_array_start = .)
 *(SORT_BY_NAME(.fini_array.*))
 *(.fini_array*)
 .fini_array    0x08007058        0x4 c:/ac6/systemworkbench/plugins/fr.ac6.mcu.externaltools.arm-none.win32_1.17.0.201812190825/tools/compiler/bin/../lib/gcc/arm-none-eabi/7.3.1/thumb/v7-m/crtbegin.o
                [!provide]                PROVIDE (__fini_array_end = .)
                0x0800705c                _sidata = LOADADDR (.data)

.data           0x20000000        0xc load address 0x0800705c
                0x20000000                . = ALIGN (0x4)
                0x20000000                _sdata = .
 *(.data)
 .data          0x20000000        0x4 Core/Src/system_stm32f1xx.o
                0x20000000                SystemCoreClock
 .data          0x20000004        0x8 Drivers/STM32F1xx_HAL_Driver/Src/stm32f1xx_hal.o
                0x20000004                uwTickFreq
                0x20000008                uwTickPrio
 *(.data*)
                0x2000000c                . = ALIGN (0x4)
                0x2000000c                _edata = .

.igot.plt       0x2000000c        0x0 load address 0x08007068
 .igot.plt      0x2000000c        0x0 c:/ac6/systemworkbench/plugins/fr.ac6.mcu.externaltools.arm-none.win32_1.17.0.201812190825/tools/compiler/bin/../lib/gcc/arm-none-eabi/7.3.1/thumb/v7-m/crtbegin.o
                0x2000000c                . = ALIGN (0x4)

.bss            0x2000000c      0x154 load address 0x08007068
                0x2000000c                _sbss = .
                0x2000000c                __bss_start__ = _sbss
 *(.bss)
 .bss           0x2000000c       0x1c c:/ac6/systemworkbench/plugins/fr.ac6.mcu.externaltools.arm-none.win32_1.17.0.201812190825/tools/compiler/bin/../lib/gcc/arm-none-eabi/7.3.1/thumb/v7-m/crtbegin.o
 *(.bss*)
 *(COMMON)
 COMMON         0x20000028      0x133 Core/Src/main.o
                0x20000028                hspi2
                0x20000080                hi2c2
                0x200000d4                huart1
                0x20000114                buffer
                0x20000154                time
 *fill*         0x2000015b        0x1 
 COMMON         0x2000015c        0x4 Drivers/STM32F1xx_HAL_Driver/Src/stm32f1xx_hal.o
                0x2000015c                uwTick
                0x20000160                . = ALIGN (0x4)
                0x20000160                _ebss = .
                0x20000160                __bss_end__ = _ebss

._user_heap_stack
                0x20000160      0x600 load address 0x08007068
                0x20000160                . = ALIGN (0x8)
                0x20000160                PROVIDE (end = .)
                [!provide]                PROVIDE (_end = .)
                0x20000360                . = (. + _Min_Heap_Size)
 *fill*         0x20000160      0x200 
                0x20000760                . = (. + _Min_Stack_Size)
 *fill*         0x20000360      0x400 
                0x20000760                . = ALIGN (0x8)

/DISCARD/
 libc.a(*)
 libm.a(*)
 libgcc.a(*)

.ARM.attributes
                0x00000000       0x29
 *(.ARM.attributes)
 .ARM.attributes
                0x00000000       0x1d c:/ac6/systemworkbench/plugins/fr.ac6.mcu.externaltools.arm-none.win32_1.17.0.201812190825/tools/compiler/bin/../lib/gcc/arm-none-eabi/7.3.1/thumb/v7-m/crti.o
 .ARM.attributes
                0x0000001d       0x2d c:/ac6/systemworkbench/plugins/fr.ac6.mcu.externaltools.arm-none.win32_1.17.0.201812190825/tools/compiler/bin/../lib/gcc/arm-none-eabi/7.3.1/thumb/v7-m/crtbegin.o
 .ARM.attributes
                0x0000004a       0x33 Core/Src/main.o
 .ARM.attributes
                0x0000007d       0x33 Core/Src/stm32f1xx_hal_msp.o
 .ARM.attributes
                0x000000b0       0x33 Core/Src/stm32f1xx_it.o
 .ARM.attributes
                0x000000e3       0x33 Core/Src/system_stm32f1xx.o
 .ARM.attributes
                0x00000116       0x33 Drivers/STM32F1xx_HAL_Driver/Src/stm32f1xx_hal.o
 .ARM.attributes
                0x00000149       0x33 Drivers/STM32F1xx_HAL_Driver/Src/stm32f1xx_hal_cortex.o
 .ARM.attributes
                0x0000017c       0x33 Drivers/STM32F1xx_HAL_Driver/Src/stm32f1xx_hal_gpio.o
 .ARM.attributes
                0x000001af       0x33 Drivers/STM32F1xx_HAL_Driver/Src/stm32f1xx_hal_i2c.o
 .ARM.attributes
                0x000001e2       0x33 Drivers/STM32F1xx_HAL_Driver/Src/stm32f1xx_hal_rcc.o
 .ARM.attributes
                0x00000215       0x33 Drivers/STM32F1xx_HAL_Driver/Src/stm32f1xx_hal_spi.o
 .ARM.attributes
                0x00000248       0x33 Drivers/STM32F1xx_HAL_Driver/Src/stm32f1xx_hal_uart.o
 .ARM.attributes
                0x0000027b       0x21 startup/startup_stm32f103xb.o
 .ARM.attributes
                0x0000029c       0x2d c:/ac6/systemworkbench/plugins/fr.ac6.mcu.externaltools.arm-none.win32_1.17.0.201812190825/tools/compiler/bin/../lib/gcc/arm-none-eabi/7.3.1/../../../../arm-none-eabi/lib/thumb/v7-m\libc_nano.a(lib_a-init.o)
 .ARM.attributes
                0x000002c9       0x1d c:/ac6/systemworkbench/plugins/fr.ac6.mcu.externaltools.arm-none.win32_1.17.0.201812190825/tools/compiler/bin/../lib/gcc/arm-none-eabi/7.3.1/thumb/v7-m/crtn.o
OUTPUT(ST_HAL_C8.elf elf32-littlearm)

.debug_info     0x00000000     0xb7e2
 .debug_info    0x00000000     0x18c3 Core/Src/main.o
 .debug_info    0x000018c3      0xf0c Core/Src/stm32f1xx_hal_msp.o
 .debug_info    0x000027cf      0x224 Core/Src/stm32f1xx_it.o
 .debug_info    0x000029f3      0x29d Core/Src/system_stm32f1xx.o
 .debug_info    0x00002c90      0x7c0 Drivers/STM32F1xx_HAL_Driver/Src/stm32f1xx_hal.o
 .debug_info    0x00003450      0xcb5 Drivers/STM32F1xx_HAL_Driver/Src/stm32f1xx_hal_cortex.o
 .debug_info    0x00004105      0x6ab Drivers/STM32F1xx_HAL_Driver/Src/stm32f1xx_hal_gpio.o
 .debug_info    0x000047b0     0x3484 Drivers/STM32F1xx_HAL_Driver/Src/stm32f1xx_hal_i2c.o
 .debug_info    0x00007c34      0x9ef Drivers/STM32F1xx_HAL_Driver/Src/stm32f1xx_hal_rcc.o
 .debug_info    0x00008623     0x1b1c Drivers/STM32F1xx_HAL_Driver/Src/stm32f1xx_hal_spi.o
 .debug_info    0x0000a13f     0x1681 Drivers/STM32F1xx_HAL_Driver/Src/stm32f1xx_hal_uart.o
 .debug_info    0x0000b7c0       0x22 startup/startup_stm32f103xb.o

.debug_abbrev   0x00000000     0x16cd
 .debug_abbrev  0x00000000      0x293 Core/Src/main.o
 .debug_abbrev  0x00000293      0x1d2 Core/Src/stm32f1xx_hal_msp.o
 .debug_abbrev  0x00000465       0xe4 Core/Src/stm32f1xx_it.o
 .debug_abbrev  0x00000549      0x134 Core/Src/system_stm32f1xx.o
 .debug_abbrev  0x0000067d      0x1ed Drivers/STM32F1xx_HAL_Driver/Src/stm32f1xx_hal.o
 .debug_abbrev  0x0000086a      0x303 Drivers/STM32F1xx_HAL_Driver/Src/stm32f1xx_hal_cortex.o
 .debug_abbrev  0x00000b6d      0x1de Drivers/STM32F1xx_HAL_Driver/Src/stm32f1xx_hal_gpio.o
 .debug_abbrev  0x00000d4b      0x282 Drivers/STM32F1xx_HAL_Driver/Src/stm32f1xx_hal_i2c.o
 .debug_abbrev  0x00000fcd      0x257 Drivers/STM32F1xx_HAL_Driver/Src/stm32f1xx_hal_rcc.o
 .debug_abbrev  0x00001224      0x238 Drivers/STM32F1xx_HAL_Driver/Src/stm32f1xx_hal_spi.o
 .debug_abbrev  0x0000145c      0x25f Drivers/STM32F1xx_HAL_Driver/Src/stm32f1xx_hal_uart.o
 .debug_abbrev  0x000016bb       0x12 startup/startup_stm32f103xb.o

.debug_loc      0x00000000     0x7d6c
 .debug_loc     0x00000000      0x425 Core/Src/main.o
 .debug_loc     0x00000425      0x143 Core/Src/stm32f1xx_hal_msp.o
 .debug_loc     0x00000568       0xdf Core/Src/system_stm32f1xx.o
 .debug_loc     0x00000647      0x11b Drivers/STM32F1xx_HAL_Driver/Src/stm32f1xx_hal.o
 .debug_loc     0x00000762      0x5ad Drivers/STM32F1xx_HAL_Driver/Src/stm32f1xx_hal_cortex.o
 .debug_loc     0x00000d0f      0x3d8 Drivers/STM32F1xx_HAL_Driver/Src/stm32f1xx_hal_gpio.o
 .debug_loc     0x000010e7     0x37c1 Drivers/STM32F1xx_HAL_Driver/Src/stm32f1xx_hal_i2c.o
 .debug_loc     0x000048a8      0x4bb Drivers/STM32F1xx_HAL_Driver/Src/stm32f1xx_hal_rcc.o
 .debug_loc     0x00004d63     0x19e5 Drivers/STM32F1xx_HAL_Driver/Src/stm32f1xx_hal_spi.o
 .debug_loc     0x00006748     0x1624 Drivers/STM32F1xx_HAL_Driver/Src/stm32f1xx_hal_uart.o

.debug_aranges  0x00000000      0xa48
 .debug_aranges
                0x00000000       0xb0 Core/Src/main.o
 .debug_aranges
                0x000000b0       0x50 Core/Src/stm32f1xx_hal_msp.o
 .debug_aranges
                0x00000100       0x60 Core/Src/stm32f1xx_it.o
 .debug_aranges
                0x00000160       0x28 Core/Src/system_stm32f1xx.o
 .debug_aranges
                0x00000188       0xe0 Drivers/STM32F1xx_HAL_Driver/Src/stm32f1xx_hal.o
 .debug_aranges
                0x00000268       0x90 Drivers/STM32F1xx_HAL_Driver/Src/stm32f1xx_hal_cortex.o
 .debug_aranges
                0x000002f8       0x58 Drivers/STM32F1xx_HAL_Driver/Src/stm32f1xx_hal_gpio.o
 .debug_aranges
                0x00000350      0x2a0 Drivers/STM32F1xx_HAL_Driver/Src/stm32f1xx_hal_i2c.o
 .debug_aranges
                0x000005f0       0x90 Drivers/STM32F1xx_HAL_Driver/Src/stm32f1xx_hal_rcc.o
 .debug_aranges
                0x00000680      0x1d0 Drivers/STM32F1xx_HAL_Driver/Src/stm32f1xx_hal_spi.o
 .debug_aranges
                0x00000850      0x1d0 Drivers/STM32F1xx_HAL_Driver/Src/stm32f1xx_hal_uart.o
 .debug_aranges
                0x00000a20       0x28 startup/startup_stm32f103xb.o

.debug_ranges   0x00000000      0xa90
 .debug_ranges  0x00000000      0x100 Core/Src/main.o
 .debug_ranges  0x00000100       0x40 Core/Src/stm32f1xx_hal_msp.o
 .debug_ranges  0x00000140       0x50 Core/Src/stm32f1xx_it.o
 .debug_ranges  0x00000190       0x18 Core/Src/system_stm32f1xx.o
 .debug_ranges  0x000001a8       0xd0 Drivers/STM32F1xx_HAL_Driver/Src/stm32f1xx_hal.o
 .debug_ranges  0x00000278       0xe0 Drivers/STM32F1xx_HAL_Driver/Src/stm32f1xx_hal_cortex.o
 .debug_ranges  0x00000358       0x48 Drivers/STM32F1xx_HAL_Driver/Src/stm32f1xx_hal_gpio.o
 .debug_ranges  0x000003a0      0x2b0 Drivers/STM32F1xx_HAL_Driver/Src/stm32f1xx_hal_i2c.o
 .debug_ranges  0x00000650       0xa0 Drivers/STM32F1xx_HAL_Driver/Src/stm32f1xx_hal_rcc.o
 .debug_ranges  0x000006f0      0x1c0 Drivers/STM32F1xx_HAL_Driver/Src/stm32f1xx_hal_spi.o
 .debug_ranges  0x000008b0      0x1c0 Drivers/STM32F1xx_HAL_Driver/Src/stm32f1xx_hal_uart.o
 .debug_ranges  0x00000a70       0x20 startup/startup_stm32f103xb.o

.debug_macro    0x00000000    0x16652
 .debug_macro   0x00000000      0x223 Core/Src/main.o
 .debug_macro   0x00000223      0xa54 Core/Src/main.o
 .debug_macro   0x00000c77      0x221 Core/Src/main.o
 .debug_macro   0x00000e98       0x2e Core/Src/main.o
 .debug_macro   0x00000ec6       0x22 Core/Src/main.o
 .debug_macro   0x00000ee8       0x22 Core/Src/main.o
 .debug_macro   0x00000f0a       0x8e Core/Src/main.o
 .debug_macro   0x00000f98       0x51 Core/Src/main.o
 .debug_macro   0x00000fe9       0xef Core/Src/main.o
 .debug_macro   0x000010d8       0x6a Core/Src/main.o
 .debug_macro   0x00001142      0x1df Core/Src/main.o
 .debug_macro   0x00001321       0x1c Core/Src/main.o
 .debug_macro   0x0000133d       0x22 Core/Src/main.o
 .debug_macro   0x0000135f       0xc3 Core/Src/main.o
 .debug_macro   0x00001422      0xd23 Core/Src/main.o
 .debug_macro   0x00002145     0xe097 Core/Src/main.o
 .debug_macro   0x000101dc       0x43 Core/Src/main.o
 .debug_macro   0x0001021f     0x3468 Core/Src/main.o
 .debug_macro   0x00013687      0x174 Core/Src/main.o
 .debug_macro   0x000137fb       0x5c Core/Src/main.o
 .debug_macro   0x00013857      0x5be Core/Src/main.o
 .debug_macro   0x00013e15      0x289 Core/Src/main.o
 .debug_macro   0x0001409e      0x1cb Core/Src/main.o
 .debug_macro   0x00014269      0x114 Core/Src/main.o
 .debug_macro   0x0001437d      0x1b2 Core/Src/main.o
 .debug_macro   0x0001452f       0x27 Core/Src/main.o
 .debug_macro   0x00014556      0x136 Core/Src/main.o
 .debug_macro   0x0001468c      0x1bc Core/Src/main.o
 .debug_macro   0x00014848       0x34 Core/Src/main.o
 .debug_macro   0x0001487c       0x3c Core/Src/main.o
 .debug_macro   0x000148b8       0x57 Core/Src/main.o
 .debug_macro   0x0001490f       0x88 Core/Src/main.o
 .debug_macro   0x00014997      0x241 Core/Src/main.o
 .debug_macro   0x00014bd8      0x287 Core/Src/main.o
 .debug_macro   0x00014e5f      0x141 Core/Src/main.o
 .debug_macro   0x00014fa0      0x217 Core/Src/main.o
 .debug_macro   0x000151b7      0x26b Core/Src/main.o
 .debug_macro   0x00015422       0x83 Core/Src/main.o
 .debug_macro   0x000154a5       0x40 Core/Src/main.o
 .debug_macro   0x000154e5      0x1b1 Core/Src/stm32f1xx_hal_msp.o
 .debug_macro   0x00015696      0x1bb Core/Src/stm32f1xx_it.o
 .debug_macro   0x00015851      0x1a2 Core/Src/system_stm32f1xx.o
 .debug_macro   0x000159f3      0x1c6 Drivers/STM32F1xx_HAL_Driver/Src/stm32f1xx_hal.o
 .debug_macro   0x00015bb9      0x1a2 Drivers/STM32F1xx_HAL_Driver/Src/stm32f1xx_hal_cortex.o
 .debug_macro   0x00015d5b      0x20d Drivers/STM32F1xx_HAL_Driver/Src/stm32f1xx_hal_gpio.o
 .debug_macro   0x00015f68      0x1e9 Drivers/STM32F1xx_HAL_Driver/Src/stm32f1xx_hal_i2c.o
 .debug_macro   0x00016151      0x1b4 Drivers/STM32F1xx_HAL_Driver/Src/stm32f1xx_hal_rcc.o
 .debug_macro   0x00016305      0x1aa Drivers/STM32F1xx_HAL_Driver/Src/stm32f1xx_hal_spi.o
 .debug_macro   0x000164af      0x1a3 Drivers/STM32F1xx_HAL_Driver/Src/stm32f1xx_hal_uart.o

.debug_line     0x00000000     0x7de6
 .debug_line    0x00000000      0x926 Core/Src/main.o
 .debug_line    0x00000926      0x713 Core/Src/stm32f1xx_hal_msp.o
 .debug_line    0x00001039      0x6fc Core/Src/stm32f1xx_it.o
 .debug_line    0x00001735      0x696 Core/Src/system_stm32f1xx.o
 .debug_line    0x00001dcb      0x840 Drivers/STM32F1xx_HAL_Driver/Src/stm32f1xx_hal.o
 .debug_line    0x0000260b      0x84f Drivers/STM32F1xx_HAL_Driver/Src/stm32f1xx_hal_cortex.o
 .debug_line    0x00002e5a      0x811 Drivers/STM32F1xx_HAL_Driver/Src/stm32f1xx_hal_gpio.o
 .debug_line    0x0000366b     0x1d40 Drivers/STM32F1xx_HAL_Driver/Src/stm32f1xx_hal_i2c.o
 .debug_line    0x000053ab      0x94a Drivers/STM32F1xx_HAL_Driver/Src/stm32f1xx_hal_rcc.o
 .debug_line    0x00005cf5     0x10c6 Drivers/STM32F1xx_HAL_Driver/Src/stm32f1xx_hal_spi.o
 .debug_line    0x00006dbb      0xfae Drivers/STM32F1xx_HAL_Driver/Src/stm32f1xx_hal_uart.o
 .debug_line    0x00007d69       0x7d startup/startup_stm32f103xb.o

.debug_str      0x00000000    0x81ed9
 .debug_str     0x00000000    0x7f9ba Core/Src/main.o
                              0x7fdc2 (size before relaxing)
 .debug_str     0x0007f9ba       0xe2 Core/Src/stm32f1xx_hal_msp.o
                              0x7f916 (size before relaxing)
 .debug_str     0x0007fa9c       0xc9 Core/Src/stm32f1xx_it.o
                              0x7f0d6 (size before relaxing)
 .debug_str     0x0007fb65       0x52 Core/Src/system_stm32f1xx.o
                              0x7ef8c (size before relaxing)
 .debug_str     0x0007fbb7      0x584 Drivers/STM32F1xx_HAL_Driver/Src/stm32f1xx_hal.o
                              0x7f662 (size before relaxing)
 .debug_str     0x0008013b      0x2bb Drivers/STM32F1xx_HAL_Driver/Src/stm32f1xx_hal_cortex.o
                              0x7f625 (size before relaxing)
 .debug_str     0x000803f6      0x2f4 Drivers/STM32F1xx_HAL_Driver/Src/stm32f1xx_hal_gpio.o
                              0x7f350 (size before relaxing)
 .debug_str     0x000806ea      0xb72 Drivers/STM32F1xx_HAL_Driver/Src/stm32f1xx_hal_i2c.o
                              0x8001c (size before relaxing)
 .debug_str     0x0008125c      0x209 Drivers/STM32F1xx_HAL_Driver/Src/stm32f1xx_hal_rcc.o
                              0x7f3b0 (size before relaxing)
 .debug_str     0x00081465      0x51e Drivers/STM32F1xx_HAL_Driver/Src/stm32f1xx_hal_spi.o
                              0x7f8cd (size before relaxing)
 .debug_str     0x00081983      0x527 Drivers/STM32F1xx_HAL_Driver/Src/stm32f1xx_hal_uart.o
                              0x7f906 (size before relaxing)
 .debug_str     0x00081eaa       0x2f startup/startup_stm32f103xb.o
                                 0x5c (size before relaxing)

.comment        0x00000000       0x7f
 .comment       0x00000000       0x7f Core/Src/main.o
                                 0x80 (size before relaxing)
 .comment       0x0000007f       0x80 Core/Src/stm32f1xx_hal_msp.o
 .comment       0x0000007f       0x80 Core/Src/stm32f1xx_it.o
 .comment       0x0000007f       0x80 Core/Src/system_stm32f1xx.o
 .comment       0x0000007f       0x80 Drivers/STM32F1xx_HAL_Driver/Src/stm32f1xx_hal.o
 .comment       0x0000007f       0x80 Drivers/STM32F1xx_HAL_Driver/Src/stm32f1xx_hal_cortex.o
 .comment       0x0000007f       0x80 Drivers/STM32F1xx_HAL_Driver/Src/stm32f1xx_hal_gpio.o
 .comment       0x0000007f       0x80 Drivers/STM32F1xx_HAL_Driver/Src/stm32f1xx_hal_i2c.o
 .comment       0x0000007f       0x80 Drivers/STM32F1xx_HAL_Driver/Src/stm32f1xx_hal_rcc.o
 .comment       0x0000007f       0x80 Drivers/STM32F1xx_HAL_Driver/Src/stm32f1xx_hal_spi.o
 .comment       0x0000007f       0x80 Drivers/STM32F1xx_HAL_Driver/Src/stm32f1xx_hal_uart.o

.debug_frame    0x00000000     0x1d0c
 .debug_frame   0x00000000      0x1f8 Core/Src/main.o
 .debug_frame   0x000001f8       0xd0 Core/Src/stm32f1xx_hal_msp.o
 .debug_frame   0x000002c8       0xa8 Core/Src/stm32f1xx_it.o
 .debug_frame   0x00000370       0x30 Core/Src/system_stm32f1xx.o
 .debug_frame   0x000003a0      0x1cc Drivers/STM32F1xx_HAL_Driver/Src/stm32f1xx_hal.o
 .debug_frame   0x0000056c      0x12c Drivers/STM32F1xx_HAL_Driver/Src/stm32f1xx_hal_cortex.o
 .debug_frame   0x00000698       0xe8 Drivers/STM32F1xx_HAL_Driver/Src/stm32f1xx_hal_gpio.o
 .debug_frame   0x00000780      0x948 Drivers/STM32F1xx_HAL_Driver/Src/stm32f1xx_hal_i2c.o
 .debug_frame   0x000010c8      0x198 Drivers/STM32F1xx_HAL_Driver/Src/stm32f1xx_hal_rcc.o
 .debug_frame   0x00001260      0x598 Drivers/STM32F1xx_HAL_Driver/Src/stm32f1xx_hal_spi.o
 .debug_frame   0x000017f8      0x4e8 Drivers/STM32F1xx_HAL_Driver/Src/stm32f1xx_hal_uart.o
 .debug_frame   0x00001ce0       0x2c c:/ac6/systemworkbench/plugins/fr.ac6.mcu.externaltools.arm-none.win32_1.17.0.201812190825/tools/compiler/bin/../lib/gcc/arm-none-eabi/7.3.1/../../../../arm-none-eabi/lib/thumb/v7-m\libc_nano.a(lib_a-init.o)
