:020000040800F2
:1000000000500020B5150008ED050008EF050008B8
:10001000F1050008F3050008F505000800000000E0
:10002000000000000000000000000000F7050008CC
:10003000F905000800000000FB050008FD050008A8
:10004000FD150008FD150008FD150008FD15000848
:10005000FD150008FD150008FD150008FD15000838
:10006000FD150008FD150008FD150008FD15000828
:10007000FD150008FD150008FD150008FD15000818
:10008000FD150008FD150008FD150008FD15000808
:10009000FD150008FD150008FD150008FD150008F8
:1000A000FD150008FD150008FD150008FD150008E8
:1000B000FD150008FD150008FD150008FD150008D8
:1000C000FD150008FD150008FD150008FD150008C8
:1000D000FD150008FD150008FD150008FD150008B8
:1000E000FD150008FD150008FD15000800000000C2
:1000F0000000000000000000000000000000000000
:0C01000000000000000000005FF808F1A3
:10010C0010B5054C237833B9044B13B10448AFF345
:10011C0000800123237010BD0C00002000000000A3
:10012C004816000808B5034B1BB103490348AFF34D
:10013C00008008BD000000001000002048160008D8
:10014C0030B589B000240494059406940794184B98
:10015C009A6942F020029A619A6902F02002019297
:10016C00019A9A6942F008029A619A6902F00802AF
:10017C000292029A9A6942F004029A619B6903F016
:10018C0004030393039B0B4D22464FF480512846E6
:10019C0000F0D8FB4FF4805304930123059306948D
:1001AC000223079304A9284600F0E0FA09B030BDF9
:1001BC0000100240000C014008B50948094B0360CF
:1001CC00094B436000238360C3604FF4804202619B
:1001DC0043618361C361036200F0BAFB08BD00BFD9
:1001EC008000002000580040A086010008B50B4894
:1001FC000B4B03604FF48273436000238360C36036
:10020C00036143614FF400728261C3610362436214
:10021C0083620A23C36201F021F808BD2800002084
:10022C000038004008B50848084B03604FF41653DB
:10023C00436000238360C36003610C2242618361CD
:10024C00C36101F081F908BDD400002000380140E1
:10025C0030B591B00024089409940B940C9401943B
:10026C000294039404940594012206924FF4803373
:10027C0007930A9202250D950E934FF4E0130F93FA
:10028C0006A800F055FC0F230193029503944FF43C
:10029C00806304930594294601A800F089FE11B0EF
:1002AC0030BD08B500F0CEF9FFF7D2FFFFF748FFDD
:1002BC00FFF782FFFFF79AFFFFF7B4FF00F022F879
:1002CC0000F0A0F800F0BEF8FEE7000010B582B018
:1002DC008DF807008DF80610094C4FF0FF33012202
:1002EC000DF10701204601F014F84FF0FF33012205
:1002FC000DF10601204601F00CF802B010BD00BF54
:10030C002800002010B53E4C01224FF480512046AD
:10031C0000F018FB322000F0B9F900224FF48051A4
:10032C00204600F00FFB002405E007210A20FFF710
:10033C00CDFF0134E4B2072CF7D9314C01224FF434
:10034C008051204600F0FEFA00224FF480512046E6
:10035C0000F0F8FA002405E007210B20FFF7B6FFA8
:10036C000134E4B2072CF7D9254C01224FF480510B
:10037C00204600F0E7FA00224FF48051204600F0AE
:10038C00E1FA002405E001210C20FFF79FFF013466
:10039C00E4B2072CF7D91A4C01224FF480512046B5
:1003AC0000F0D0FA00224FF48051204600F0CAFA37
:1003BC00002405E001210F20FFF788FF0134E4B28F
:1003CC00072CF7D90E4C01224FF48051204600F037
:1003DC00B9FA00224FF48051204600F0B3FA002401
:1003EC0005E000210F20FFF771FF0134E4B2072C68
:1003FC00F7D901224FF48051014800F0A3FA10BD47
:10040C00000C014038B501250FE000212846FFF70C
:10041C005DFF0134E4B2072CF7D901224FF480516F
:10042C00074800F08FFA0135EDB2082D07D80022ED
:10043C004FF48051024800F085FA0024EBE738BDF8
:10044C00000C0140002304E0034A0021D154013385
:10045C00DBB23F2BF8D970471C01002082B00E4B49
:10046C009A6942F001029A619A6902F001020092C3
:10047C00009ADA6942F08052DA61DB6903F080534A
:10048C000193019B054A536823F0E06343F000732A
:10049C00536002B0704700BF0010024000000140E2
:1004AC0010B586B00023029303930493059302685E
:1004BC00114B9A4201D006B010BD104CA36943F009
:1004CC000803A361A36903F008030093009B4FF496
:1004DC0040630293122303930323059302A9084854
:1004EC0000F044F9E36943F48003E361E36903F446
:1004FC0080030193019BDEE700580040001002408E
:10050C00000C014000B587B00023029303930493C1
:10051C0005930268124B9A4202D007B05DF804FBB7
:10052C0003F5EC33DA6942F48042DA61DA6902F4F9
:10053C0080420092009A9A6942F008029A619B6983
:10054C0003F008030193019B4FF420430293022311
:10055C0003930323059302A9024800F007F9DCE793
:10056C0000380040000C014010B586B00023029307
:10057C000393049305930268174B9A4201D006B07B
:10058C0010BD03F558439A6942F480429A619A6906
:10059C0002F480420092009A9A6942F004029A6135
:1005AC009B6903F004030193019B4FF400730293C6
:1005BC000223039303230593084C02A9204600F061
:1005CC00D5F84FF48063029300230393049302A99C
:1005DC00204600F0CBF8D2E700380140000801407B
:1005EC007047FEE7FEE7FEE7FEE77047704770478F
:1005FC0008B500F039F808BD7047000010B5044686
:10060C000E4B18784FF47A73B3FBF0F30C4A106866
:10061C00B0FBF3F000F094F868B90F2C01D901206D
:10062C000AE0002221464FF0FF3000F055F8034B52
:10063C005C60002000E0012010BD00BF0400002021
:10064C000000002008B5074A136843F0100313603C
:10065C00032000F02FF80020FFF7D0FFFFF7FEFE7D
:10066C00002008BD00200240034A1168034B1B7890
:10067C000B441360704700BF5C0100200400002095
:10068C00014B1868704700BF5C01002038B5044668
:10069C00FFF7F6FF0546B4F1FF3F02D0044B1B7881
:1006AC001C44FFF7EDFF401BA042FAD338BD00BF3E
:1006BC0004000020074AD36823F4E0631B041B0CDE
:1006CC00000200F4E060184340F0BF6040F40030DA
:1006DC00D060704700ED00E030B4174BDB68C3F31B
:1006EC000223C3F10704042C28BF04241D1D062D6E
:1006FC0018D9033B4FF0FF3505FA04F421EA040145
:10070C00994005FA03F322EA0303194300280BDB93
:10071C000901C9B200F1604000F5614080F8001396
:10072C0030BC70470023E5E700F00F000901C9B2A7
:10073C00024B1954F4E700BF00ED00E014ED00E0AB
:10074C000138B0F1807F0AD2064B5860064AF0217E
:10075C0082F823100020986007221A60704701204D
:10076C00704700BF10E000E000ED00E0F0B482B094
:10077C0000263246A2E0002D5AD0012D00D1CE68C1
:10078C00FF2B69D88446FF2B69D89500DCF8004014
:10079C000F27AF4024EA070406FA05F52C43CCF8E2
:1007AC0000404C6814F0805F00F087805F4CA569B6
:1007BC0045F00105A561A46904F001040194019CB4
:1007CC009508AF1C5A4C54F8274002F00307BF00A1
:1007DC004FF00F0C0CFA07FC24EA0C0C554CA04201
:1007EC0043D004F58064A04200F0818004F580645D
:1007FC00A0427ED004F58064A04234D0042435E0BD
:10080C004D4FBD4214D00BD94C4FBD4210D007F503
:10081C008037BD420CD0A7F58017BD42B0D107E0A0
:10082C00A7F58017BD4203D007F58037BD42A7D18D
:10083C008D687DB1012D08D044610826A0E7CE68F3
:10084C0008369DE7CE680C369AE70461082697E7D0
:10085C00002695E7042693E700F1040C93E7A2F138
:10086C000805AD0092E7032400E00024BC4044EAF4
:10087C000C0402352E4F47F825404C6814F4803F89
:10088C0039D02F4D2C681C432C604C6814F4003F5D
:10089C0037D02B4D6C681C436C604C6814F4801F73
:1008AC0035D0274DAC681C43AC604C6814F4001F69
:1008BC0033D0234DEC682343EB6001320B6833FAE1
:1008CC0002F430D00124944023409C42F5D14D6871
:1008DC00122DB7D094D8022DB1D07FF64CAF032D8A
:1008EC00B6D0112D7FF44CAFCE68043648E7012406
:1008FC00BCE70224BAE7124D2C6824EA03042C60EE
:10090C00C3E70F4D6C6824EA03046C60C5E70C4D1B
:10091C00AC6824EA0304AC60C7E7094DEC6824EA30
:10092C000303EB60C9E702B0F0BC70470010024053
:10093C0000000140000801400000211000003110AF
:10094C000004014012B9090401617047016170474C
:10095C00002800F0C880F8B5044690F83D30002B14
:10096C0075D0242384F83D302268136823F00103EA
:10097C0013602268136843F4004313602268136801
:10098C0023F40043136000F0CDFB6268584B9A428D
:10099C0062D8584B98428CBF00230123002B40F0A7
:1009AC00A480554BA3FB00239B0C21684A6822F0C2
:1009BC003F021A434A6025682A6A22F03F026668A1
:1009CC004B498E424ED8013313432B622568E9699B
:1009DC0021F44F4121F0FF016368454A93424BD803
:1009EC0001385B00B0FBF3F30133C3F30B03042BAF
:1009FC0038BF04230B43EB6121680B6823F0C00361
:100A0C00E269206A024313430B6021688B6823F46C
:100A1C00034323F0FF032269E068024313438B6016
:100A2C002168CB6823F0FF036269A069024313437A
:100A3C00CB602268136843F001031360002020642C
:100A4C00202384F83D30206384F83E00F8BD80F804
:100A5C003C30FFF725FD84E7284B98428CBF0023E0
:100A6C0001239BE74FF4967101FB03F32449A1FB8F
:100A7C0003139B090133A7E7A268BAB9461E03EB1F
:100A8C004307B6FBF7F60136C6F30B06B6FA86F645
:100A9C00760936BBC2B9013803EB4303B0FBF3F361
:100AAC000133C3F30B0242F40043A3E7461E03EBEE
:100ABC00830707EB8707B6FBF7F60136C6F30B0681
:100ACC00B6FA86F67609E4E7013803EB830303EB09
:100ADC008303B0FBF3F20132C2F30B0242F4404346
:100AEC0088E7012386E7012070470120AEE700BFAD
:100AFC00A08601007F841E0083DE1B43FF083D009F
:100B0C00D34D621082B0084B1B68084AA2FB03232A
:100B1C005B0A00FB03F0019000BF019B5A1E01927F
:100B2C00002BF9D102B0704700000020D34D6210A9
:100B3C00002800F0F58170B582B00446036813F00C
:100B4C00010F2CD0AB4B5B6803F00C03042B1DD0B6
:100B5C00A84B5B6803F00C03082B12D06368B3F549
:100B6C00803F41D0002B55D103F1804303F5043372
:100B7C001A6822F480321A601A6822F480221A60F1
:100B8C0037E09C4B5B6813F4803FE7D0994B1B68B4
:100B9C0013F4003F03D06368002B00F0C38123687B
:100BAC0013F0020F76D0934B5B6813F00C0F5FD0F1
:100BBC00904B5B6803F00C03082B54D02369002B7B
:100BCC0000F08A808C4B01221A60FFF759FD054614
:100BDC00884B1B6813F0020F75D1FFF751FD401BBA
:100BEC000228F5D90320A0E1824A136843F480332C
:100BFC001360636843B3FFF743FD05467D4B1B68E9
:100C0C0013F4003FCBD1FFF73BFD401B6428F5D913
:100C1C0003208AE1B3F5A02F09D0764B1A6822F491
:100C2C0080321A601A6822F480221A60E1E703F11C
:100C3C008043A3F53C331A6842F480221A601A6888
:100C4C0042F480321A60D4E7FFF71AFD0546694B6F
:100C5C001B6813F4003FA2D0FFF712FD401B642861
:100C6C00F5D9032061E1634B5B6813F4803FA5D198
:100C7C00604B1B6813F0020F04D02369012B01D0C9
:100C8C00012052E15B4A136823F0F803616943EADF
:100C9C00C1031360236813F0080F32D0A369002B33
:100CAC005BD0564B01221A60FFF7EAFC0546514B0C
:100CBC005B6A13F0020F21D1FFF7E2FC401B022804
:100CCC00F5D9032031E14B4A136823F0F80361692D
:100CDC0043EAC1031360DDE7474B00221A60FFF7BC
:100CEC00CFFC0546434B1B6813F0020FD2D0FFF725
:100CFC00C7FC401B0228F5D9032016E10120FFF7A1
:100D0C0001FF236813F0040F00F09880394BDB6966
:100D1C0013F0805F33D1374BDA6942F08052DA61DD
:100D2C00DB6903F080530193019B0125344B1B6855
:100D3C0013F4807F25D0E368012B36D0002B4CD1E7
:100D4C0003F1804303F504331A6A22F001021A629C
:100D5C001A6A22F004021A622CE0284B00221A6054
:100D6C00FFF78EFC0546234B5B6A13F0020FC8D0CD
:100D7C00FFF786FC401B0228F5D90320D5E000259F
:100D8C00D4E71F4A136843F480731360FFF778FCB1
:100D9C0006461B4B1B6813F4807FCCD1FFF770FC0D
:100DAC00801B6428F5D90320BFE0124A136A43F074
:100DBC0001031362E3687BB3FFF762FC06460D4B3D
:100DCC001B6A13F0020F38D1FFF75AFC801B41F25B
:100DDC0088339842F3D90320A7E0052B12D0054B9A
:100DEC001A6A22F001021A621A6A22F004021A62CA
:100DFC00E0E700BF00100240000042428004424283
:100E0C00007000404C4B1A6A42F004021A621A6AD3
:100E1C0042F001021A62CDE7FFF732FC0646464B60
:100E2C001B6A13F0020F08D0FFF72AFC801B41F25B
:100E3C0088339842F3D9032077E0E5B9E369002BB6
:100E4C0072D03D4A526802F00C02082A56D0022B8E
:100E5C0017D03A4B00221A60FFF712FC0446364BAF
:100E6C001B6813F0007F47D0FFF70AFC001B022819
:100E7C00F5D9032059E0304AD36923F08053D3616C
:100E8C00DCE72E4B00221A60FFF7FAFB05462A4BD3
:100E9C001B6813F0007F06D0FFF7F2FB401B022803
:100EAC00F5D9032041E0236AB3F5803F1AD02249DB
:100EBC004B6823F47413226A606A024313434B6039
:100ECC001E4B01221A60FFF7DBFB04461A4B1B6812
:100EDC0013F0007F0ED1FFF7D3FB001B0228F5D9CE
:100EEC00032022E0144A536823F40033A1680B4317
:100EFC005360DCE7002018E0002016E0012B16D030
:100F0C000D4B5B6803F48031226A914201D00120C1
:100F1C000BE003F47013626A93420AD0012004E0E0
:100F2C0001207047012000E0002002B070BD0120BC
:100F3C00FBE70020F9E700BF0010024060004242CE
:100F4C0010B487B0164C94E80F000DF1180C0CE996
:100F5C000F00238AADF80430124B5B6803F00C02CF
:100F6C00082A1AD1C3F38342624412F8102C13F4EA
:100F7C00803F05D10C4800FB02F007B010BC704755
:100F8C00084B5B68C3F34043634413F8143C0748B5
:100F9C0000FB02F0B0FBF3F0EFE70448EDE700BF15
:100FAC00781600080010024000093D0000127A007B
:100FBC00002800F0A38070B50446524B1B6803F068
:100FCC0007038B420CD24F4A136823F007030B43E1
:100FDC001360136803F007038B4201D0012070BD2E
:100FEC00236813F0020F17D013F0040F04D0464AF5
:100FFC00536843F4E0635360236813F0080F04D084
:10100C00414A536843F4605353603F4A536823F09A
:10101C00F003A068034353600D46236813F0010FDF
:10102C0031D06368012B20D0022B25D0364A1268B0
:10103C0012F0020F64D034494A6822F003021343C1
:10104C004B60FFF71DFB06462F4B5B6803F00C0350
:10105C006268B3EB820F16D0FFF712FB801B41F2D4
:10106C0088339842F0D90320B9E7274A126812F462
:10107C00003FE0D10120B2E7234A126812F0007F52
:10108C00D9D10120ABE71F4B1B6803F00703AB4220
:10109C000CD91C4A136823F007032B431360136805
:1010AC0003F00703AB4201D0012098E7236813F04B
:1010BC00040F06D0144A536823F4E063E1680B4331
:1010CC005360236813F0080F07D00F4A536823F4BA
:1010DC006053216943EAC1035360FFF731FF0A4BA8
:1010EC005B68C3F30313094AD35CD840084B186000
:1010FC00084B1868FFF782FA002070E70120704750
:10110C0001206CE70020024000100240601600082D
:10111C000000002008000020014B1868704700BF39
:10112C000000002008B5FFF7F7FF044B5B68C3F322
:10113C000223034AD35CD84008BD00BF0010024014
:10114C007016000808B5FFF7E7FF044B5B68C3F3A4
:10115C00C223034AD35CD84008BD00BF0010024034
:10116C00701600082DE9F04383B004460F4616466E
:10117C001D46FFF785FA0A9B181A00EB0508FFF7C6
:10118C007FFA81462A4B1B68C3F3CB3308FB03F36E
:10119C00019323689B6837EA03030CBF01230023E8
:1011AC00B34240D0B5F1FF3FF3D0FFF769FAA0EBA3
:1011BC00090040450AD2B8F1000F07D0019B0BB9CA
:1011CC004FF00008019B013B0193E2E72268536852
:1011DC0023F0E00353606368B3F5827F0BD0A36AFE
:1011EC00B3F5005F14D0012384F85130002384F848
:1011FC005030032018E0A368B3F5004F02D0B3F5CC
:10120C00806FECD12268136823F040031360E6E78B
:10121C002268136823F4005313602268136843F4A4
:10122C0000531360DFE7002003B0BDE8F08300BF7C
:10123C000000002010B582B0044600920B4600223C
:10124C008021FFF78FFF034610B9184602B010BD7E
:10125C00636D43F0200363650323F6E7002856D043
:10126C0010B50446436A33B94368B3F5827F05D0A1
:10127C000023C36102E00023036143610023A362E6
:10128C0094F85130002B3CD0022384F85130226862
:10129C00136823F040031360636803F48273A2683D
:1012AC0002F404421343E26802F40062134322691D
:1012BC0002F002021343626902F001021343A269B5
:1012CC0002F400721343E26902F038021343226AFB
:1012DC0002F080021343A26A02F400522168134305
:1012EC000B60638B226803F0040353602268D3699C
:1012FC0023F40063D36100206065012384F851302E
:10130C0010BD84F850302046FFF7FCF8BCE70120F4
:10131C0070472DE9F04182B090F85040012C00F05C
:10132C00C8801D46174688460446012380F8503075
:10133C00FFF7A6F9064694F85130DBB2012B09D021
:10134C000220012384F85130002384F8503002B07D
:10135C00BDE8F081B8F1000F00F09D80002F00F087
:10136C009C80032384F8513000236365C4F83080DB
:10137C00A786E786A363A387E38763642364A368D4
:10138C00B3F5004F1CD023681A6812F0400F03D13C
:10139C001A6842F040021A60E368B3F5006F1AD085
:1013AC0063680BB1012F4ED1226B236812781A732C
:1013BC00236B01332363E38E013B9BB2E38642E054
:1013CC002268136823F0400313602268136843F407
:1013DC0080431360D7E763680BB1012F15D1226BE3
:1013EC0023681288DA60236B02332363E38E013B9C
:1013FC009BB2E38609E0FFF743F9801BA84202D3B6
:10140C00B5F1FF3F4BD1002D4BD0E38E9BB2002B9F
:10141C002CD023689A6812F0020FECD0226B128841
:10142C00DA60236B02332363E38E013B9BB2E386CA
:10143C00EBE7FFF725F9801BA84202D3B5F1FF3F7C
:10144C0031D1002D31D0E38E9BB27BB123689A68E9
:10145C0012F0020FEDD0226B12781A73236B01334A
:10146C002363E38E013B9BB2E386ECE732462946CD
:10147C002046FFF7DFFE08B120236365A36833B96C
:10148C0001932368DA6801929B680193019B636D59
:10149C006BB9002055E7012053E7012051E70320E9
:1014AC004FE703204DE703204BE7032049E70120DA
:1014BC0047E702204BE7000038B504460268136981
:1014CC0023F44053C1680B431361836802691343CF
:1014DC0042691A430168CB6823F4B05323F00C0320
:1014EC001343CB600268536923F4407381690B4347
:1014FC0053610268124B9A421FD0FFF713FE00EBA8
:10150C00800000EB800063689B00B0FBF3F00D4D96
:10151C00A5FB00325109642202FB11021301323384
:10152C00A5FB03235B0903F0F00202EB011203F0AD
:10153C000F03216813448B6038BDFFF703FEDEE711
:10154C00003801401F85EB5158B310B5044690F894
:10155C0039300BB3242384F839302268D36823F450
:10156C000053D3602046FFF7A7FF2268136923F4CA
:10157C00904313612268536923F02A035361226854
:10158C00D36843F40053D3600020E063202384F835
:10159C00393084F83A3010BD80F83830FEF7E4FF6B
:1015AC00D8E7012070470000002103E00B4B5B588B
:1015BC00435004310A480B4B42189A42F6D30A4A5C
:1015CC0002E0002342F8043B084B9A42F9D3FFF7A0
:1015DC0013F800F00FF8FEF764FE7047941600083D
:1015EC00000000200C0000200C00002060010020F6
:1015FC00FEE7000070B500250C4E0D4CA41BA4108A
:10160C00A54209D100F01AF800250A4E0A4CA41B79
:10161C00A410A54205D170BD56F825309847013568
:10162C00EEE756F8253098470135F2E78C1600089E
:10163C008C1600088C16000890160008F8B500BF30
:10164C00F8BC08BC9E467047F8B500BFF8BC08BC97
:04165C009E467047EF
:101660000000000000000000010203040607080952
:101670000000000001020304020304050607080934
:0C1680000A0B0C0D0E0F101001020000F0
:04168C003101000820
:041690000D01000840
:0C1694000024F400010000001000000021
:04000005080015B525
:00000001FF
