:020000040800F2
:100000004805002001010008E71300082D10000832
:10001000E51300086D010008F91400080000000055
:10002000000000000000000000000000EB130008CA
:100030006F01000800000000E9130008ED1300083C
:100040001B0100081B0100081B0100081B01000820
:100050001B0100081B0100081B0100081B01000810
:100060001B0100081B0100081B0100081B01000800
:100070001B0100081B0100081B0100081B010008F0
:100080001B0100081B0100081B0100081B010008E0
:100090001B0100081B0100081B0100081B010008D0
:1000A0001B0100081B0100081B0100081B010008C0
:1000B0001B0100081B0100081B0100081B010008B0
:1000C0001B0100081B0100081B0100081B010008A0
:1000D0001B0100081B0100081B0100081B01000890
:1000E0001B0100081B0100081B010008DFF80CD0F1
:1000F00000F02AF80048004749150008480500208C
:100100000648804706480047FEE7FEE7FEE7FEE7B1
:10011000FEE7FEE7FEE7FEE7FEE7FEE73F14000826
:10012000ED000008D2B201E000F8012B491EFBD21D
:1001300070470022F6E710B513460A4604461946F2
:10014000FFF7F0FF204610BD064C074D06E0E068C3
:1001500040F0010394E8070098471034AC42F6D30E
:10016000FFF7C8FFF815000818160008FEE77047EB
:1001700000B585B04FF4FA72072103A88DE8070097
:1001800001230022D021144800F0EAF99DF80C0068
:1001900001F0D2F9114A10709DF80D0001F0CCF970
:1001A00050709DF80E0001F0C7F990709DF80F0097
:1001B00001F0C2F9D0709DF8100001F0BDF9107186
:1001C0009DF8110001F0B8F950719DF8120001F08E
:1001D000B3F9907105B000BD1800002000000020A8
:1001E0002DE9F84FDFF8B891002409F1040A0AF16B
:1001F000040B23460F270BF1040EC9E00125A5408F
:100200002A40AA427DD1674ED1F804C0ACEB060863
:10021000B44532D014DCBCF1030F3AD009DCBCF198
:10022000000F2AD0BCF1010F1CD0BCF1020F31D15C
:100230001DE0BCF1110F17D0BCF1120F2AD119E04B
:10024000B8F5881F19D006DCB8F5803F15D0B8F591
:10025000801F1FD111E0B8F5001F0ED0B8F5041FA4
:1002600018D10AE0CB6815E0CB681B1D12E0CB6803
:1002700008330FE0CB680C330CE08B682BB1012BFB
:100280004FF0080303D0456104E0042302E0056158
:1002900000E00023FF2A01D8064601E000F1040631
:1002A0004FEA840501D9A5F12005D6F8008007FAA8
:1002B00005FC28EA0C0803FA05F548EA0508C6F823
:1002C00000804D68ED0062D5374DAE6946F00106FD
:1002D000AE61AD6924F0030605F001050095334DCC
:1002E00006EB050CDCF80850A607360F07FA06F8EF
:1002F00025EA0805DFF8B880404503D14FF0000833
:1003000017E044E0DFF8AC80404502D14FF001082F
:100310000FE0DFF8A480404502D14FF0020808E06A
:10032000DFF89880404502D14FF0030801E04FF01C
:10033000040808FA06F848EA0508CCF808804D6871
:10034000D9F80060ED034D4601D5164300E0964311
:100350002E604D68DAF80060AD03554601D51643AE
:1003600000E096432E604D68DBF80060ED025D46CC
:1003700001D5164300E096432E604D68DEF800601C
:10038000AD02754601D5164300E096432E60641C0D
:100390000D682A46E5407FF431AFBDE8F88F0000D4
:1003A0000004014000001110001002400000014054
:1003B00000080140000C0140001001400014014001
:1003C0000AB1016170470904FBE700000148806839
:1003D000704700000800002070B5040025D094F894
:1003E0003D00002520B984F83C50204600F0E0F99B
:1003F000242084F83D002068016821F0010101609B
:100400002068016841F4004101602068016821F41E
:100410000041016000F01CFB4D4A6168914201D827
:100420004C4900E04C49884201D2012070BD4B4943
:100430002368B0FBF1F15E6826F03F060E435E6074
:100440006368934206D94FF4967359434FF47A7315
:10045000B1FBF3F12368491C1E6A26F03F063143C5
:1004600019626168914210D84900401EB0FBF1F258
:10047000521CC2F30B02042A01D2042022E0B0FB7A
:10048000F1F0401CC0F30B001CE0A268F2B301EBDA
:10049000C10303EB0116431EB3FBF6F35B1C43F4ED
:1004A00080431B0549D092B301EBC10202EB01115D
:1004B000401EB0FBF1F0401CC0F30B0040F4804044
:1004C00040F400402168CA694CF6FF739A43104318
:1004D000C861D4E9071001432068026822F0C00215
:1004E00011430160D4E9030101432068826848F2A6
:1004F000FF339A4311438160D4E905010843216821
:10050000CA6822F0FF021043C86001E00EE016E066
:100510002068016841F0010101602564202084F811
:100520003D00256384F83E50002070BD01EB41067C
:10053000431EB3FBF6F35B1CB3E70120C2E701EBFC
:100540004101401EB0FBF1F0401CC0F30B00B7E7C7
:10055000A086010080841E0000093D0040420F007B
:100560002DE9FF4F83B00025DDE910799A469346C7
:100570000446DDF848800095FFF728FF064694F80A
:100580003D0020287CD11923012285492046009670
:1005900000F0E2FD0028F5D194F83C0001286FD06E
:1005A000012084F83C0020680168C90703D1016874
:1005B00041F0010101602068016821F400610160DF
:1005C000222084F83D00402084F83E0025646762C4
:1005D000A4F82A90608D20857248E062CDE90086FB
:1005E00053465A462046049900F038FD00287DD134
:1005F000208DDFF8B491202768B1012814D002289B
:10060000206801681ED041F4806101602068416962
:1006100080690090B6E020684169816900910168B5
:1006200041F400710160ADE02068016821F480614F
:10063000016072B62068416981690091016841F4E6
:1006400000710AE041F40061016072B620684169FE
:1006500081690091016821F48061016062B691E0D6
:10066000032868D801280CD0022843464FF0000226
:100670004946204600960FD000F06EFDB0BB10E05A
:100680008BE032464146204600F0E5FD70BB206815
:100690000069616A08706CE000F05EFD30BB72B604
:1006A00034E02068016821F48061016072B620683E
:1006B0000069616A0870606A401C6062208D401E9B
:1006C0002085608D401E6085384846F2A81100687C
:1006D000B0FBF1F0C0EBC00000EB80000090401ECA
:1006E000009008D020684069C04300E029E040073E
:1006F0000CD50098F3E744F8305F6773A573206961
:1007000040F02000206162B625731AE0206801687D
:1007100041F40071016020680069616A0870606AD4
:10072000401C6062218D491E2185618D491E6185B5
:1007300062B621681BE032464146204600F08BFD40
:1007400018B1012007B0BDE8F08F20680069616A28
:100750000870606A401C6062218D491E2185618D90
:10076000491E618521684A69D24352070AD4096942
:100770000170606A401C6062208D401E2085608D83
:10078000401E6085208D00287FF46AAF84F83D709C
:1007900084F83E5084F83C50D4E70220D2E70000B1
:1007A000020010000000FFFF040001001400002000
:1007B00010B586B00021009101910291039100686B
:1007C000104988421BD1104CA06940F00800A0617C
:1007D000A069694600F0080004904FF44060009062
:1007E00012200190032003900848FFF7F9FCE0690C
:1007F00040F48000E061E06900F48000049006B0FD
:1008000010BD00000058004000100240000C0140E4
:100810000248816802781144816070470800002016
:10082000074810B5016841F010010160032000F095
:1008300067F8002000F006F800F024F8002010BD52
:100840000020024070B50D4D04464FF47A712878AF
:10085000B1FBF0F00A490968B1FBF0F000F068FB69
:1008600048B9102C07D200222146501E00F028F86B
:1008700000206C6070BD012070BD000008000020E9
:10088000140000200C4808B5816941F00101816124
:10089000816901F001010091C16941F08051C1619C
:1008A000C06900F0805000900448416821F0E06188
:1008B00041F00071416008BD00100240000001409D
:1008C000F0B40E4B1B680C46C3F30223C3F10705BB
:1008D000042D00D90425191D072901D2002300E0A9
:1008E000DB1E012606FA05F1491E214099409E4073
:1008F000761E16403143F0BC00F0FFBD0CED00E069
:10090000064900F0070208684FF6FF03184040EA66
:100910000220034A10430860704700000CED00E01D
:100920000000FA052DE9F0470F46050061D0434E5F
:10093000306800F00700B84209D2306820F00700A4
:1009400038433060306800F00700B84251D1286861
:100950003B4C810712D5400703D5606840F4E06046
:1009600060602878000703D5606840F460506060DC
:100970006068A96820F0F000084360602878C0072C
:1009800028D06868012810D02168022810D0890773
:1009900000292EDA616821F0030101436160FFF74D
:1009A00015FD804641F288390DE021688903EFE7A3
:1009B0008901EDE7FFF70AFDA0EB0801494502D9DF
:1009C0000320BDE8F0876068696800F00C00B0EBB8
:1009D000810FEFD1306800F00700B8420BD93068C2
:1009E00020F0070038433060306800F00700B8425C
:1009F00001D00120E5E72878400705D56068E9685F
:100A000020F4E060084360602878000706D560683D
:100A1000296920F4605040EAC100606000F038F8B5
:100A20006168084AC1F30311515CC8400649086077
:100A300006480068FFF706FF0020C2E700200240DA
:100A400000100240E0150008140000200C000020F7
:100A50000448054900684968044AC1F30221515C11
:100A6000C84070471400002000100240F015000834
:100A70000448054900684968044AC1F3C221515C31
:100A8000C84070471400002000100240F015000814
:100A900012A185B00FC98DE80F0014A0144A006898
:100AA00004905168134801F00C03042B10D0082B5C
:100AB0000ED1C1F38343C9031DF803000AD5516861
:100AC00004AAC1F34041515C0A4A5043B0FBF1F023
:100AD00005B0704708494843FAE7000002030405DF
:100AE000060708090A0B0C0D0E0F1010010200007A
:100AF0000010024000127A0000093D002DE9F84F75
:100B0000040070D02078C04DC00749D06868C0F399
:100B10008100012807D06868C0F38100022809D14C
:100B20006868C00306D52868800339D56068002846
:100B3000E7D035E06068B0F5803F0BD010B1B0F57C
:100B4000A02F11D0286820F480302860286820F475
:100B5000802002E0286840F480302860606890B10E
:100B6000FFF734FC06460AE0286840F4802028603D
:100B7000F0E700BFFFF72AFC801B642873D82868C1
:100B80008003F7D50CE0FFF721FC064605E000BF27
:100B9000FFF71CFC801B6428F0D828688003F7D47A
:100BA00020789A4E80074FF001094FF0000839D5A0
:100BB000686810F00C0F07D06868C0F38100022845
:100BC00009D16868C00306D42868800714D5206955
:100BD000012808D110E02069B0B1C6F80090FFF7F5
:100BE000F5FB074605E00AE1FFF7F0FBC01B022812
:100BF000C4D828688007F7D52868616920F0F80014
:100C000040EAC10028600DE0C6F80080FFF7DEFB77
:100C1000074604E0FFF7DAFBC01B022823D8286848
:100C20008007F7D4207800072CD57948A169D9B17D
:100C3000C0F80090FFF7CAFB074604E0FFF7C6FBC9
:100C4000C01B02280FD8686A8007F7D571484FF497
:100C5000FA510068B0FBF1F0009000BF0098411E0F
:100C60000091FAD20EE080E0C0F80080FFF7AEFB02
:100C7000074604E0FFF7AAFBC01B022875D8686A84
:100C80008007F7D42078400760D5E8690027C000C6
:100C900008D4E86940F08050E861E869012700F075
:100CA000805000905C480168C90513D401688346F0
:100CB00041F480710160FFF789FB824606E000BFC6
:100CC000FFF784FBA0EB0A0064284ED8DBF8000095
:100CD000C005F5D5E06801280AD008B1052813D071
:100CE000286A20F001002862286A20F0040002E04F
:100CF000286A40F001002862E06841F2883B98B120
:100D0000FFF764FB82460BE0286A40F0040028628B
:100D1000EEE700BFFFF75AFBA0EB0A0159455AD88E
:100D2000286A8007F6D50CE0FFF750FB824605E005
:100D3000FFF74CFBA0EB0A0159454CD8286A800705
:100D4000F6D41FB1E86920F08050E861E06988B30B
:100D50006968C1F38101022944D00228C6F8608085
:100D600004D0FFF733FB044638E034E0FFF72EFBF6
:100D7000074604E0FFF72AFBC01B02282BD828688F
:100D80008001F7D4206AB0F5803F05D16868A1687A
:100D900020F4003008436860D4E90801084369681A
:100DA00021F4741108436860C6F86090FFF70EFBE9
:100DB000044606E025E000BFFFF708FB001B022801
:100DC00009D828688001F7D51BE000BFFFF7FEFABD
:100DD000001B022802D90320BDE8F88F2868800193
:100DE000F4D40EE00128F7D06868226A00F480315C
:100DF000914204D1616A00F47010884201D0012050
:100E0000EAE70020E8E7000000100240000042424C
:100E100080044242140000200070004070B50400BD
:100E200009D0606A002540B125616561A56294F82A
:100E3000510040B10CE0012070BD6068B0F5827FC8
:100E4000F4D0E561F2E784F85050204600F040F815
:100E5000022084F851002068016821F040010160FF
:100E6000A088218900F4827001F404410843A1891B
:100E700001F400610843217C01F002010843217D57
:100E800001F001010843218B01F400710843217F27
:100E900001F03801084394F8201001F08001084364
:100EA000218D01F40051084321680860A0690421E4
:100EB00001EA1040216848602068C16921F400619E
:100EC000C1616565012084F85100002070BD0000FB
:100ED00000B585B000210091019102910391006855
:100EE000104988421BD11048C16941F48041C16159
:100EF000C16901F480410491816941F00801816177
:100F00008069694600F0080004904FF4204000908A
:100F100002200190032003900448FFF761F905B017
:100F200000BD00000038004000100240000C0140ED
:100F300010B5401EB0F1807F01D3012010BD4FF0ED
:100F4000E02460610F21601700F0D7FA0020A06153
:100F500007202061002010BD70B5040004D094F873
:100F60003900002510B106E0012070BD84F838502A
:100F7000204600F023F8242084F839002068C16856
:100F800021F40051C160204600F05AFA206801693E
:100F900021F4904101612068416921F02A014161F9
:100FA0002068C16841F40051C160E563202084F8E5
:100FB000390084F83A00002070BD000030B585B0DB
:100FC0000024009401940294039400681449884218
:100FD00024D11448816941F480418161816901F41F
:100FE00080410491816941F00401816180690E4D65
:100FF00000F0040004904FF4007000900220019073
:101000000320039069462846FFF7EAF82815CDE942
:101010000004694628460294FFF7E2F805B030BDA7
:10102000003801400010024000080140FEE701685E
:101030004A69D24352050FD46FF480624A6100219D
:1010400040F8301F202242738173026942F004028B
:101050000261017301207047002070472DE9F84FAD
:101060000446006889460B9D01689846174641F47E
:10107000806101602068016841F480710160009521
:101080004FF0011B0022594620460A9B00F064F8ED
:101090004FF4007A40B120680068C00501D5C4F85B
:1010A00040A00320BDE8F88F216809F0FE00086128
:1010B0002B46284920460A9A00F082F8F0BB2068A7
:1010C0004169806900902A4620460A9900F0F6F8A6
:1010D00040B1206C04283AD12068016841F40071C5
:1010E000016034E0FEB2B8F1010F09D02168380A7E
:1010F00008612A4620460A9900F0E0F80028E8D165
:10110000206806612A4620460A9900F0D7F8002890
:10111000DFD12068016841F48071016000950022F0
:10112000594620460A9B00F017F80028B3D12168E1
:1011300009F0FF0040F00100086100E007E02B46E5
:10114000044920460A9A00F03BF80028AAD0012062
:10115000A8E70000020001002DE9F0471E46904676
:101160000D460446C1F30747DDF8209008E0701CE7
:1011700006D0FFF72BF9A0EB0900B0420FD876B1EB
:101180002068012F18D0806925EA00000004000CB7
:1011900014D000214145EAD00020BDE8F0870020AE
:1011A00044F8300F20216173A073216941F02001C0
:1011B000216120730120F0E74069E5E70121E9E7BB
:1011C0002DE9F0479A4691460E46044600254FF019
:1011D0002008C1F3074725E020684069C043400567
:1011E00014D42068016841F40071016021686FF433
:1011F00080604861256384F83D8084F83E50206C0F
:1012000040F00400206484F83C501FE0B9F1FF3F37
:1012100008D0FFF7DBF8A0EB0A0149450CD8B9F17B
:10122000000F09D02068012F13D0806926EA000042
:101230000004000C0BD0CFE744F8305F84F80D8039
:10124000A573206940F02000206125730120BDE8CE
:10125000F0874069EAE72DE9F041002590460E4607
:101260000446202717E04069C043C0060CD454F858
:10127000301B6FF01000486144F810596777A5776C
:10128000206A2062257717E0FFF7A0F8A0EB08009E
:10129000B04208D83EB120684169C9434906E2D44A
:1012A0000020BDE8F08144F8305F6773A5732069C2
:1012B00040F02000206125730120F2E770B516464A
:1012C0000D4604460DE02046FFF7B1FE08B10120AF
:1012D00070BD681C05D0FFF779F8801BA84207D8BD
:1012E00035B120684069C0430006ECD4002070BDD1
:1012F000002044F8300F20216173A073216941F070
:10130000200121612073E2E72DE9F04385B000243C
:1013100024480094019402940394816941F01001DF
:101320008161816901F010010491816941F020011E
:101330008161816901F020010491816941F0080116
:101340008161816901F008010491816941F0040122
:1013500081618069012200F00400DFF84C805503B0
:10136000049029464046FFF72BF8DFF840906F10B5
:10137000002239464846FFF723F80095022601254A
:101380000396CDE9015469464046FEF729FF0097D0
:101390000396CDE9015469464846FEF721FF05B0A2
:1013A000BDE8F0830010024000100140000C014035
:1013B0000B480A494FF4007201604FF4827141609A
:1013C00000218160C1600161C0E90512C161016253
:1013D000416281620A21C162FFF720BD00380040EE
:1013E0006C000020FEE7704770477047FFF710BAA7
:1013F00030B58FB028216846FEF79BFE14210AA85D
:10140000FEF797FE01210804CDE9001000240294A4
:1014100002250491CDE907504FF4E0100990684689
:10142000FFF76CFB0F20CDE90A056802CDE90C40FF
:1014300002210AA80E94FFF775FA0FB030BD70476D
:1014400070B5044600680169E26821F44051114317
:1014500001612169A0680843616908432168CA687D
:1014600041F20C639A430243CA6020684169A26951
:1014700021F44071114341611E492068884202D124
:10148000FFF7F6FA01E0FFF7E3FA00EBC00101EB2A
:101490000012606864218000B2FBF0F3B3FBF1F34B
:1014A0006FF018067343B2FBF0F5B2FBF0F605EBF4
:1014B0008305322303EB0515B5FBF1F5B6FBF1F619
:1014C00005F0F00505EB0615B2FBF0F6B2FBF0F007
:1014D000B0FBF1F06FF01802504306EB800003EB15
:1014E0000010B0FBF1F0216800F00F002844886084
:1014F00070BD000000380140FEE70907090E002812
:1015000004DB00F1E02080F80014704700F00F00C9
:1015100000F1E02080F8141D704702E008C8121F97
:1015200008C1002AFAD170477047002001E001C1CC
:10153000121F002AFBD1704700F00F01000900EBD9
:10154000800001EB40007047FFF76AF9FFF750FF9A
:10155000FFF7DAFE1D481C49002401601C49C0E960
:1015600001144FF48041C0E9034144618461C461C6
:101570000462FEF731FFFFF71BFF14481549AC303A
:1015800001604FF41651C0E901140C21C460C0E998
:1015900004418461C461FFF7DFFC0F4D4FF4005438
:1015A000002221462846FEF70BFF0C4EFEF7E0FD19
:1015B0003078C00705D0002221462846FEF700FFFC
:1015C000F4E70122F8E7000000580040180000206E
:1015D000A0860100003801400010014000000020FA
:1015E00000000000000000000102030406070809D3
:1015F000000000000102030418160008000000208B
:10160000180000001A150008301600081800002005
:10161000300500002A15000800000000000000004E
:101620000100000010000000000000000024F40091
:04000005080000ED02
:00000001FF
