:020000040800F2
:10000000C0040020010100089B1B0008C71700085E
:10001000991B0008A9070008191D0008000000002E
:10002000000000000000000000000000A11B00080C
:10003000AB070008000000009F1B0008A31B00087E
:100040001B0100081B0100081B0100081B01000820
:100050001B0100081B0100081B0100081B01000810
:100060001B0100081B0100081B0100081B01000800
:100070001B0100081B0100081B0100081B010008F0
:100080001B0100081B0100081B0100081B010008E0
:100090001B0100081B0100081B0100081B010008D0
:1000A0001B0100081B0100081B0100081B010008C0
:1000B0001B0100081B0100081B0100081B010008B0
:1000C0001B0100081B0100081B0100081B010008A0
:1000D0001B0100081B0100081B0100081B01000890
:1000E0001B0100081B0100081B010008DFF80CD0F1
:1000F00000F048FB00480047B5260008C004002077
:100100000648804706480047FEE7FEE7FEE7FEE7B1
:10011000FEE7FEE7FEE7FEE7FEE7FEE7F91B000865
:10012000ED000008202A04DB203A21FA02F0002129
:10013000704721FA02F3D040C2F1200291400843F7
:1001400019467047D2B201E000F8012B491EFBD2DC
:1001500070470022F6E710B513460A4604461946D2
:10016000FFF7F0FF204610BD421C10F8011B0029CC
:10017000FBD1801A70472DE9FE4F804681EA0300CB
:10018000C00F0C46009021F0004123F00045B8EB71
:100190000200A94105D24046214690461C460B4626
:1001A000024623F00040104347D0270DC7F30A0052
:1001B000C3F30A510290401A019040286BDAC3F34E
:1001C000130040F4801B0098924620B10023D2EB2C
:1001D000030A63EB0B0B01985946C0F140025046ED
:1001E00000F00AF906460D4650465946019A00F0BD
:1001F00012F910EB08006141002487EA115284EAE9
:10020000E7731A4340D0009A62B3019A012A4FEA79
:10021000075215DC001B61EB02014FF0004202EABD
:100220000752CDE90042001C41F5801132462B46B1
:1002300000F049F903B0BDE8F08F40462146F9E7E8
:10024000001B61EB0201001C41F5801300185B41AB
:100250002018A2F5001747EB030140EAD570B61944
:100260006D4111E06D084FEA360645EAC0754FEA68
:100270000752001B61EB0201001C41F58011490887
:100280004FEA30000019514132462B4603B0BDE819
:10029000F04F00F009B90098012240000023D0EB94
:1002A000020263EBE073009821464FEAE074B8EB7A
:1002B000000061EB0401E9E783F000435BE781F0B4
:1002C000004158E770B521F0004303430CD0C1F35F
:1002D0000A550024D5EB040564EB0403D617AD1AC8
:1002E000B34102DB0020014670BD201841EB0251F2
:1002F00070BD0EB540F2334102910021CDE90011ED
:100300000A460B4600F0DFF803B000BD00F00042E3
:1003100030F000400AD0C10D01F56071C0F3160045
:1003200042EA0151C20840071143704700200146CC
:10033000704701F0004330B421F0004150EA01025F
:1003400006D00A0DA2F56072C1F31301002A02DC87
:1003500030BC00207047440F44EAC104C100E018DB
:1003600030BC00EBC25000F068B830B50B46014617
:1003700000202022012409E021FA02F59D4205D344
:1003800003FA02F5491B04FA02F52844151EA2F1EE
:100390000102F1DC30BD2DE9F05F054600209246F8
:1003A0009B4688460646814640241BE02846414637
:1003B00047462246FFF7B6FE53465A46C01A9141B9
:1003C00010D311461846224600F016F82D1A67EB96
:1003D00001084F4622460120002100F00DF817EBDE
:1003E00000094E41201EA4F10104DFDC48463146DD
:1003F0002A464346BDE8F09F202A04DB203A00FA53
:1004000002F1002070479140C2F1200320FA03F36B
:10041000194390407047202A06DBCB17203A41FA57
:1004200002F043EAE07306E041FA02F3D040C2F181
:10043000200291400843194670470029A8BF704721
:10044000401C490008BF20F00100704710B4B0FA0A
:1004500080FC00FA0CF050EA010404BF10BC7047A5
:1004600049B1CCF1200421FA04F411FA0CF118BFBF
:10047000012121430843A3EB0C01CB1D4FEA00618E
:100480004FEA102042BF002010BC704700EBC35061
:1004900010440029A4BF10BC7047401C490008BF8D
:1004A00020F0010010BC704710B5141E73F1000459
:1004B00008DA401C41F1000192185B411A4301D156
:1004C00020F0010010BD2DE9F04D92469B4611B180
:1004D000B1FA81F202E0B0FA80F220329046FFF7E2
:1004E0008BFF04460F4640EA0A0041EA0B015346DF
:1004F0005A46084313D0114653EA010019D0C8F1F7
:1005000040025046FFF70EFE05460E46504659463D
:100510004246FFF771FF084305D0012004E0204662
:100520003946BDE8F08D0020054346EAE0762C43CD
:1005300037430A986305E40AA0EB08000022FD0A8D
:1005400044EA47540A3002D500200146E9E7010594
:1005500010196941DDE9084500196941BDE8F04D10
:10056000A2E72DE9FE4F81EA030404F0004421F0E4
:10057000004100944FF0000B23F0004350EA0104C7
:100580005ED052EA03045BD0C3F30A54C1F30A55A8
:100590002C44A4F2F3340194A0FB0254C1F31301E0
:1005A00041F48011C3F3130343F4801301FB0244AD
:1005B00000FB034E840A970A44EA815447EA8357B2
:1005C000A4FB076802958D0A05FB07854FEA932C6B
:1005D00004FB0C542705029D4FEA065847EA1637DC
:1005E000B5EB08056EEB070C870E920E47EA8117F4
:1005F00042EA8312A7FB0201B6EB0B0164EB000495
:100600002B0D43EA0C335E1844EB1C50DA4651467E
:10061000E7FB0201C5F313044FEA0B3343EA14531B
:100620004FEA0432019C43EA0603A4F10C0402944D
:10063000009CCDE900B4FFF746FF03B0BDE8F08FA2
:1006400000200146F9E72DE9F04D81EA030404F0AA
:10065000004B21F0004514464FF0000A23F0004102
:1006600050EA050220D054EA01021DD0C5F30A5712
:100670000246C5F31303C1F31300C1F30A5640F455
:10068000801543F48013A7EB0608101BD64608F22A
:10069000FD3873EB050002D308F1010801E0921860
:1006A0005B41B8F1000F03DA00200146BDE8F08D90
:1006B00000204FF48011064684460EE0171B73EBB2
:1006C000050705D3121B63EB050306434CEA010C37
:1006D00049084FEA300092185B4150EA0107EDD11A
:1006E00052EA030012D082EA040083EA05010843BB
:1006F00005D0101BAB4106D20122002306E00022E8
:100700004FF0004302E06FF0010253101AEB0600B5
:100710004CEB085110EB0A0041EB0B01BDE8F04D2A
:10072000FFF7C2BEC1F30A52C1F3130140F2FF3317
:1007300041F480119A4202DA00200146704740F2EB
:1007400033439A42A2F2334202DC5242FFF7EABC40
:10075000FFF752BE30B5041E71F1000404DB4FF008
:100760000044404264EB0101141E73F1000405DBF8
:100770001C464FF00043524263EB0403994208BF0A
:10078000904230BD064C074D06E0E06840F00103A2
:1007900094E8070098471034AC42F6D3FFF7AAFC60
:1007A0002828000848280008FEE770477FB54FF466
:1007B0007A72022103A88DE8070001231122D021BB
:1007C0000D4800F01FFA9DF80D008009FFF791FD1C
:1007D0006FF00102FFF776FD05460C469DF80C0010
:1007E000FFF787FD2A462346FFF7C5FC04B0BDE8A6
:1007F0007040FFF79EBD00001C00002000B585B0D2
:100800004FF47A72072103A88DE807000123002224
:10081000D021144800F0F6F99DF80C0001F010FF0B
:10082000114A10709DF80D0001F00AFF50709DF8FC
:100830000E0001F005FF90709DF80F0001F000FF21
:10084000D0709DF8100001F0FBFE10719DF81100B2
:1008500001F0F6FE50719DF8120001F0F1FE90716A
:1008600005B000BD1C0000200400002070B5044647
:1008700000F0FEF80546601C02D0044800780444ED
:1008800000F0F6F8401BA042FAD370BD0C00002027
:100890002DE9F84FDFF8B891002409F1040A0AF1B4
:1008A000040B23460F270BF1040EC9E00125A540D8
:1008B0002A40AA427DD1674ED1F804C0ACEB0608AD
:1008C000B44532D014DCBCF1030F3AD009DCBCF1E2
:1008D000000F2AD0BCF1010F1CD0BCF1020F31D1A6
:1008E0001DE0BCF1110F17D0BCF1120F2AD119E095
:1008F000B8F5881F19D006DCB8F5803F15D0B8F5DB
:10090000801F1FD111E0B8F5001F0ED0B8F5041FED
:1009100018D10AE0CB6815E0CB681B1D12E0CB684C
:1009200008330FE0CB680C330CE08B682BB1012B44
:100930004FF0080303D0456104E0042302E00561A1
:1009400000E00023FF2A01D8064601E000F104067A
:100950004FEA840501D9A5F12005D6F8008007FAF1
:1009600005FC28EA0C0803FA05F548EA0508C6F86C
:1009700000804D68ED0062D5374DAE6946F0010646
:10098000AE61AD6924F0030605F001050095334D15
:1009900006EB050CDCF80850A607360F07FA06F838
:1009A00025EA0805DFF8B880404503D14FF000087C
:1009B00017E044E0DFF8AC80404502D14FF0010879
:1009C0000FE0DFF8A480404502D14FF0020808E0B4
:1009D000DFF89880404502D14FF0030801E04FF066
:1009E000040808FA06F848EA0508CCF808804D68BB
:1009F000D9F80060ED034D4601D5164300E096435B
:100A00002E604D68DAF80060AD03554601D51643F7
:100A100000E096432E604D68DBF80060ED025D4615
:100A200001D5164300E096432E604D68DEF8006065
:100A3000AD02754601D5164300E096432E60641C56
:100A40000D682A46E5407FF431AFBDE8F88F00001D
:100A5000000401400000111000100240000001409D
:100A600000080140000C014000100140001401404A
:100A700001488068704700000C00002070B5040039
:100A800025D094F83D00002520B984F83C5020463C
:100A900000F078FA242084F83D002068016821F0F5
:100AA000010101602068016841F400410160206893
:100AB000016821F40041016000F0BCFB4D4A61680F
:100AC000914201D84C4900E04C49884201D20120B2
:100AD00070BD4B492368B0FBF1F15E6826F03F061C
:100AE0000E435E606368934206D94FF49673594390
:100AF0004FF47A73B1FBF3F12368491C1E6A26F0A8
:100B00003F06314319626168914210D84900401E86
:100B1000B0FBF1F2521CC2F30B02042A01D20420F2
:100B200022E0B0FBF1F0401CC0F30B001CE0A26817
:100B3000F2B301EBC10303EB0116431EB3FBF6F363
:100B40005B1C43F480431B0549D092B301EBC10207
:100B500002EB0111401EB0FBF1F0401CC0F30B0092
:100B600040F4804040F400402168CA694CF6FF73AD
:100B70009A431043C861D4E9071001432068026812
:100B800022F0C00211430160D4E90301014320684F
:100B9000826848F2FF339A4311438160D4E905012A
:100BA00008432168CA6822F0FF021043C86001E0D0
:100BB0000EE016E02068016841F001010160256443
:100BC000202084F83D00256384F83E50002070BD4D
:100BD00001EB4106431EB3FBF6F35B1CB3E70120B8
:100BE000C2E701EB4101401EB0FBF1F0401CC0F335
:100BF0000B00B7E7A086010080841E0000093D00BD
:100C000040420F002DE9FF4F83B00025DDE9107948
:100C10009A4693460446DDF848800095FFF728FF82
:100C2000064694F83D0020287CD1192301228549ED
:100C30002046009600F0D8FE0028F5D194F83C003C
:100C400001286FD0012084F83C0020680168C907A2
:100C500003D1016841F0010101602068016821F4BD
:100C600000610160222084F83D00402084F83E00AD
:100C700025646762A4F82A90608D20857248E0623E
:100C8000CDE9008653465A462046049900F0B4FD4B
:100C900000287DD1208DDFF8B491202768B101288C
:100CA00014D00228206801681ED041F480610160E0
:100CB0002068416980690090B6E0206841698169D7
:100CC0000091016841F400710160ADE020680168A5
:100CD00021F48061016072B62068416981690091E8
:100CE000016841F400710AE041F40061016072B6EC
:100CF0002068416981690091016821F48061016087
:100D000062B691E0032868D801280CD00228434637
:100D10004FF000024946204600960FD000F064FED6
:100D2000B0BB10E08BE032464146204600F0DBFECF
:100D300070BB20680069616A08706CE000F054FEC6
:100D400030BB72B634E02068016821F48061016034
:100D500072B620680069616A0870606A401C60624F
:100D6000208D401E2085608D401E6085384846F2EB
:100D7000A8110068B0FBF1F0C0EBC00000EB8000F0
:100D80000090401E009008D020684069C04300E0F9
:100D900029E040070CD50098F3E744F8305F67730B
:100DA000A573206940F02000206162B625731AE027
:100DB0002068016841F40071016020680069616A7F
:100DC0000870606A401C6062218D491E2185618D1A
:100DD000491E618562B621681BE0324641462046C5
:100DE00000F081FE18B1012007B0BDE8F08F206847
:100DF0000069616A0870606A401C6062218D491E4A
:100E00002185618D491E618521684A69D243520757
:100E10000AD409690170606A401C6062208D401E1E
:100E20002085608D401E6085208D00287FF46AAF8C
:100E300084F83D7084F83E5084F83C50D4E702209A
:100E4000D2E70000020010000000FFFF04000100D4
:100E5000180000202DE9FF4F83B09A46DDE9119775
:100E600093460446DDF84080FFF702FE054694F8FD
:100E70003D0020287FD119230122404920460095BA
:100E800000F0B2FD002876D194F83C00012872D021
:100E9000012084F83C0020680168C90703D101687B
:100EA00041F0010101602068016821F400610160E6
:100EB000212084F83D00402084F83E00002626646E
:100EC000C4F82480A4F82A90608D20852C48E06224
:100ED000CDE9007553465A462046049900F00AFDB4
:100EE00070B930E02A463946204600F02FFE58B14E
:100EF000206C042804D12068016841F4007101606D
:100F0000012007B0BDE8F08F606A216800780861B1
:100F1000606A401C6062218D491E89B22185628D04
:100F2000521E628522685369DB435B070BD469B1AB
:100F300000781061606A401C6062208D401E208530
:100F4000608D401E6085208D0028CBD12A46394611
:100F5000204600F023FD0028CAD154F83D0B01685B
:100F600041F400710160202004F81E09E6776677DD
:100F70000020C6E7FFE70220C3E7000002001000E0
:100F80000000FFFF10B586B0002100910191029191
:100F900003910068104988421BD1104CA06940F0B1
:100FA0000800A061A069694600F0080004904FF4B1
:100FB0004060009012200190032003900848FFF742
:100FC00067FCE06940F48000E061E06900F48000C3
:100FD000049006B010BD0000005800400010024010
:100FE000000C01400248816802781144816070471A
:100FF0000C000020074810B5016841F010010160A5
:10100000032000F067F8002000F006F800F024F854
:10101000002010BD0020024070B50D4D04464FF475
:101020007A712878B1FBF0F00A490968B1FBF0F059
:1010300000F0F2FA48B9102C07D200222146501EC7
:1010400000F028F800206C6070BD012070BD000029
:101050000C000020180000200C4808B5816941F000
:1010600001018161816901F001010091C16941F0D3
:101070008051C161C06900F080500090044841680F
:1010800021F0E06141F08061416008BD0010024044
:1010900000000140F0B40E4B1B680C46C3F3022362
:1010A000C3F10705042D00D90425191D072901D214
:1010B000002300E0DB1E012606FA05F1491E21404F
:1010C00099409E40761E16403143F0BC00F03ABE77
:1010D0000CED00E0064900F0070208684FF6FF0338
:1010E000184040EA0220034A10430860704700009D
:1010F0000CED00E00000FA05704700002DE9F04714
:101100000F46050061D0434E306800F00700B8423A
:1011100009D2306820F0070038433060306800F0B2
:101120000700B84251D128683B4C810712D54007CF
:1011300003D5606840F4E06060602878000703D55C
:10114000606840F4605060606068A96820F0F0005A
:10115000084360602878C00728D06868012810D04C
:101160002168022810D0890700292EDA616821F051
:10117000030101436160FFF77BFC804641F288393F
:101180000DE021688903EFE78901EDE7FFF770FCC7
:10119000A0EB0801494502D90320BDE8F08760684B
:1011A000696800F00C00B0EB810FEFD1306800F0FF
:1011B0000700B8420BD9306820F007003843306090
:1011C000306800F00700B84201D00120E5E7287838
:1011D000400705D56068E96820F4E0600843606076
:1011E0002878000706D56068296920F4605040EA35
:1011F000C100606000F03EF86168084AC1F3031165
:10120000515CC8400649086006480068FFF704FFC3
:101210000020C2E700200240001002401028000811
:10122000180000201000002001490120C864704708
:10123000000042420448054900684968044AC1F375
:101240000221515CC8407047180000200010024085
:10125000202800080448054900684968044AC1F389
:10126000C221515CC84070471800002000100240A5
:101270002028000812A185B00FC98DE80F0014A026
:10128000144A006804905168134801F00C03042BC1
:1012900010D0082B0ED1C1F38343C9031DF80300FE
:1012A0000AD5516804AAC1F34041515C0A4A50432F
:1012B000B0FBF1F005B0704708494843FAE7000079
:1012C00002030405060708090A0B0C0D0E0F101087
:1012D000010200000010024000127A0000093D00E7
:1012E00010B5044CA068000603D5FFF705FF802069
:1012F000A07210BD001002402DE9F84F040070D01C
:101300002078C04DC00749D06868C0F3810001282B
:1013100007D06868C0F38100022809D16868C0035B
:1013200006D52868800339D560680028E7D035E005
:101330006068B0F5803F0BD010B1B0F5A02F11D090
:10134000286820F480302860286820F4802002E09B
:10135000286840F480302860606890B1FFF788FB0F
:1013600006460AE0286840F480202860F0E700BFC5
:10137000FFF77EFB801B642873D828688003F7D5AD
:101380000CE0FFF775FB064605E000BFFFF770FBBA
:10139000801B6428F0D828688003F7D420789A4E00
:1013A00080074FF001094FF0000839D5686810F048
:1013B0000C0F07D06868C0F38100022809D1686863
:1013C000C00306D42868800714D52069012808D1F5
:1013D00010E02069B0B1C6F80090FFF749FB07465E
:1013E00005E00AE1FFF744FBC01B0228C4D82868C7
:1013F0008007F7D52868616920F0F80040EAC1004D
:1014000028600DE0C6F80080FFF732FB074604E0D5
:10141000FFF72EFBC01B022823D828688007F7D4CB
:10142000207800072CD57948A169D9B1C0F800907F
:10143000FFF71EFB074604E0FFF71AFBC01B02285C
:101440000FD8686A8007F7D571484FF4FA510068E1
:10145000B0FBF1F0009000BF0098411E0091FAD25D
:101460000EE080E0C0F80080FFF702FB074604E0D2
:10147000FFF7FEFAC01B022875D8686A8007F7D408
:101480002078400760D5E8690027C00008D4E869E3
:1014900040F08050E861E869012700F0805000903A
:1014A0005C480168C90513D40168834641F4807122
:1014B0000160FFF7DDFA824606E000BFFFF7D8FAC9
:1014C000A0EB0A0064284ED8DBF80000C005F5D573
:1014D000E06801280AD008B1052813D0286A20F056
:1014E00001002862286A20F0040002E0286A40F027
:1014F00001002862E06841F2883B98B1FFF7B8FA32
:1015000082460BE0286A40F004002862EEE700BF44
:10151000FFF7AEFAA0EB0A0159455AD8286A8007AE
:10152000F6D50CE0FFF7A4FA824605E0FFF7A0FA33
:10153000A0EB0A0159454CD8286A8007F6D41FB1A0
:10154000E86920F08050E861E06988B36968C1F318
:101550008101022944D00228C6F8608004D0FFF738
:1015600087FA044638E034E0FFF782FA074604E0E1
:10157000FFF77EFAC01B02282BD828688001F7D419
:10158000206AB0F5803F05D16868A16820F400307A
:1015900008436860D4E908010843696821F47411BC
:1015A00008436860C6F86090FFF762FA044606E0F8
:1015B00025E000BFFFF75CFA001B022809D8286865
:1015C0008001F7D51BE000BFFFF752FA001B02288D
:1015D00002D90320BDE8F88F28688001F4D40EE01A
:1015E0000128F7D06868226A00F48031914204D162
:1015F000616A00F47010884201D00120EAE70020FF
:10160000E8E700000010024000004242800442422D
:10161000180000200070004010B5401EB0F1807F1F
:1016200001D3012010BD4FF0E02460610F2160174D
:1016300000F088FB0020A06107202061002010BD81
:1016400070B5040004D094F83900002510B106E00C
:10165000012070BD84F83850204600F023F8242083
:1016600084F839002068C16821F40051C160204627
:1016700000F0C4FA2068016921F4904101612068FA
:10168000416921F02A0141612068C16841F400519B
:10169000C160E563202084F8390084F83A00002016
:1016A00070BD000030B585B0002400940194029410
:1016B000039400681449884224D11448816941F494
:1016C00080418161816901F480410491816941F027
:1016D0000401816180690E4D00F0040004904FF414
:1016E0000070009002200190032003906946284674
:1016F000FFF7CEF82815CDE9000469462846029484
:10170000FFF7C6F805B030BD0038014000100240B8
:10171000000801402DE9F843044690F839001F46BF
:1017200016460D4620284CD1C5B1BEB194F83800FC
:10173000012846D0012084F838004FF00008C4F892
:101740003C80212084F83900FFF792F9A684814675
:10175000E684A068B0F5805F03D004E00120BDE816
:10176000F883206928B12E465FF0000584F83880A0
:101770000EE00026FAE78021204600F09BFAA0B98F
:10178000AEB116F8010B21684860E08C401EE08481
:10179000E08C4B464FF0000200970028EBD14FF051
:1017A0004001204600F086FA30B10320D7E735F833
:1017B000020BC0F30800E6E7202084F8390000207F
:1017C000CDE70220CBE7FEE701684A69D243520524
:1017D0000FD46FF480624A61002140F8301F20224C
:1017E00042738173026942F00402026101730120B5
:1017F00070470020704700002DE9F84F044600684C
:1018000089460B9D01689846174641F48061016046
:101810002068016841F48071016000954FF0011B60
:101820000022594620460A9B00F0DEF84FF4007A69
:1018300040B120680068C00501D5C4F840A003206D
:10184000BDE8F88F216809F0FE0008612B462849A1
:1018500020460A9A00F0FCF8F0BB206841698069D4
:1018600000902A4620460A9900F070F940B1206C99
:1018700004283AD12068016841F40071016034E025
:10188000FEB2B8F1010F09D02168380A08612A4672
:1018900020460A9900F05AF90028E8D1206806612C
:1018A0002A4620460A9900F051F90028DFD1206825
:1018B000016841F48071016000950022594620467C
:1018C0000A9B00F091F80028B3D1216809F0FF00CD
:1018D00040F00100086100E007E02B460449204683
:1018E0000A9A00F0B5F80028AAD00120A8E7000065
:1018F000020001002DE9F843044600680D46DDE9C9
:10190000089701689846164641F4807101604B467D
:1019100000224FF001112046009700F065F848B111
:1019200020680068C00502D54FF4007020640320D1
:10193000BDE8F883216805F0FE0008613B464A4691
:101940001549204600F084F888B92068416980690B
:1019500000903A464946204600F0F8F848B1206C1D
:10196000042804D12068016841F40071016001205D
:10197000DEE7F5B2B8F1010F09D02168300A08613D
:101980003A464946204600F0E1F80028E7D12068B1
:1019900005610020CCE700000200010070B516468A
:1019A0000D4604460DE02046FFF70EFF08B101206A
:1019B00070BD681C05D0FFF75BF8801BA84207D8F4
:1019C00035B120684069C0434007ECD4002070BDA9
:1019D000002044F8300F20216173A073216941F089
:1019E000200121612073E2E72DE9F0471E46904671
:1019F0000D460446C1F30747DDF8209008E0701C4F
:101A000006D0FFF735F8A0EB0900B0420FD876B149
:101A10002068012F18D0806925EA00000004000C1E
:101A200014D000214145EAD00020BDE8F087002015
:101A300044F8300F20216173A073216941F0200127
:101A4000216120730120F0E74069E5E70121E9E722
:101A50002DE9F0479A4691460E46044600254FF080
:101A60002008C1F3074725E020684069C0434005CE
:101A700014D42068016841F40071016021686FF49A
:101A800080604861256384F83D8084F83E50206C76
:101A900040F00400206484F83C501FE0B9F1FF3F9F
:101AA00008D0FEF7E5FFA0EB0A0149450CD8B9F1D3
:101AB000000F09D02068012F13D0806926EA0000AA
:101AC0000004000C0BD0CFE744F8305F84F80D80A1
:101AD000A573206940F02000206125730120BDE836
:101AE000F0874069EAE72DE9F041002590460E466F
:101AF0000446202717E04069C043C0060CD454F8C0
:101B0000301B6FF01000486144F810596777A577D3
:101B1000206A2062257717E0FEF7AAFFA0EB0800F5
:101B2000B04208D83EB120684169C9434906E2D4B1
:101B30000020BDE8F08144F8305F6773A573206929
:101B400040F02000206125730120F2E770B51646B1
:101B50000D4604460DE02046FFF736FE08B1012091
:101B600070BD681C05D0FEF783FF801BA84207D814
:101B700035B120684069C0430006ECD4002070BD38
:101B8000002044F8300F20216173A073216941F0D7
:101B9000200121612073E2E7FEE7FFF7A1BB704758
:101BA0007047FFF71FBA30B58FB028216846FEF79F
:101BB000D0FA14210AA8FEF7CCFA01210804CDE9D5
:101BC00000100024029402250491CDE907504FF43F
:101BD000E01009906846FFF78FFB0F20CDE90A055A
:101BE0006802CDE90C4002210AA80E94FFF786FA9C
:101BF000FFF71AFB0FB030BD7047000070B5044608
:101C000000680169E26821F44051114301612169D2
:101C1000A0680843616908432168CA6841F20C63FF
:101C20009A430243CA6020684169A26921F4407165
:101C3000114341611E492068884202D1FFF70AFB27
:101C400001E0FFF7F7FA00EBC00101EB001260685A
:101C500064218000B2FBF0F3B3FBF1F36FF01806E0
:101C60007343B2FBF0F5B2FBF0F605EB83053223CC
:101C700003EB0515B5FBF1F5B6FBF1F605F0F00544
:101C800005EB0615B2FBF0F6B2FBF0F0B0FBF1F09D
:101C90006FF01802504306EB800003EB0010B0FB1E
:101CA000F1F0216800F00F002844886070BD00004A
:101CB000003801402DE9F041984617460E4604468B
:101CC000069D1DE0681C1BD02DB1FEF7D1FEA0EBD8
:101CD0000800A84214D92068C16821F4D071C160FD
:101CE0002068416921F001014161202084F8390018
:101CF00084F83A00002084F838000320BDE8F08121
:101D00002068006836EA000004D00020B842D9D02C
:101D10000020F3E70120F9E7FEE700000FB4084BCD
:101D200010B504A902AA039800F0EEF8044602A92F
:101D3000002000F080FC204610BC5DF814FB000081
:101D4000372600080907090E002804DB00F1E0200F
:101D500080F80014704700F00F0000F1E02080F8D8
:101D6000141D704702E008C8121F08C1002AFAD1EA
:101D700070477047002001E001C1121F002AFBD10B
:101D8000704700002DE9FF5F82B00021DDE90430DB
:101D9000020DDDF840B0034318D044F61050A2F213
:101DA000FF3242431514119801281FD0A5EB0B00F8
:101DB000401C5FEA000A4FF000064E4FDFF83891F2
:101DC000B046504615D5CAF1000413E0119801241D
:101DD0004AA3012801D16FEA0B010298119AC0E9C8
:101DE0000031C0E9024206B0BDE8F09FCBF100002F
:101DF000DFE704460021404A491842EB0450CDE990
:101E0000001012E0E00707D032463B464046494604
:101E1000FEF7A7FB8046894632463B4610461946E8
:101E2000FEF79FFB06460F466410002CEAD1DDE961
:101E30000401DDE90023BAF1000F06DAFEF791FB99
:101E400042464B46FEF78DFB05E0FEF7FCFB4246A3
:101E50004B46FEF7F8FB04460E460022284BFEF7E1
:101E600079FC03D84FF0FF30014607E00022254BF4
:101E700020463146FEF77FF9FEF754FC102409E0B6
:101E8000002C0ADB0A220023FEF785FA039B30327E
:101E90001A55641E50EA0102F2D1641C039AC4F17F
:101EA00011031444119A012A03D0012208430DD1D1
:101EB0000AE0084304D000204FF0110B119072E7A4
:101EC000A3EB0B056D1E0DE05B4504DD4FF000023A
:101ED00005F1010504E003DA4FF00002A5F1010568
:101EE000002AECD002981199C0E90231C0E90045FE
:101EF00079E70000000014400000F03F30000000CF
:101F00000000F0430000E03F2DE9FF4F95B09B46F5
:101F10008946064600250FE2252877D1002427466A
:101F2000F84A0121059400E0044316F8013F203BE4
:101F300001FA03F01042F7D130782A2811D06FF05F
:101F40002F033078A0F13002092A16D8059A44F000
:101F5000020402EB820203EB42021044761C05905D
:101F6000EFE759F8042B0592002A03DA504244F4B3
:101F70000054059044F00204761C30782E2816D1C7
:101F800016F8010F44F004042A280DD06FF02F0238
:101F90003078A0F13003092B09D807EB870302EB57
:101FA0004303C718761CF3E759F8047B761C307896
:101FB0006C280FD006DC4C2817D068280DD06A2872
:101FC00014D104E0742810D07A280FD10DE044F425
:101FD00000140AE044F4801401E044F440147278E0
:101FE000824202D104F58014761C761C3078662873
:101FF0000BD013DC582877D009DC002875D0452891
:10200000F6D04628F4D047281AD19DE118E063287D
:1020100035D0642879D0652812D195E1702873D025
:1020200008DC6728F1D069286FD06E280DD06F28A2
:1020300006D1B5E073282CD0752875D0782874D0D7
:102040005A46179990476D1C75E1C4F30250022857
:1020500009D003280DD0D9F8001004280DD00D6048
:1020600009F1040967E1D9F80010EA17C1E9005243
:10207000F6E7D9F800100D80F2E70D70F0E719F8D7
:10208000041B8DF8001000208DF80100EA460120A5
:1020900003E059F804AB4FF0FF3061074FF0000147
:1020A00002D40DE008F101018846B9420FDA8045FB
:1020B000F8DB1AF808100029F4D108E008F1010152
:1020C00088468142FADB1AF808100029F6D10598F3
:1020D0005B46A0EB080721463846179A00F094FAB1
:1020E000284400EB080507E04DE029E10DE01AF86F
:1020F000010B5A4617999047B8F10108F7D25B4691
:1021000021463846179A13E142E00A220092C4F3AE
:1021100002524FF0000A022A08D059F804CB032AD1
:102120004FEAEC710AD00DE029E02AE009F107013D
:1021300021F00702F2E802C1914609E00FFA8CFC97
:102140004FEAEC71042A03D14FFA8CFC4FEAEC7190
:10215000002907DA0A460021DCF1000C61EB0201DC
:102160002D2202E0220504D52B228DF80420012225
:1021700003E0E20701D02022F7E7904659E00A2168
:1021800002E010220DE010214FF0000A00910BE058
:1021900010224FF0000A44F004040827009203E0E4
:1021A00008224FF0000A0092C4F30252022A05D01E
:1021B00059F804CB0021032A08D009E009F10701EE
:1021C00021F00702F2E802C1914605E01FFA8CFCFB
:1021D000042A01D10CF0FF0C4FF00008220728D58B
:1021E000702806D0009B83F0100353EA0A0305D041
:1021F0000EE040228DF80420012208E05CEA010292
:1022000006D030228DF804208DF805000222904679
:10221000009B83F0080353EA0A030AD15CEA010237
:1022200001D1620705D530228DF804204FF0010856
:102230007F1E582804D034A003900EA802900DE011
:1022400036A0F9E753466046009AFEF7A4F88446A4
:102250000398825C0298401E029002705CEA0100C2
:10226000F0D1029806A9081A00F1200A600702D5E9
:1022700024F4803400E00127574502DDA7EB0A0073
:1022800000E0002000EB0A01009005984144401A4C
:102290000590E00306D45B462146179A059800F0A6
:1022A000B3F90544002706E001A85A46C05D179916
:1022B00090476D1C7F1C4745F6DBE0030CD55B4661
:1022C0002146179A059800F09FF9054404E0302054
:1022D0005A46179990476D1C0099481E0090002996
:1022E000F5DC08E0029802995A460078491C0291F0
:1022F000179990476D1CBAF10001AAF1010AF1DCAF
:1023000065E10000092801003031323334353637B9
:102310003839616263646566000000003031323331
:1023200034353637383941424344454600000000D1
:1023300000F058F90544761C307800287FF4ECADA5
:1023400019B02846BDE8F08F620700D4062709F1CE
:10235000070222F0070CFCE80223E14603F00048E4
:102360005FEA080C02D00FF2702C0DE05FEA045C0B
:1023700002D50FF2682C07E05FEAC47C02D00FF2AE
:10238000602C01E0AFF2700C4FF0FF3823F00043F7
:10239000CDF850C065280CD006DC452809D0462869
:1023A0001DD047283DD13DE0662818D067287ED152
:1023B00038E00021112F01DB112000E0781CCDE96D
:1023C000000106A90EA8FFF7DDFCDDE90F010E9A5A
:1023D00003910021009207F1010A04914DE04FF0B2
:1023E00000400097CDE9011006A90EA8FFF7CAFC2E
:1023F000DDE90F0203920E9B11990022DDF80CA07B
:102400000093049211B9791C00EB010AB7EB0A00A2
:1024100004D4C0F1FF3007F1010A0490AAEB0700D1
:10242000019044E0012F00DA01270021112F01DD86
:10243000112000E03846CDE9000106A90EA8FFF7FB
:10244000A1FCDDE90F010E9A039100210491009295
:10245000BA4621070CD40399514500DA8A46BAF1ED
:10246000010F05DD009AAAF10101515C302908D065
:10247000B84202DA10F1040F06DA0121CDE90110A9
:1024800015E0AAF10101E9E7002805DC04990144FF
:102490000491AAEB000102E0411C514500DD8A468F
:1024A0000499401A401C01904FF000400290200710
:1024B00004D40198504501DBCDF8048000208DF84C
:1024C0004F0002980DF14F07B0F1004F25D02B209F
:1024D0000E9002984FF0020800280CDA4042029059
:1024E0002D200E9007E00A210298FDF73EFF3031C3
:1024F000029007F8011DB8F10001A8F10108F2DC13
:1025000002980028EFD1791E0E980870307800F0FC
:10251000200040F0450007F8020D12A8C01B00F192
:1025200007081498007800B1012000EB0A01019817
:1025300001EBE07105984144401A401E0590E0030C
:1025400006D45B462146179A059800F05DF80544CD
:102550001498007818B15A46179990476D1CE003FB
:1025600024D55B462146179A059800F04DF805449E
:102570001CE00498002807DBDDE90301884203DD45
:102580000098405C179901E0179930205A4690470F
:10259000049805F10105401C04900198401E01902B
:1025A00004D12E205A46179990476D1CBAF10001AC
:1025B000AAF1010ADDDC05E017F8010B5A4617996C
:1025C00090476D1CB8F10001A8F10108F4DC5B46EE
:1025D0002146179A0598ABE62D0000002B0000005D
:1025E000200000002DE9F041044600251E46174654
:1025F000880404D405E039462020B0476D1C641ED1
:10260000F9D52846BDE8F0812DE9F04104460025C2
:102610001E469046C80301D5302700E020278804D5
:1026200004D505E041463846B0476D1C641EF9D517
:102630002846BDE8F0810A68531C0B601070704793
:1026400000F00F01000900EB800001EB4000704733
:1026500030B585B000208DF80C008DF810000125F4
:1026600003A8CDE9000564242B460F22D021029453
:102670000F48FEF7C7FA9DF80C00400716D404A8CF
:10268000CDE9000501230E22D02102940848FEF76F
:10269000B9FA9DF81000012340F02000CDE90005B3
:1026A0000E22D02102940248FEF7D4FB05B030BDC3
:1026B0001C00002008B5FEF79DFCFFF774FA4448A3
:1026C000816941F020018161816901F0200100915F
:1026D000816941F008018161816901F0080100917F
:1026E000816941F00401816180693A4900F0040088
:1026F00000903948002401603849C0E901144FF4C2
:102700008041C0E9034144618461C4610462FEF711
:10271000B5F931483249543001604FF41651C0E9DF
:1027200001140C21C460C0E904418461C461FEF756
:1027300087FF2C4C4FF4FA75B4F10406FEF75EF8EF
:102740002078009024486378A27827A19430FFF77E
:10275000E5FA21489430FDF707FD1F4982B2943114
:102760002B46A1F14000FEF7D5FFA07900901A4852
:102770006379227920A19430FFF7D0FA164894307B
:10278000FDF7F2FC144982B294312B46A1F14000CE
:10279000FEF7C0FFFFF75CFFFEF708F83060FDF7BB
:1027A000B5FD02460C480B4618A19430FFF7B6FA67
:1027B00009489430FDF7D8FC074982B294312B4682
:1027C000A1F14000FEF7A6FF2846FEF74FF8B5E757
:1027D00000100240005800401C000020A0860100AC
:1027E0000038014004000020253032643A253032A0
:1027F000643A253032640000253032642D253032B1
:10280000642D32302530326400000000256600005F
:102810000000000000000000010203040607080990
:102820000000000001020304482800080000002006
:102830001C000000641D0008642800081C00002023
:10284000A4040000741D0008000000000000000047
:102850000000000001000000100000000000000067
:042860000024F4005C
:04000005080000ED02
:00000001FF
