:020000040800F2
:10000000D804002001010008271300084710000849
:1000100025130008A9010008A5140008000000002D
:100020000000000000000000000000002D13000888
:10003000AB010008000000002B1300082F1300087C
:100040001B0100081B0100081B0100081B01000820
:100050001B0100081B0100081B0100081B01000810
:100060001B0100081B0100081B0100081B01000800
:100070001B0100081B0100081B0100081B010008F0
:100080001B0100081B0100081B0100081B010008E0
:100090001B0100081B0100081B0100081B010008D0
:1000A0001B0100081B0100081B0100081B010008C0
:1000B0001B0100081B0100081B0100081B010008B0
:1000C0001B0100081B0100081B0100081B010008A0
:1000D0001B0100081B0100081B0100081B01000890
:1000E0001B0100081B0100081B010008DFF80CD0F1
:1000F00000F048F8004800476D180008D8040020B8
:100100000648804706480047FEE7FEE7FEE7FEE7B1
:10011000FEE7FEE7FEE7FEE7FEE7FEE785130008E1
:10012000ED000008D2B201E000F8012B491EFBD21D
:1001300070470022F6E710B513460A4604461946F2
:10014000FFF7F0FF204610BD421C10F8011B0029EC
:10015000FBD1801A704730B50B46014600202022A3
:10016000012409E021FA02F59D4205D303FA02F5C4
:10017000491B04FA02F52844151EA2F10102F1DC24
:1001800030BD0000064C074D06E0E06840F001037A
:1001900094E8070098471034AC42F6D3FFF7AAFF63
:1001A0006C1900088C190008FEE7704700B585B08F
:1001B0006422072103A88DE8070001230022D02133
:1001C000144800F0F7F99DF80C0001F047FB124AC3
:1001D00010709DF80D0001F041FB50709DF80E006D
:1001E00001F03CFB90709DF80F0001F037FBD070E0
:1001F0009DF8100001F032FB10719DF8110001F024
:100200002DFB50719DF8120001F028FB907105B094
:1002100000BD0000180000200000002070B504465A
:1002200000F0FEF80546601C02D004480078044443
:1002300000F0F6F8401BA042FAD370BD0800002081
:100240002DE9F84FDFF8B891002409F1040A0AF10A
:10025000040B23460F270BF1040EC9E00125A5402E
:100260002A40AA427DD1674ED1F804C0ACEB060803
:10027000B44532D014DCBCF1030F3AD009DCBCF138
:10028000000F2AD0BCF1010F1CD0BCF1020F31D1FC
:100290001DE0BCF1110F17D0BCF1120F2AD119E0EB
:1002A000B8F5881F19D006DCB8F5803F15D0B8F531
:1002B000801F1FD111E0B8F5001F0ED0B8F5041F44
:1002C00018D10AE0CB6815E0CB681B1D12E0CB68A3
:1002D00008330FE0CB680C330CE08B682BB1012B9B
:1002E0004FF0080303D0456104E0042302E00561F8
:1002F00000E00023FF2A01D8064601E000F10406D1
:100300004FEA840501D9A5F12005D6F8008007FA47
:1003100005FC28EA0C0803FA05F548EA0508C6F8C2
:1003200000804D68ED0062D5374DAE6946F001069C
:10033000AE61AD6924F0030605F001050095334D6B
:1003400006EB050CDCF80850A607360F07FA06F88E
:1003500025EA0805DFF8B880404503D14FF00008D2
:1003600017E044E0DFF8AC80404502D14FF00108CF
:100370000FE0DFF8A480404502D14FF0020808E00A
:10038000DFF89880404502D14FF0030801E04FF0BC
:10039000040808FA06F848EA0508CCF808804D6811
:1003A000D9F80060ED034D4601D5164300E09643B1
:1003B0002E604D68DAF80060AD03554601D516434E
:1003C00000E096432E604D68DBF80060ED025D466C
:1003D00001D5164300E096432E604D68DEF80060BC
:1003E000AD02754601D5164300E096432E60641CAD
:1003F0000D682A46E5407FF431AFBDE8F88F000074
:1004000000040140000011100010024000000140F3
:1004100000080140000C01400010014000140140A0
:1004200001488068704700000800002070B5040093
:1004300025D094F83D00002520B984F83C50204692
:1004400000F0E0F9242084F83D002068016821F0E4
:10045000010101602068016841F4004101602068E9
:10046000016821F40041016000F024FB4D4A6168FD
:10047000914201D84C4900E04C49884201D2012008
:1004800070BD4B492368B0FBF1F15E6826F03F0672
:100490000E435E606368934206D94FF496735943E6
:1004A0004FF47A73B1FBF3F12368491C1E6A26F0FE
:1004B0003F06314319626168914210D84900401EDD
:1004C000B0FBF1F2521CC2F30B02042A01D2042049
:1004D00022E0B0FBF1F0401CC0F30B001CE0A2686E
:1004E000F2B301EBC10303EB0116431EB3FBF6F3BA
:1004F0005B1C43F480431B0549D092B301EBC1025E
:1005000002EB0111401EB0FBF1F0401CC0F30B00E8
:1005100040F4804040F400402168CA694CF6FF7303
:100520009A431043C861D4E9071001432068026868
:1005300022F0C00211430160D4E9030101432068A5
:10054000826848F2FF339A4311438160D4E9050180
:1005500008432168CA6822F0FF021043C86001E026
:100560000EE016E02068016841F001010160256499
:10057000202084F83D00256384F83E50002070BDA3
:1005800001EB4106431EB3FBF6F35B1CB3E701200E
:10059000C2E701EB4101401EB0FBF1F0401CC0F38B
:1005A0000B00B7E7A086010080841E0000093D0013
:1005B00040420F002DE9FF4F83B00025DDE910799F
:1005C0009A4693460446DDF848800095FFF728FFD9
:1005D000064694F83D0020287CD119230122854944
:1005E0002046009600F0C6FD0028F5D194F83C00A6
:1005F00001286FD0012084F83C0020680168C907F9
:1006000003D1016841F0010101602068016821F413
:1006100000610160222084F83D00402084F83E0003
:1006200025646762A4F82A90608D20857248E06294
:10063000CDE9008653465A462046049900F01CFD39
:1006400000287DD1208DDFF8B491202768B10128E2
:1006500014D00228206801681ED041F48061016036
:100660002068416980690090B6E02068416981692D
:100670000091016841F400710160ADE020680168FB
:1006800021F48061016072B620684169816900913E
:10069000016841F400710AE041F40061016072B642
:1006A0002068416981690091016821F480610160DD
:1006B00062B691E0032868D801280CD0022843468E
:1006C0004FF000024946204600960FD000F052FD40
:1006D000B0BB10E08BE032464146204600F0C9FD39
:1006E00070BB20680069616A08706CE000F042FD30
:1006F00030BB72B634E02068016821F4806101608B
:1007000072B620680069616A0870606A401C6062A5
:10071000208D401E2085608D401E6085384846F241
:10072000A8110068B0FBF1F0C0EBC00000EB800046
:100730000090401E009008D020684069C04300E04F
:1007400029E040070CD50098F3E744F8305F677361
:10075000A573206940F02000206162B625731AE07D
:100760002068016841F40071016020680069616AD5
:100770000870606A401C6062218D491E2185618D70
:10078000491E618562B621681BE03246414620461B
:1007900000F06FFD18B1012007B0BDE8F08F2068B0
:1007A0000069616A0870606A401C6062218D491EA0
:1007B0002185618D491E618521684A69D2435207AE
:1007C0000AD409690170606A401C6062208D401E75
:1007D0002085608D401E6085208D00287FF46AAFE3
:1007E00084F83D7084F83E5084F83C50D4E70220F1
:1007F000D2E70000020010000000FFFF040001002B
:100800001400002010B586B00021009101910291E2
:1008100003910068104988421BD1104CA06940F038
:100820000800A061A069694600F0080004904FF438
:100830004060009012200190032003900848FFF7C9
:10084000FFFCE06940F48000E061E06900F48000B2
:10085000049006B010BD0000005800400010024097
:10086000000C0140024881680278114481607047A1
:1008700008000020074810B5016841F01001016030
:10088000032000F067F8002000F006F800F024F8DC
:10089000002010BD0020024070B50D4D04464FF4FD
:1008A0007A712878B1FBF0F00A490968B1FBF0F0E1
:1008B00000F0F2FA48B9102C07D200222146501E4F
:1008C00000F028F800206C6070BD012070BD0000B1
:1008D00008000020140000200C4808B5816941F090
:1008E00001018161816901F001010091C16941F05B
:1008F0008051C161C06900F0805000900448416897
:1009000021F0E06141F00071416008BD001002403B
:1009100000000140F0B40E4B1B680C46C3F30223E9
:10092000C3F10705042D00D90425191D072901D29B
:10093000002300E0DB1E012606FA05F1491E2140D6
:1009400099409E40761E16403143F0BC00F0C0BD79
:100950000CED00E0064900F0070208684FF6FF03BF
:10096000184040EA0220034A104308607047000024
:100970000CED00E00000FA05704700002DE9F0479B
:100980000F46050061D0434E306800F00700B842C2
:1009900009D2306820F0070038433060306800F03A
:1009A0000700B84251D128683B4C810712D5400757
:1009B00003D5606840F4E06060602878000703D5E4
:1009C000606840F4605060606068A96820F0F000E2
:1009D000084360602878C00728D06868012810D0D4
:1009E0002168022810D0890700292EDA616821F0D9
:1009F000030101436160FFF713FD804641F288392E
:100A00000DE021688903EFE78901EDE7FFF708FDB5
:100A1000A0EB0801494502D90320BDE8F0876068D2
:100A2000696800F00C00B0EB810FEFD1306800F086
:100A30000700B8420BD9306820F007003843306017
:100A4000306800F00700B84201D00120E5E72878BF
:100A5000400705D56068E96820F4E06008436060FD
:100A60002878000706D56068296920F4605040EABC
:100A7000C100606000F03EF86168084AC1F30311EC
:100A8000515CC8400649086006480068FFF704FF4B
:100A90000020C2E700200240001002405419000864
:100AA000140000200C00002001490120C864704798
:100AB000000042420448054900684968044AC1F3FD
:100AC0000221515CC8407047140000200010024011
:100AD000641900080448054900684968044AC1F3DC
:100AE000C221515CC8407047140000200010024031
:100AF0006419000812A185B00FC98DE80F0014A079
:100B0000144A006804905168134801F00C03042B48
:100B100010D0082B0ED1C1F38343C9031DF8030085
:100B20000AD5516804AAC1F34041515C0A4A5043B6
:100B3000B0FBF1F005B0704708494843FAE7000000
:100B400002030405060708090A0B0C0D0E0F10100E
:100B5000010200000010024000127A0000093D006E
:100B600010B5044CA068000603D5FFF705FF8020F0
:100B7000A07210BD001002402DE9F84F040070D0A3
:100B80002078C04DC00749D06868C0F381000128B3
:100B900007D06868C0F38100022809D16868C003E3
:100BA00006D52868800339D560680028E7D035E08D
:100BB0006068B0F5803F0BD010B1B0F5A02F11D018
:100BC000286820F480302860286820F4802002E023
:100BD000286840F480302860606890B1FFF720FCFE
:100BE00006460AE0286840F480202860F0E700BF4D
:100BF000FFF716FC801B642873D828688003F7D59C
:100C00000CE0FFF70DFC064605E000BFFFF708FC0F
:100C1000801B6428F0D828688003F7D420789A4E87
:100C200080074FF001094FF0000839D5686810F0CF
:100C30000C0F07D06868C0F38100022809D16868EA
:100C4000C00306D42868800714D52069012808D17C
:100C500010E02069B0B1C6F80090FFF7E1FB07464D
:100C600005E00AE1FFF7DCFBC01B0228C4D82868B6
:100C70008007F7D52868616920F0F80040EAC100D4
:100C800028600DE0C6F80080FFF7CAFB074604E0C5
:100C9000FFF7C6FBC01B022823D828688007F7D4BB
:100CA000207800072CD57948A169D9B1C0F8009007
:100CB000FFF7B6FB074604E0FFF7B2FBC01B0228B4
:100CC0000FD8686A8007F7D571484FF4FA51006869
:100CD000B0FBF1F0009000BF0098411E0091FAD2E5
:100CE0000EE080E0C0F80080FFF79AFB074604E0C2
:100CF000FFF796FBC01B022875D8686A8007F7D4F7
:100D00002078400760D5E8690027C00008D4E8696A
:100D100040F08050E861E869012700F080500090C1
:100D20005C480168C90513D40168834641F48071A9
:100D30000160FFF775FB824606E000BFFFF770FB1E
:100D4000A0EB0A0064284ED8DBF80000C005F5D5FA
:100D5000E06801280AD008B1052813D0286A20F0DD
:100D600001002862286A20F0040002E0286A40F0AE
:100D700001002862E06841F2883B98B1FFF750FB20
:100D800082460BE0286A40F004002862EEE700BFCC
:100D9000FFF746FBA0EB0A0159455AD8286A80079D
:100DA000F6D50CE0FFF73CFB824605E0FFF738FB89
:100DB000A0EB0A0159454CD8286A8007F6D41FB128
:100DC000E86920F08050E861E06988B36968C1F3A0
:100DD0008101022944D00228C6F8608004D0FFF7C0
:100DE0001FFB044638E034E0FFF71AFB074604E037
:100DF000FFF716FBC01B02282BD828688001F7D408
:100E0000206AB0F5803F05D16868A16820F4003001
:100E100008436860D4E908010843696821F4741143
:100E200008436860C6F86090FFF7FAFA044606E0E7
:100E300025E000BFFFF7F4FA001B022809D8286854
:100E40008001F7D51BE000BFFFF7EAFA001B02287C
:100E500002D90320BDE8F88F28688001F4D40EE0A1
:100E60000128F7D06868226A00F48031914204D1E9
:100E7000616A00F47010884201D00120EAE7002086
:100E8000E8E70000001002400000424280044242B5
:100E9000140000200070004010B5401EB0F1807FAB
:100EA00001D3012010BD4FF0E02460610F216017D5
:100EB00000F00EFB0020A06107202061002010BD83
:100EC00070B5040004D094F83900002510B106E094
:100ED000012070BD84F83850204600F023F824200B
:100EE00084F839002068C16821F40051C1602046AF
:100EF00000F04AFA2068016921F4904101612068FC
:100F0000416921F02A0141612068C16841F4005122
:100F1000C160E563202084F8390084F83A0000209D
:100F200070BD000030B585B0002400940194029497
:100F3000039400681449884224D11448816941F41B
:100F400080418161816901F480410491816941F0AE
:100F50000401816180690E4D00F0040004904FF49B
:100F600000700090022001900320039069462846FB
:100F7000FFF766F92815CDE9000469462846029472
:100F8000FFF75EF905B030BD0038014000100240A7
:100F9000000801402DE9F843044690F839001F4647
:100FA00016460D4620284CD1C5B1BEB194F8380084
:100FB000012846D0012084F838004FF00008C4F81A
:100FC0003C80212084F83900FFF72AFAA684814664
:100FD000E684A068B0F5805F03D004E00120BDE89E
:100FE000F883206928B12E465FF0000584F8388028
:100FF0000EE00026FAE78021204600F021FAA0B991
:10100000AEB116F8010B21684860E08C401EE08408
:10101000E08C4B464FF0000200970028EBD14FF0D8
:101020004001204600F00CFA30B10320D7E735F834
:10103000020BC0F30800E6E7202084F83900002006
:10104000CDE70220CBE7FEE701684A69D2435205AB
:101050000FD46FF480624A61002140F8301F2022D3
:1010600042738173026942F004020261017301203C
:1010700070470020704700002DE9F84F04460068D3
:1010800089460B9D01689846174641F480610160CE
:101090002068016841F48071016000954FF0011BE8
:1010A0000022594620460A9B00F064F84FF4007A6B
:1010B00040B120680068C00501D5C4F840A00320F5
:1010C000BDE8F88F216809F0FE0008612B46284929
:1010D00020460A9A00F082F8F0BB206841698069D6
:1010E00000902A4620460A9900F0F6F840B1206C9C
:1010F00004283AD12068016841F40071016034E0AD
:10110000FEB2B8F1010F09D02168380A08612A46F9
:1011100020460A9900F0E0F80028E8D1206806612E
:101120002A4620460A9900F0D7F80028DFD1206827
:10113000016841F480710160009500225946204603
:101140000A9B00F017F80028B3D1216809F0FF00CE
:1011500040F00100086100E007E02B46044920460A
:101160000A9A00F03BF80028AAD00120A8E7000066
:10117000020001002DE9F0471E4690460D46044648
:10118000C1F30747DDF8209008E0701C06D0FFF798
:1011900047F9A0EB0900B0420FD876B12068012FC3
:1011A00018D0806925EA00000004000C14D000214A
:1011B0004145EAD00020BDE8F087002044F8300F18
:1011C00020216173A073216941F020012161207306
:1011D0000120F0E74069E5E70121E9E72DE9F04763
:1011E0009A4691460E46044600254FF02008C1F36A
:1011F000074725E020684069C043400514D42068B3
:10120000016841F40071016021686FF480604861F9
:10121000256384F83D8084F83E50206C40F0040043
:10122000206484F83C501FE0B9F1FF3F08D0FFF77D
:10123000F7F8A0EB0A0149450CD8B9F1000F09D025
:101240002068012F13D0806926EA00000004000CFA
:101250000BD0CFE744F8305F84F80D80A573206988
:1012600040F02000206125730120BDE8F08740692F
:10127000EAE72DE9F041002590460E460446202776
:1012800017E04069C043C0060CD454F8301B6FF01F
:101290001000486144F810596777A577206A2062EA
:1012A000257717E0FFF7BCF8A0EB0800B04208D89C
:1012B0003EB120684169C9434906E2D40020BDE837
:1012C000F08144F8305F6773A573206940F0200017
:1012D000206125730120F2E770B516460D460446DD
:1012E0000DE02046FFF7B0FE08B1012070BD681C7C
:1012F00005D0FFF795F8801BA84207D835B12068C4
:101300004069C0430006ECD4002070BD002044F8C2
:10131000300F20216173A073216941F02001216108
:101320002073E2E7FEE7FFF71BBC70477047FFF74B
:1013300099BA30B58FB028216846FEF7FAFE14211D
:101340000AA8FEF7F6FE01210804CDE900100024EA
:10135000029402250491CDE907504FF4E010099062
:101360006846FFF709FC0F20CDE90A056802CDE9C0
:101370000C4002210AA80E94FFF700FBFFF794FB34
:101380000FB030BD7047000070B5044600680169B9
:10139000E26821F44051114301612169A0680843CA
:1013A000616908432168CA6841F20C639A430243A9
:1013B000CA6020684169A26921F44071114341610A
:1013C0001E492068884202D1FFF784FB01E0FFF745
:1013D00071FB00EBC00101EB00126068642180002A
:1013E000B2FBF0F3B3FBF1F36FF018067343B2FBFB
:1013F000F0F5B2FBF0F605EB8305322303EB0515A0
:10140000B5FBF1F5B6FBF1F605F0F00505EB0615B9
:10141000B2FBF0F6B2FBF0F0B0FBF1F06FF01802A7
:10142000504306EB800003EB0010B0FBF1F02168A5
:1014300000F00F002844886070BD000000380140B3
:101440002DE9F041984617460E460446069D1DE0DC
:10145000681C1BD02DB1FEF7E3FFA0EB0800A842EB
:1014600014D92068C16821F4D071C1602068416935
:1014700021F001014161202084F8390084F83A000C
:10148000002084F838000320BDE8F081206800685F
:1014900036EA000004D00020B842D9D00020F3E79B
:1014A0000120F9E7FEE700000FB4084B10B504A9CE
:1014B00002AA039800F02CF8044602A9002000F0CC
:1014C000C8F9204610BC5DF814FB00005318000852
:1014D0000907090E002804DB00F1E02080F8001461
:1014E000704700F00F0000F1E02080F8141D7047F5
:1014F00002E008C8121F08C1002AFAD170477047DD
:10150000002001E001C1121F002AFBD1704700003A
:101510002DE9FF4F8BB088460546002606E02528BA
:101520000BD0DDE90D1290476D1C761C2878002841
:10153000F5D10FB03046BDE8F08F0024A146A24699
:101540000122AE4900E0044315F8013F203B02FAB6
:1015500003F00842F7D128782A2810D06FF02F0224
:101560002878A0F13001092915D809EB890102EB8F
:10157000410144F0020400EB01096D1CF0E758F84A
:10158000041B5FEA010903D544F40054C9F10009C2
:1015900044F002046D1C28782E2817D115F8010F8D
:1015A00044F004042A280ED06FF02F022878A0F10E
:1015B000300109290AD80AEB8A0102EB410100EB4C
:1015C000010A6D1CF2E758F804AB6D1C28786C28F2
:1015D0000FD006DC4C2817D068280DD06A2814D10B
:1015E00004E0742810D07A280FD10DE044F40014E0
:1015F0000AE044F4801401E044F440146978814224
:1016000002D104F580146D1C6D1C2878692865D002
:1016100006DC00288DD0632827D0642806D15DE041
:101620006E2808D073282AD0752877D0DDE90D12EE
:101630009047761CE0E0C4F30250022809D003284A
:101640000DD0D8F8001004280DD00E6008F1040861
:10165000D2E0D8F80010F217C1E90062F6E7D8F836
:1016600000100E80F2E70E70F0E718F8041B8DF8FA
:10167000001000208DF80100EB46012003E058F82F
:1016800004BB4FF0FF3061074FF0000701D40AE0C0
:101690007F1C57450DDA8742FADB1BF8071000293B
:1016A000F6D106E07F1C8742FCDB1BF807100029FF
:1016B000F8D1DDE90D23A9EB07008146214600F0B2
:1016C000B1F83044C61904E0DDE90D121BF8010B36
:1016D00090477F1EF8D22146484688E058F8040B10
:1016E000C4F302514FF00A0B032900D100B20429C0
:1016F00000D140B2002802DA40422D2102E021054B
:1017000005D52B218DF82410012104E006E0E10726
:1017100010D02021F6E708AF089113E058F8040B29
:10172000C4F302514FF00A0B032900D180B20429FF
:1017300000D1C0B20021EEE75946FEF70CFD303172
:1017400007F8011D0028F7D1ADEB070000F1200BD1
:10175000600702D524F4803401E04FF0010ADA4535
:1017600002DDAAEB0B0000E00020824600EB0B013B
:1017700008980144A9EB01000A90E00306D4DDE9D2
:101780000D2321460A9800F04DF806444FF0000959
:1017900008E009A911F80900DDE90D12904709F1E7
:1017A0000109761C08998945F3DBE0030CD5DDE9D6
:1017B0000D2321460A9800F035F8064404E0DDE9DF
:1017C0000D1230209047761CBAF10001AAF1010AEF
:1017D000F5DC05E0DDE90D1217F8010B9047761CEA
:1017E000BBF10001ABF1010BF4DC0A982146DDE905
:1017F0000D2300F005F806446D1C97E6092801004A
:101800002DE9F041044600251E461746880404D4FD
:1018100005E039462020B0476D1C641EF9D52846E6
:10182000BDE8F0812DE9F041044600251E469046B2
:10183000C80301D5302700E02027880404D505E03F
:1018400041463846B0476D1C641EF9D52846BDE8B0
:10185000F0810A68531C0B601070704700F00F0194
:10186000000900EB800001EB4000704708B5FFF76E
:1018700001F8FFF75EFD2C48816941F0200181618C
:10188000816901F020010091816941F008018161C5
:10189000816901F008010091816941F004018161D1
:1018A0008069224900F00400009021480024016072
:1018B0002049C0E901144FF48041C0E9034144616B
:1018C0008461C4610462FEF7B1FD19481A495430BD
:1018D00001604FF41651C0E901140C21C460C0E945
:1018E00004418461C461FFF7EBFA144C4FF47A753C
:1018F000FEF75CFC207800900D486378A27810A178
:101900009430FFF7D1FD0A489430FEF71DFC0849DA
:1019100082B294316423A1F14000FFF73BFB2846DB
:10192000FEF77CFCE4E70000001002400058004095
:1019300018000020A08601000038014000000020AF
:10194000253032643A253032643A253032640D0A4B
:10195000000000000000000000000000010203047D
:101960000607080900000000010203048C190008A2
:101970000000002018000000F0140008A41900085E
:1019800018000020C004000000150008000000003E
:101990000000000001000000100000000000000036
:0419A0000024F4002B
:04000005080000ED02
:00000001FF
