:020000040800F2
:1000000000500020BD0F00087D0300087F0300089A
:100010008103000883030008850300080000000036
:10002000000000000000000000000000870300083E
:1000300089030008000000008B0300088D030008FE
:10004000051000080510000805100008051000083C
:10005000051000080510000805100008051000082C
:10006000051000080510000805100008051000081C
:10007000051000080510000805100008051000080C
:1000800005100008051000080510000805100008FC
:1000900005100008051000080510000805100008EC
:1000A00005100008051000080510000805100008DC
:1000B00005100008051000080510000805100008CC
:1000C00005100008051000080510000805100008BC
:1000D00005100008051000080510000805100008AC
:1000E00005100008051000080510000800000000B9
:1000F0000000000000000000000000000000000000
:0C01000000000000000000005FF808F1A3
:10010C0010B5054C237833B9044B13B10448AFF345
:10011C0000800123237010BD0C00002000000000A3
:10012C005010000808B5034B1BB103490348AFF34B
:10013C00008008BD000000001000002050100008D6
:10014C0084B00F4B9A6942F020029A619A6902F0CE
:10015C0020020192019A9A6942F008029A619A6906
:10016C0002F008020292029A9A6942F004029A6121
:10017C009B6903F004030393039B04B0704700BF17
:10018C000010024008B50948094B0360094B436055
:10019C0000238360D022C2604FF48042026143612D
:1001AC008361C361036200F081FA08BD280000205E
:1001BC0000580040A086010008B50848084B0360B1
:1001CC004FF4E133436000238360C3600361082272
:1001DC0042618361C36100F0BBFE08BD7C0000205E
:1001EC000038014030B591B00024089409940B9468
:1001FC000C940194029403940494059401220692A5
:10020C004FF4803307930A9202250D950E934FF409
:10021C00E0130F9306A800F039FB0F23019302950E
:10022C0003944FF4806304930594294601A800F0CD
:10023C006DFD11B030BD08B500F0CCF8FFF7D2FF62
:10024C00FFF77EFFFFF79EFFFFF7B6FFFEE700000C
:10025C0082B00E4B9A6942F001029A619A6902F0DF
:10026C0001020092009ADA6942F08052DA61DB698D
:10027C0003F080530193019B054A536823F0E0631C
:10028C0043F08063536002B0704700BF001002401F
:10029C000000014010B586B0002302930393049331
:1002AC0005930268114B9A4201D006B010BD104C58
:1002BC00A36943F00803A361A36903F00803009347
:1002CC00009B4FF440630293122303930323059383
:1002DC0002A9084800F0FEF8E36943F48003E361E7
:1002EC00E36903F480030193019BDEE700580040AF
:1002FC0000100240000C014010B586B000230293A0
:10030C000393049305930268174B9A4201D006B0ED
:10031C0010BD03F558439A6942F480429A619A6978
:10032C0002F480420092009A9A6942F004029A61A7
:10033C009B6903F004030193019B4FF40073029338
:10034C000223039303230593084C02A9204600F0D3
:10035C00C1F84FF48063029300230393049302A922
:10036C00204600F0B7F8D2E7003801400008014001
:10037C007047FEE7FEE7FEE7FEE770477047704701
:10038C0008B500F039F808BD7047000010B50446F8
:10039C000E4B18784FF47A73B3FBF0F30C4A1068D9
:1003AC00B0FBF3F000F080F868B90F2C01D90120F4
:1003BC000AE0002221464FF0FF3000F041F8034BD9
:1003CC005C60002000E0012010BD00BF0400002094
:1003DC000000002008B5074A136843F010031360AF
:1003EC00032000F01BF80020FFF7D0FFFFF730FFD1
:1003FC00002008BD00200240034A1168034B1B7803
:10040C000B441360704700BFBC00002004000020A8
:10041C00014B1868704700BFBC000020074AD36826
:10042C0023F4E0631B041B0C000200F4E06018438F
:10043C0040F0BF6040F40030D060704700ED00E049
:10044C0030B4174BDB68C3F30223C3F10704042C4D
:10045C0028BF04241D1D062D18D9033B4FF0FF3572
:10046C0005FA04F421EA0401994005FA03F322EA9F
:10047C000303194300280BDB0901C9B200F16040EA
:10048C0000F5614080F8001330BC70470023E5E7AD
:10049C0000F00F000901C9B2024B1954F4E700BF78
:1004AC0000ED00E014ED00E00138B0F1807F0AD2DD
:1004BC00064B5860064AF02182F823100020986001
:1004CC0007221A6070470120704700BF10E000E05F
:1004DC0000ED00E0F0B482B000263246A2E0002D20
:1004EC005AD0012D00D1CE68FF2B69D88446FF2B42
:1004FC0069D89500DCF800400F27AF4024EA0704C8
:10050C0006FA05F52C43CCF800404C6814F0805FDB
:10051C0000F087805F4CA56945F00105A561A469D1
:10052C0004F001040194019C9508AF1C5A4C54F83A
:10053C00274002F00307BF004FF00F0C0CFA07FC2A
:10054C0024EA0C0C554CA04243D004F58064A04224
:10055C0000F0818004F58064A0427ED004F58064B4
:10056C00A04234D0042435E04D4FBD4214D00BD9F9
:10057C004C4FBD4210D007F58037BD420CD0A7F5CB
:10058C008017BD42B0D107E0A7F58017BD4203D05C
:10059C0007F58037BD42A7D18D687DB1012D08D0FC
:1005AC0044610826A0E7CE6808369DE7CE680C3675
:1005BC009AE70461082697E7002695E7042693E757
:1005CC0000F1040C93E7A2F10805AD0092E70324B7
:1005DC0000E00024BC4044EA0C0402352E4F47F8DE
:1005EC0025404C6814F4803F39D02F4D2C681C43A7
:1005FC002C604C6814F4003F37D02B4D6C681C43B6
:10060C006C604C6814F4801F35D0274DAC681C43CB
:10061C00AC604C6814F4001F33D0234DEC682343BA
:10062C00EB6001320B6833FA02F430D001249440B1
:10063C0023409C42F5D14D68122DB7D094D8022D91
:10064C00B1D07FF64CAF032DB6D0112D7FF44CAF4B
:10065C00CE68043648E70124BCE70224BAE7124D01
:10066C002C6824EA03042C60C3E70F4D6C6824EA61
:10067C0003046C60C5E70C4DAC6824EA0304AC6061
:10068C00C7E7094DEC6824EA0303EB60C9E702B045
:10069C00F0BC70470010024000000140000801400F
:1006AC00000021100000311000040140002800F06F
:1006BC00C880F8B5044690F83D30002B75D0242343
:1006CC0084F83D302268136823F00103136022681C
:1006DC00136843F4004313602268136823F4004347
:1006EC00136000F0CDFB6268584B9A4262D8584BAD
:1006FC0098428CBF00230123002B40F0A480554B63
:10070C00A3FB00239B0C21684A6822F03F021A438A
:10071C004A6025682A6A22F03F0266684B498E427D
:10072C004ED8013313432B622568E96921F44F41FC
:10073C0021F0FF016368454A93424BD801385B00B6
:10074C00B0FBF3F30133C3F30B03042B38BF0423C7
:10075C000B43EB6121680B6823F0C003E269206A4C
:10076C00024313430B6021688B6823F4034323F08B
:10077C00FF032269E068024313438B602168CB6856
:10078C0023F0FF036269A06902431343CB60226824
:10079C00136843F00103136000202064202384F8C5
:1007AC003D30206384F83E00F8BD80F83C30FFF704
:1007BC0071FD84E7284B98428CBF002301239BE7F3
:1007CC004FF4967101FB03F32449A1FB03139B091E
:1007DC000133A7E7A268BAB9461E03EB4307B6FB81
:1007EC00F7F60136C6F30B06B6FA86F6760936BB73
:1007FC00C2B9013803EB4303B0FBF3F30133C3F38A
:10080C000B0242F40043A3E7461E03EB830707EBFE
:10081C008707B6FBF7F60136C6F30B06B6FA86F673
:10082C007609E4E7013803EB830303EB8303B0FBA6
:10083C00F3F20132C2F30B0242F4404388E7012386
:10084C0086E7012070470120AEE700BFA0860100BB
:10085C007F841E0083DE1B43FF083D00D34D6210D6
:10086C0082B0084B1B68084AA2FB03235B0A00FBFF
:10087C0003F0019000BF019B5A1E0192002BF9D18D
:10088C0002B0704700000020D34D6210002800F029
:10089C00F58170B582B00446036813F0010F2CD0BB
:1008AC00AB4B5B6803F00C03042B1DD0A84B5B68AF
:1008BC0003F00C03082B12D06368B3F5803F41D0D2
:1008CC00002B55D103F1804303F504331A6822F44D
:1008DC0080321A601A6822F480221A6037E09C4B2E
:1008EC005B6813F4803FE7D0994B1B6813F4003F0F
:1008FC0003D06368002B00F0C381236813F0020F50
:10090C0076D0934B5B6813F00C0F5FD0904B5B6809
:10091C0003F00C03082B54D02369002B00F08A80C1
:10092C008C4B01221A60FFF773FD0546884B1B6840
:10093C0013F0020F75D1FFF76BFD401B0228F5D9A0
:10094C000320A0E1824A136843F480331360636888
:10095C0043B3FFF75DFD05467D4B1B6813F4003F69
:10096C00CBD1FFF755FD401B6428F5D903208AE154
:10097C00B3F5A02F09D0764B1A6822F480321A6096
:10098C001A6822F480221A60E1E703F18043A3F590
:10099C003C331A6842F480221A601A6842F480329E
:1009AC001A60D4E7FFF734FD0546694B1B6813F456
:1009BC00003FA2D0FFF72CFD401B6428F5D9032083
:1009CC0061E1634B5B6813F4803FA5D1604B1B68FE
:1009DC0013F0020F04D02369012B01D0012052E146
:1009EC005B4A136823F0F803616943EAC10313609F
:1009FC00236813F0080F32D0A369002B5BD0564B41
:100A0C0001221A60FFF704FD0546514B5B6A13F097
:100A1C00020F21D1FFF7FCFC401B0228F5D9032063
:100A2C0031E14B4A136823F0F803616943EAC103CF
:100A3C001360DDE7474B00221A60FFF7E9FC05461F
:100A4C00434B1B6813F0020FD2D0FFF7E1FC401BA5
:100A5C000228F5D9032016E10120FFF701FF2368D6
:100A6C0013F0040F00F09880394BDB6913F0805FB2
:100A7C0033D1374BDA6942F08052DA61DB6903F02B
:100A8C0080530193019B0125344B1B6813F4807F29
:100A9C0025D0E368012B36D0002B4CD103F18043D9
:100AAC0003F504331A6A22F001021A621A6A22F060
:100ABC0004021A622CE0284B00221A60FFF7A8FCF3
:100ACC000546234B5B6A13F0020FC8D0FFF7A0FC5E
:100ADC00401B0228F5D90320D5E00025D4E71F4A96
:100AEC00136843F480731360FFF792FC06461B4BAC
:100AFC001B6813F4807FCCD1FFF78AFC801B642821
:100B0C00F5D90320BFE0124A136A43F001031362C4
:100B1C00E3687BB3FFF77CFC06460D4B1B6A13F0B6
:100B2C00020F38D1FFF774FC801B41F288339842D6
:100B3C00F3D90320A7E0052B12D0054B1A6A22F03B
:100B4C0001021A621A6A22F004021A62E0E700BF7C
:100B5C0000100240000042428004424200700040FB
:100B6C004C4B1A6A42F004021A621A6A42F00102F1
:100B7C001A62CDE7FFF74CFC0646464B1B6A13F096
:100B8C00020F08D0FFF744FC801B41F288339842D7
:100B9C00F3D9032077E0E5B9E369002B72D03D4A25
:100BAC00526802F00C02082A56D0022B17D03A4B8E
:100BBC0000221A60FFF72CFC0446364B1B6813F01E
:100BCC00007F47D0FFF724FC001B0228F5D9032037
:100BDC0059E0304AD36923F08053D361DCE72E4BC4
:100BEC0000221A60FFF714FC05462A4B1B6813F011
:100BFC00007F06D0FFF70CFC401B0228F5D9032020
:100C0C0041E0236AB3F5803F1AD022494B6823F4A4
:100C1C007413226A606A024313434B601E4B012219
:100C2C001A60FFF7F5FB04461A4B1B6813F0007FA4
:100C3C000ED1FFF7EDFB001B0228F5D9032022E0B3
:100C4C00144A536823F40033A1680B435360DCE768
:100C5C00002018E0002016E0012B16D00D4B5B682D
:100C6C0003F48031226A914201D001200BE003F49D
:100C7C007013626A93420AD0012004E0012070478D
:100C8C00012000E0002002B070BD0120FBE7002035
:100C9C00F9E700BF001002406000424210B487B078
:100CAC00164C94E80F000DF1180C0CE90F00238A78
:100CBC00ADF80430124B5B6803F00C02082A1AD111
:100CCC00C3F38342624412F8102C13F4803F05D115
:100CDC000C4800FB02F007B010BC7047084B5B6877
:100CEC00C3F34043634413F8143C074800FB02F081
:100CFC00B0FBF3F0EFE70448EDE700BF801000080D
:100D0C000010024000093D0000127A00002800F09B
:100D1C00A38070B50446524B1B6803F007038B424B
:100D2C000CD24F4A136823F007030B43136013686C
:100D3C0003F007038B4201D0012070BD236813F030
:100D4C00020F17D013F0040F04D0464A536843F433
:100D5C00E0635360236813F0080F04D0414A5368D2
:100D6C0043F4605353603F4A536823F0F003A06888
:100D7C00034353600D46236813F0010F31D06368B1
:100D8C00012B20D0022B25D0364A126812F0020F0C
:100D9C0064D034494A6822F0030213434B60FFF7D6
:100DAC0037FB06462F4B5B6803F00C036268B3EB12
:100DBC00820F16D0FFF72CFB801B41F28833984230
:100DCC00F0D90320B9E7274A126812F4003FE0D1AA
:100DDC000120B2E7234A126812F0007FD9D101201A
:100DEC00ABE71F4B1B6803F00703AB420CD91C4A43
:100DFC00136823F007032B431360136803F00703F6
:100E0C00AB4201D0012098E7236813F0040F06D001
:100E1C00144A536823F4E063E1680B43536023687E
:100E2C0013F0080F07D00F4A536823F4605321695D
:100E3C0043EAC1035360FFF731FF0A4B5B68C3F30E
:100E4C000313094AD35CD840084B1860084B186848
:100E5C00FFF79CFA002070E70120704701206CE737
:100E6C000020024000100240681000080000002022
:100E7C0008000020014B1868704700BF00000020DC
:100E8C0008B5FFF7F7FF044B5B68C3F30223034A73
:100E9C00D35CD84008BD00BF001002407810000899
:100EAC0008B5FFF7E7FF044B5B68C3F3C223034AA3
:100EBC00D35CD84008BD00BF001002407810000879
:100ECC0038B504460268136923F44053C1680B43D8
:100EDC00136183680269134342691A430168CB6842
:100EEC0023F4B05323F00C031343CB600268536913
:100EFC0023F4407381690B4353610268124B9A428D
:100F0C001FD0FFF7BDFF00EB800000EB8000636893
:100F1C009B00B0FBF3F00D4DA5FB00325109642290
:100F2C0002FB110213013233A5FB03235B0903F00F
:100F3C00F00202EB011203F00F03216813448B60E3
:100F4C0038BDFFF7ADFFDEE7003801401F85EB51E0
:100F5C0058B310B5044690F839300BB3242384F8F9
:100F6C0039302268D36823F40053D3602046FFF74E
:100F7C00A7FF2268136923F4904313612268536915
:100F8C0023F02A0353612268D36843F40053D360DF
:100F9C000020E063202384F8393084F83A3010BD07
:100FAC0080F83830FFF7A8F9D8E701207047000027
:100FBC00002103E00B4B5B58435004310A480B4BA8
:100FCC0042189A42F6D30A4A02E0002342F8043B44
:100FDC00084B9A42F9D3FFF7D7F900F00FF8FFF757
:100FEC002AF970479C100008000000200C0000201B
:100FFC000C000020C0000020FEE7000070B50025AA
:10100C000C4E0D4CA41BA410A54209D100F01AF8EB
:10101C0000250A4E0A4CA41BA410A54205D170BD94
:10102C0056F8253098470135EEE756F825309847A5
:10103C000135F2E794100008941000089410000891
:10104C0098100008F8B500BFF8BC08BC9E46704765
:0C105C00F8B500BFF8BC08BC9E46704709
:101068000000000000000000010203040607080950
:101078000000000001020304020304050607080932
:0C1088000A0B0C0D0E0F101001020000EE
:04109400310100081E
:041098000D0100083E
:0C109C000024F40001000000100000001F
:0400000508000FBD23
:00000001FF
