:020000040800F2
:1000000000500020890B0008410C0008450C000836
:10001000490C00084D0C0008510C000800000000BD
:10002000000000000000000000000000550C000867
:10003000590C0008000000005D0C0008610C00086D
:10004000E30B0008E50B0008E70B0008E90B0008CC
:10005000EB0B0008ED0B0008EF0B0008F10B00089C
:10006000F30B0008F50B0008F70B0008D108000897
:10007000FB0B0008FD0B0008FF0B0008010C00083B
:10008000030C0008050C0008070C0008090C000808
:10009000650C00080D0C00080F0C0008110C00087E
:1000A000130C0008150C0008170C0008190C0008A8
:1000B0001B0C00081D0C00081F0C0008210C000878
:1000C000230C0008250C0008270C0008290C000848
:1000D0002B0C00082D0C00082F0C0008310C000818
:1000E000330C0008350C0008370C000810B5054C1F
:1000F000237833B9044B13B10448AFF300800123D4
:10010000237010BD4C01002000000000B820000842
:10011000084B10B51BB108490848AFF300800848E8
:10012000036803B910BD074B002BFBD0BDE810409E
:10013000184700BF0000000050010020B820000850
:100140004C01002000000000154B002B08BF134B92
:100150009D46A3F5803A00218B460F461348144A6A
:10016000121A01F027FF0F4B002B00D098470E4BBF
:10017000002B00D098470020002104000D000D48FE
:10018000002802D00C48AFF3008001F0EDFE200003
:10019000290000F04BFC01F0D3FE00BF0000080076
:1001A0000050002000000000000000004C01002072
:1001B0002E4A0020000000000000000040F0BF6058
:1001C000024B40F40030D860704700BF00ED00E003
:1001D000C3785BB9037801215A09164803F01F035D
:1001E000203201FA03F340F82230704730B4124B4A
:1001F0008278D9684478C9430F23C1F30221C1F141
:100200000405CB40AC401340027823431B0102F1AC
:100210006042DBB202F5614282F8003303780122CA
:1002200003F01F0003495B09824041F8232030BCE2
:10023000704700BF00E100E000ED00E042680B689D
:1002400022F4702230B422F480720C79134343EA12
:10025000042343608568CC688A68094B22432B409D
:100260004C79134343EA440383600A7CC36A013A2E
:10027000D2B223F4700343EA0253C36230BC704726
:10028000FDF7F1FF836819B923F00103836070471C
:1002900043F0010383607047836819B923F48073C6
:1002A0008360704743F4807383607047836843F0D2
:1002B00008038360704700BF8068C0F3C0007047C8
:1002C000836843F004038360704700BF8068C0F315
:1002D00080007047836819B923F4A00383607047D6
:1002E00043F4A00383607047092970B41DD9A1F1BC
:1002F0000A0606EB4606C5680724B440B34025EA63
:1003000004042343062AC3601BD90C2A27D90D3ABB
:1003100002EB8202C36A1F24944001FA02F223EA2C
:1003200004010A43C26270BC704701EB41060569D3
:100330000724B440B34025EA04042343062A03619A
:10034000E3D8013A02EB8202436B1F24944001FA86
:1003500002F223EA04010A43426370BC7047073A81
:1003600002EB8202036B1F24944001FA02F223EA9B
:1003700004010A43026370BC704700BF836819B967
:1003800023F480138360704743F4801383607047C5
:100390004FF6FE7203683A491A4088424FF0000354
:1003A0000260036043608360C36027D0354B98428E
:1003B0002AD0354B98422DD0344B984230D0344B14
:1003C000984239D0334B98423CD0334B98420FD0AF
:1003D000324B98423CD0324B98423FD0314B9842FE
:1003E00042D0314B984245D0304B98421ED0704796
:1003F0002F4A536843F07063536070472C4A536828
:1004000043F00F0353607047294A536843F0F003E9
:1004100053607047264A536843F4706353607047D3
:10042000234A536843F4704353607047214A53682A
:1004300043F470235360DAE71D4A536843F4702392
:10044000536070471A4A536843F47003536070470F
:10045000184A536843F00F0353607047154A5368B6
:1004600043F0F00353607047124A536843F47063DB
:10047000536070470F4A536843F4704353607047AA
:10048000080002401C0002403000024044000240CC
:10049000580002406C000240800002400804024004
:1004A0001C0402403004024044040240580402404C
:1004B00000000240000402400A6A30B48D680B69F3
:1004C0002A434D6913438A691D43CB6945EA0204F7
:1004D0004D6A026823438C6A1D4322F4FF432C4378
:1004E00023F0700323430360CB6830BC43600B6888
:1004F00083604B68C360704729B94FF6FE7302688A
:10050000134003607047036843F0010303607047C2
:1005100003681AB923EA01010160704719430160B9
:10052000704700BFC3004CBF034B044B1B68034222
:1005300014BF012000207047000402400000024068
:10054000FFF7F0BFC3004CBF014B024B5860704730
:100550000004024000000240FFF7F4BFCB782DE911
:10056000F04103F00F06DB0648BF8B780C8848BFCC
:100570001E4314F0FF0F26D00568002301274FF01B
:100580000F0803E00133082B1BD00C8807FA03F295
:1005900032EA0404F6D19C0091F803E008FA04FC66
:1005A00025EA0C0506FA04F4BEF1280F45EA040515
:1005B00038D0BEF1480F03F1010308BF0261082BD8
:1005C000E3D105600C88FF2C2AD945680023012758
:1005D0004FF00F0C03E00133082B20D00C8803F1FF
:1005E000080207FA02F232EA0404F4D191F803E0B7
:1005F0009C00BEF1280F04BF426191F803E00CFAA1
:1006000004F8BEF1480F03F1010325EA080506FAD4
:1006100004F408BF0261082B45EA0405DED14560F9
:10062000BDE8F0814261ADE7014B1860704700BF43
:10063000D8004242034A536823F4404318435060B1
:10064000704700BF0010024029B9054A536923EAE8
:10065000000050617047024B5A691043586170475F
:100660000010024029B9054A936923EA000090610D
:100670007047024B9A69104398617047001002401E
:1006800029B9054AD36923EA0000D0617047024BBB
:10069000DA691043D86170470010024000B583B09A
:1006A00000F042F900230093009B0D4A934205DCC1
:1006B000009B01330093009B9342F9DD00F03CF96D
:1006C00000230193019B064A934205DC019B013301
:1006D0000193019B9342F9DD03B05DF804FB00BF79
:1006E000FFFF04000378052B01D0002070474078FD
:1006F000A0F10800B0FA80F040097047B2B10023C1
:1007000070B41E46541EE4B201346400020F092A7C
:1007100002F1300586BF3732CA54CD54CA180233AD
:10072000A3424FEA00105670F0D170BC704700BF72
:10073000F0B54FF4004093B0FFF77CFF012108466D
:10074000FFF782FF01214FF4C3600124FFF78AFF06
:1007500003251026694656484FF400578DF803606C
:10076000ADF800408DF80250FFF7F8FE6946514899
:100770008DF80360ADF8007000268DF80250FFF789
:10078000EDFE69464C48ADF800508DF80360FFF768
:10079000E5FE4A48FFF7FCFD494A4A494FF0800E02
:1007A0004FF40073109707924FF4006720220891CE
:1007B000424807A9CDF830E00A930D930F920996AD
:1007C0000B9611960E97FFF777FE21463B48FFF7F1
:1007D00093FE224602213948FFF79AFE2246042161
:1007E0003648FFF795FE4FF4C0224FF4602302A96C
:1007F00035480292049305978DF80C408DF80D4012
:100800008DF81840FFF71AFD02A93048FFF716FDD2
:100810002B46224631462C48FFF766FD2B462246E2
:1008200021462A48FFF760FD21462848FFF7A6FD2C
:1008300021462548FFF730FD21462348FFF722FDDA
:1008400022482146FFF71EFD1F48FFF72FFD1E48D7
:10085000FFF732FD0028FAD11B48FFF731FD1A4897
:10086000FFF734FD0028FAD11848FFF71FFD17489D
:10087000FFF722FD0028FAD11448FFF721FD1348A5
:10088000FFF724FD03460028F9D10B22012401A81B
:100890008DF805308DF806308DF804208DF807406E
:1008A000FFF796FC21460848FFF714FD13B0F0BD92
:1008B000000C014000100140000801400800024007
:1008C0004C2401408C0100200024014000280140FC
:1008D00008B50220FFF734FEB0B90420FFF730FE60
:1008E00040B90E48A82100F04BF9BDE808400120AE
:1008F000FFF732BE0A484FF4007100F03BF9BDE843
:1009000008400120FFF728BE06484FF4007100F0B0
:1009100031F9BDE808400120FFF71EBEE01F0008C6
:100920008C0100208C050020024AD36843F00103AB
:10093000D3607047000C0140024AD36823F00103E2
:10094000D3607047000C0140024AD36823F400537F
:10095000D360704700100140024AD36843F400534B
:10096000D36070470010014008B50020FFF75CFE1F
:10097000BDE8084001214FF40000FFF781BE00BF31
:1009800000B54FF4C06083B0FFF718FC01231421B9
:10099000002201A88DF804108DF805308DF807307D
:1009A0008DF80620FFF714FC03B05DF804FB00BFD0
:1009B000704700BF002913DDF0B50A4D0A4FAE465F
:1009C000014400262A6810F8014B531CB3F5804FF0
:1009D00008BF33468842BC54CEF80030F2D1F0BD97
:1009E000704700BF680100208C09002010B50A4B39
:1009F0000A490B4A1B680C681068181800D110BD12
:100A000008220849FFF77AFE2046BDE8104004227C
:100A10000549FFF773BE00BFE8F7FF1FECF7FF1FA4
:100A2000F0F7FF1F02000020120000202DE9F84F10
:100A30003F4E404C4FF0000AFFF77AFED046FFF7DA
:100A40002DFE3D4FFFF72AFE3C4DFFF78DFFA146DF
:100A5000FFF796FF01F016F8C6F800A0C6F804A04C
:100A6000FFF77AFFDFF8E0A003E03368304A9845EB
:100A700037D12368002B51DD013BC9F80030FFF767
:100A800053FFFFF761FF3B78012BEED12A4A002389
:100A90001370FFF751FF2368182103F5EA43303341
:100AA00027482360FFF786FF4FF0B90B1621254832
:100AB000FFF780FFBBF1010BF8D12B6822495A1CCC
:100AC000B2F5804F0AF803B02DD00233B3F5804F52
:100AD00008BF002301F802B02B603368144A984520
:100AE000C7D05168002915DD1A4603EB410C4FF0C1
:100AF000000828680232411CB1F5804F296008BF08
:100B00000E4912F801EC08BFC1F8008094450AF8BC
:100B100000E0EED198462368002BADDCFFF70CFF18
:100B2000FFF71AFFAFE781F800B00123D4E700BF59
:100B3000A8490020780100207401002068010020ED
:100B4000F01F0008082000088C09002002290BD99A
:100B500008B5837803B108BD044AFFF7C3FD002838
:100B6000F9D0034B187008BD704700BF9C490020A6
:100B700074010020014B83E803007047A84900205E
:100B800008B5FFF7D1FEFEE70649074A074B9A4230
:100B9000BEBF51F8040B42F8040BF8E70448804745
:100BA00004480047C4200008000000204C01002039
:100BB000690C0008490100081F49204A002301E090
:100BC00041F8043B9142FBD3FFF730FFFEE7FEE71D
:100BD000FEE7FEE7FEE7FEE7FEE7FEE7FEE7FEE7ED
:100BE000FEE7FEE7FEE7FEE7FEE7FEE7FEE7FEE7DD
:100BF000FEE7FEE7FEE7FEE7FEE7FEE7FEE7FEE7CD
:100C0000FEE7FEE7FEE7FEE7FEE7FEE7FEE7FEE7BC
:100C1000FEE7FEE7FEE7FEE7FEE7FEE7FEE7FEE7AC
:100C2000FEE7FEE7FEE7FEE7FEE7FEE7FEE7FEE79C
:100C3000FEE7FEE7FEE7FEE74C0100202E4A00201B
:100C4000704700BFFEE700BFFEE700BFFEE700BF42
:100C5000FEE700BF704700BF704700BF704700BF8E
:100C6000704700BF00F014B930B43C4B3C491868E1
:100C700082B040F0010018605D6800202940596092
:100C800019684FF41F0421F0847121F48031196038
:100C900019681A4621F480211960596821F4FE016F
:100CA00059609C6000900190196841F4803119608E
:100CB00003E0009BB3F5A06F09D0136803F4003381
:100CC0000193009B01330093019B002BF1D0234B38
:100CD0001B6813F4003318BF01230193019B012B00
:100CE00006D0204B4FF000629A6002B030BC7047D3
:100CF0001D4A1A4B1068194640F010001060106829
:100D000020F003001060106840F0020010605A6884
:100D10005A605A685A605A6842F480625A605A6847
:100D200022F47C125A605A6842F4E8125A601A6837
:100D300042F080721A600B68084A9B01FBD511468D
:100D4000536823F003035360536843F00203536076
:100D50004B6803F00C03082BFAD1C2E700100240E5
:100D60000000FFF800ED00E00020024010B5074C45
:100D70000320214601F0D2F8C1B22046FFF7E6FE7B
:100D8000BDE81040032000F0E1BF00BFB0490020E3
:100D9000134B1A78012A00D0704770B5114C2268A5
:100DA000E2B1114D11492868A2F14003B0F5804F1E
:100DB00015BF00F14006002080B2402608444022C2
:100DC000C02123602E6000F03FFF0120402101F090
:100DD00007F8BDE87040012000F0A4BF1A7070BD94
:100DE0007C010020700100206C0100208C09002093
:100DF000F8B5214B1B68052B00D0F8BD1F4C23789C
:100E0000012BFAD01E4D1F4A2B68B3F5804F25D019
:100E10001268934226D02BD902F580421A49D21A81
:100E20000A60B2F5005F20D2B2F5805FE5D34FF4DF
:100E30007C6716489AB20126403310440F60402266
:100E4000C0212B60267000F0FFFE3046402100F0EC
:100E5000C7FF3046BDE8F84000F064BF12680023C9
:100E60002B602AB900232370F8BD4FF4FE57E0E74A
:100E70000549D21A0A60D4E7800100207C010020D5
:100E80006C01002068010020700100208C09002006
:100E900070B51749174C0B68174D9BB223802288F9
:100EA0002B881A40920517D4228802F4004213427C
:100EB0000ED1228802F48062134200D170BD4FF639
:100EC000FF310B4A0D4B11605B68BDE8704018475D
:100ED00000F0F4FD2B88ECE74FF6FF53084A0B6057
:100EE00013780133DBB21370FFF782FF2B88DBE747
:100EF000445C0040F0490020284A00205C000020AB
:100F00007D010020034B9B7A13B1034B05221A602D
:100F1000704700BF044A002080010020014B0422DA
:100F20001A60704780010020034B1A78202A04BF02
:100F300000221A70704700BF7E010020704700BF7A
:100F4000212810B504D02028034610D0022010BD5F
:100F50000E4B1A68137803F07F03212BF6D10C494E
:100F600000249161548220468847204610BD074ADC
:100F70001268117801F07F01212903D0054A02206F
:100F8000137010BD034804490370E9E7244A0020A8
:100F9000E90F00087E010020D10F0008074B1B68F5
:100FA0001B7803F07F03212B01D00220704700F053
:100FB000DF00022814BF022000207047244A0020CE
:100FC00009B10220704701288CBF02200020704721
:100FD00008B103487047034B08221B681A82704708
:100FE000D8000020244A0020FFF7F2BF10B5FFF719
:100FF000FDFC054B00241B689C7200F095F800F086
:101000007BFF024B1C6010BD244A002080010020A1
:1010100010B5334B334A1B68D27900245A729C7244
:10102000DC72204600F034FE20464FF4007100F0E0
:1010300037FE2046102100F041FE2046402100F0FE
:1010400021FF8021204600F00BFF204600F0A2FE89
:10105000254B204693F82C1000F0D0FE204600F0DF
:1010600075FE2146012000F01BFEC021012000F08A
:10107000F7FE2021012000F021FE2146012000F092
:1010800037FE4FF4C061022000F00AFE4FF4807179
:10109000022000F0E5FE2146022000F029FE20217A
:1010A000022000F00BFE2146032000F0F9FD4FF472
:1010B0008871032000F0E6FE4021032000F09EFE30
:1010C0004FF44051032000F013FE2146032000F0AE
:1010D000F5FD204600F0B4FC044B01221A6010BD5F
:1010E000244A00206C2000085C00002080010020C1
:1010F000014900F0F5B900BFB0000020014900F03F
:10110000EFB900BF54000020054B1B68DB78042BAF
:1011100004D8044901EBC30100F0E2B90020704794
:10112000244A0020B800002038B50120FFF740FC19
:10113000064D074B074C00224FF4E0510120186088
:101140001A602A6021801960104638BD445C004056
:10115000405C0040284A002008B538B1064B1B68A7
:101160001B689847054B18680A3008BD034B0122DD
:101170001B681A8208BD00BF204A0020244A0020B4
:1011800008B538B1064B1B689B689847054B186833
:101190000C3008BD034B01221B681A8208BD00BF3A
:1011A000204A0020244A002008B51F4B002832D0D6
:1011B0001E481A6800210180137813F07F0316D0AF
:1011C000012B27D0022B24D1527902F00F039B0070
:1011D00003F1804303F5B84312061B681FD403F4E0
:1011E0004053B3F5805F0ED1012303700BE0527AB8
:1011F000930654BF0378022351064CBF43F001030A
:1012000023F0010303700A4B1B681B6998470748CA
:1012100008BD084608BD1B6802221A8208BD03F0FB
:101220003003102BEFD1DFE7244A0020F4490020DF
:10123000204A00202DE9F041244F3C68258A2DB931
:10124000267A042E2AD0A38A042603E0A38A9D428C
:10125000FAD902269D4228BF1D46A3692846984711
:101260008046002000F01EFE2A460146404600F05F
:10127000EBFC2946002000F0B3FD638A228A144962
:10128000521B1D44134B2282658230204FF4405282
:101290003C6808801A802672BDE8F0810E4B1A78EF
:1012A000012A06D00A4B102207261A802672BDE8B2
:1012B000F0810A490A4A0968054889B20A4452007D
:1012C000156030223C681D700280E4E7244A00204B
:1012D0002C4A00202A4A002084010020505C004053
:1012E000023000200B4B0C4A1B685178DA7891428F
:1012F00001D20220704799780029FAD110B59C8854
:101300000CB1022010BD05499A720B685B689847C2
:10131000204610BD244A0020E0000020204A002082
:1013200038B5104A104C12682368D97858799369F7
:10133000984723689A7A0AB9022038BD0028FBD161
:101340001A79002AF8D19D78002DF5D1074B1B683A
:10135000DB689847236828465979DA78D9721A7376
:1013600038BD00BFFC490020244A0020204A00204C
:1013700038B5314B1B68187810F07F0003D0022875
:1013800006D0022038BD5A7A22F020025A7238BDA7
:101390005A88002AF6D11A79002AF3D15A7922F014
:1013A00080008400150604F18041244D01F5B84108
:1013B00009682D784CBF01F0300101F44051A8427A
:1013C000DFD20029DDD09B7A002BDAD004F18044F3
:1013D00004F5B8441206236809D503F03003102B36
:1013E0001ED0174B1B685B699847002038BD03F47B
:1013F0004053B3F5805FF4D1D8B9124B93F82C1059
:1014000000F0FCFC236823F4804323F070039BB2BC
:1014100083F4405343F4004343F080032360E0E748
:10142000C4B2204600F0CAFC2046302100F046FC41
:10143000D7E700F0B1FCE5E7244A0020E0000020F7
:10144000204A00205C00002038B5224B1868427901
:1014500022F080018C00150604F180431E4D03F537
:10146000B8431B682D784CBF03F0300303F440539E
:10147000A94201D3022038BD41880029FAD1002BAE
:10148000F8D0837A002BF5D004F1804404F5B844F9
:101490001206236811D523F4E04323F040039BB2E6
:1014A00083F0100343F4004343F0800323600B4BAD
:1014B0001B689B699847002038BD23F4804323F0C4
:1014C00070039BB283F4805343F4004343F08003E2
:1014D0002360ECE7244A0020E0000020204A00209E
:1014E000054B1B685A8A10B10868104470478988F8
:1014F0008A1A1A82704700BF244A002010B50C4B8C
:10150000002093F82C1000F079FC0A4B1B68187A25
:10151000082806D10849094B4FF4805410220C804A
:101520001A80A0F10900B0FA80F0400910BD00BF98
:101530005C000020244A00202A4A00202C4A002077
:1015400070B5A24DA24A2B6811681A7A82B0092A96
:101550003ED0A04A89B20A4452001488640004F1C3
:10156000804404F5C04422781A702B6862785A705F
:10157000A0882E6800F0BAFC708020892E6800F0E8
:10158000B5FCB080A2892B680121DA80197222B3E0
:101590005878062800F0848000283AD1598800291C
:1015A00000F098808C4C23681B699847032800F052
:1015B000EA804FF6FF722C68238A934200F0848001
:1015C000022836D108232372FFF798FF02B070BDBE
:1015D000DA8801211972002ADAD11A785C7812F0BF
:1015E0007F0236D0012A00F0BF80022A00F0E1809D
:1015F000794B20461B685B699847032800F0C3803D
:1016000000283ED02B6808221A72FFF777FF02B03D
:1016100070BD082870D11A785206C3D16F4A0020D5
:101620009A61588290474FF6FF722C68238A934242
:101630004AD0002BC6D094F90020002A7FDB684AEC
:101640004FF44051032311802372FFF757FF02B07C
:1016500070BD092C00F0E180052C00F09B80032C6C
:1016600000F0CA80012CC3D1DA78012AC0D19A884F
:10167000002ABDD15B7A9B06BAD5FFF779FE002818
:10168000B6D1534A574B1268002192B213445B0003
:101690001960554A30212B68118006221A72B4E76E
:1016A0001A7856067FF47EAF9A784B4C012A00F0E8
:1016B000BA80022A6BD0032A7FF475AF2268526A7F
:1016C000002AACD106206EE709232372FFF716FF2C
:1016D00002B070BD5A6822F47F42B2F5003F7FF439
:1016E00061AF187810F07F0040F0A0809A88002A3F
:1016F0007FF458AF3D4A92E70A287FF453AF1A7837
:1017000002F07F02012A7FF44DAF9A7A002A3FF45B
:1017100049AF598800297FF445AF5A682E4C22F40E
:101720007F42B2F5803F7FF43EAF226858799369DB
:1017300098472B68002840F0B6802D4A6FE7E28872
:10174000019201998B4217D8934276D2224A1268AD
:1017500092F82C108AB2934274D2264B0021197051
:10176000A282FFF767FD70E70B2C7FF441AFFFF714
:10177000D7FD002885D03BE7174B019A1B682282D2
:1017800093F82C20ECE72B6809221A723DE72268B7
:10179000126A95E793F90320002A07DB9A782AB9A1
:1017A0009A881AB99A7A002A3FF46BAF08221A7203
:1017B0002BE7012C3FF461AF032C7FF419AFFFF747
:1017C00043FE00283FF45DAF12E700BF244A00202B
:1017D000505C004004300020FC49002059110008F2
:1017E0002A4A0020023000202C4A0020A9110008BB
:1017F0008111000884010020DA78012A7FF4F8AE14
:101800009A88002A7FF4F4AE5A7A284942F02002DE
:1018100009685A72CB69984733E7FFF763FD0028E0
:101820003FF42FAFE4E62268D26949E701282FD0C0
:10183000022811D008461E4CB5E61D4B1B6893F8D4
:101840002C208DE793FBF1F001FB1033002B87D1A7
:10185000184B0121197083E7587900F00F018A00B5
:10186000040602F18042144C02F5B8421268247852
:101870004CBF02F0300202F44052A14206D210F0F6
:10188000700003D1002A7FF435AF8BE6002089E693
:10189000074C58792268936998472B6818B99A7A47
:1018A000002A7FF427AF58787DE600BF204A002049
:1018B000FC49002084010020E0000020F8B5304DF4
:1018C0002C68237A022B07D0042B05D0032B09D0D8
:1018D000052B07D0072B33D008232372BDE8F8402F
:1018E000FFF70CBEA369228AB3B1B2B1A68A9642B1
:1018F00028BF164630469847228A638A921B334493
:10190000074622826382002000F0DCFA324601465C
:10191000384600F0ADF9228ACAB9A38A33B319490F
:101920002A68194B062010721A68184B92B2134499
:101930005B0000221A602C683022237A0A80CCE7F0
:10194000134B1B68DB6898472C680823C5E7114BCD
:1019500000214FF4405208461A8000F041FA238AD1
:10196000A28A084930209A42088003D82C680323B1
:101970002372B2E7002BD3D02C6805232372ACE787
:10198000244A00202C4A0020505C004002300020F5
:10199000FC4900202A4A0020F8B5234C23681A7A13
:1019A000022A17D0042A15D0062A05D008221A7256
:1019B000BDE8F840FFF7A2BD5A78052A13D01B4BAB
:1019C0001B689B689847236808221A72BDE8F84094
:1019D000FFF794BDFFF72EFC23681A7A1A72BDE850
:1019E000F840FFF78BBD1A7812F07F02E7D110495B
:1019F000DF780E7876B10F4840F60F73056842F431
:101A000000412B4041F0800101320B43964240F8E7
:101A1000043BF1D1084A47F08007084B17601B6868
:101A20001B6A9847CBE700BF244A0020FC490020EE
:101A3000E0000020005C00404C5C0040204A002098
:101A400070B40C4B1E787EB10B4C002240F60F7325
:101A5000256842F400412B4041F0800101320B43E4
:101A6000964244F8043BF1D1044B40F080001860EA
:101A700070BC7047E0000020005C00404C5C0040FF
:101A8000704700BF70B4074A07490848084E094C20
:101A9000094B022515720860236032601B6870BC18
:101AA000184700BF044A0020204A00208C00002074
:101AB000244A0020FC4900205C0000202DE9F04F62
:101AC000DFF878A1DFF878915746C84685B0002343
:101AD000DFF870B1544DADF80E30DBF80030534CE8
:101AE00099B21B04524E504AAAF8001040F190805F
:101AF0003B8803F00F03990001F1804101F5B841E3
:101B000089F80030002B2FD14BF6BF73216889B2C2
:101B10002980298801F030013180298801F4405161
:101B2000298021680B4083F4005383F0200343F4A1
:101B3000004343F0800323603B88D90641D52368E6
:101B40009BB2ADF80E30BDF80E301B0563D4BDF866
:101B50000E301804C1D540F68F73019221680B40F6
:101B60002360FFF7ABFE34E00B689BB2ADF80E309C
:101B7000BDF80E30180417D4BDF80E301A06ACD5D7
:101B800048F60F7299F800302A499B0003F1804310
:101B900003F5B843186802401A6099F80030013B19
:101BA00051F82330984798E740F68F730868224A27
:101BB00003400B6098F80030013B52F823309847FF
:101BC000DAE748F60F73019221680B402360FFF7B4
:101BD000E3FE4BF6BF73019A206811881288034018
:101BE000C90448BF83F480539704328848BF83F404
:101BF0000053D506328848BF83F01003940648BFCF
:101C000083F0200343F40043084A43F08003136049
:101C100005B0BDE8F08F40F68F73019221680B404C
:101C20002360FFF78DFCD4E72A4A0020005C0040C7
:101C30002C4A00201C00002038000020F049002021
:101C4000004A0020445C0040013252100ED010B413
:101C500001F1005101F540514900002330F8024BD9
:101C600021F8234001339A42F8D110BC704700BFDD
:101C700001F10051013201F5405152104FEA41018A
:101C800005D051F8043B013A20F8023BF9D17047E6
:101C90004FF6F873014A034013607047505C0040F0
:101CA000800000F1804000F5B840036823F4EC4365
:101CB00023F07003194389B201607047800000F17E
:101CC000804000F5B8400368CA0623F4E04323F0DF
:101CD00040039BB248BF83F010038A0648BF83F0DD
:101CE000200343F4004343F080030360704700BFC8
:101CF000800000F1804000F5B8400368CA0423F476
:101D0000804323F070039BB248BF83F480538A045E
:101D100048BF83F4005343F4004343F0800303605F
:101D2000704700BF800000F1804000F5B8400368B4
:101D300023F4E04323F040039BB283F0300343F4E9
:101D4000004343F080030360704700BF800000F150
:101D5000804000F5B840036823F4804323F070030B
:101D60009BB283F4405343F4004343F08003036089
:101D7000704700BF40F60F62800000F1804000F520
:101D8000B8400368134043F4004343F0800303600A
:101D9000704700BFFFF7EEBF800000F1804000F504
:101DA000B84003685B0408D540F60F73026813401F
:101DB00043F4404343F0800303607047800000F128
:101DC000804000F5B84003685B0608D540F60F7305
:101DD0000268134043F4004343F0C00303607047BC
:101DE000044A054B126892B202EBC00003445B0048
:101DF00019607047505C0040023000200E4A0F4BC3
:101E000012683E2992B202EBC00003444FEA43033A
:101E10000AD94A09C80604BF02F1FF3292B29202FF
:101E200042F400421A6070474A08C90748BF0132AD
:101E300092021A60704700BF505C004006300020DC
:101E4000064B49081B6849009BB203EBC00000F138
:101E5000005000F54050400001607047505C004069
:101E6000FFF7EEBF054A064B1268490892B202EB33
:101E7000C000034449005B0019607047505C00409B
:101E800004300020FFF7EEBF054B1B689BB203EB4D
:101E9000C00000F1005000F540504000008870473D
:101EA000505C0040FFF7F0BF044A054B126892B245
:101EB00002EBC00003445B0018887047505C004090
:101EC00004300020FFF7F0BF054A064B126892B2BB
:101ED00002EBC00003445B001868C0F309007047C0
:101EE000505C004006300020FFF7EEBFC3B2000A8E
:101EF00040EA0320704700BF10B40549054C064A6C
:101F000000204FF4064320600B80136010BC704724
:101F1000284A0020445C0040405C004070B500F05E
:101F20007F0528460E46FFF7DFFF04462846FFF7E9
:101F3000C9FF224601463046FFF79AFE204670BD93
:101F400008B5074B044613B10021AFF30080054BE1
:101F50001868836A03B19847204600F033F800BF41
:101F600000000000B42000080E4B70B51E460E4C59
:101F70000025E41AA410A54204D056F8253098474D
:101F80000135F8E700F020F8084B094C1E46E41A2A
:101F9000A4100025A54204D056F8253098470135F5
:101FA000F8E770BD440100204401002044010020F6
:101FB0004801002003460244934202D003F8011B6B
:101FC000FAE77047FEE70000F8B500BFF8BC08BCB0
:101FD0009E467047F8B500BFF8BC08BC9E467047E7
:101FE0007372635C68775F636F6E6669672E630008
:101FF00000FF00FF00FF00FF00FF00FF00FF00FFE9
:1020000000FF00FF00FF00FF6D696E6973636F7072
:10201000655F76326320323031393038313100003B
:10202000160374006F006D0065006B006F002000E8
:102030006E00650074000000120100020200004002
:10204000501D4F6000020102030100000403090457
:102050001C036D0069006E006900730063006F006F
:102060007000650020007600320063000902430022
:10207000020100C03209040000010202010005242F
:1020800000100105240100010424020205240600B9
:1020900001070582030800FF09040100020A00008D
:1020A00000070503024000000705810240000043CD
:0C20B00000000000E40000200000000020
:0820BC008CE0FF7F0100000031
:1020C4001A03530054004D00330032003100300035
:1020D400000000000000000000000000910D000856
:1020E400811A0008811A0008811A0008811A000860
:1020F400811A0008811A0008811A0008811A000850
:102104006D0D0008811A0008811A0008811A000860
:10211400811A00086C20000843000000ED0F00083D
:1021240011100008290F00083D0F0008410F000896
:102134009D0F0008C10F0008F1100008FD100008F1
:10214400091100080000000040000000811A000886
:10215400050F0008811A0008811A0008811A000876
:10216400811A0008811A0008811A00081D0F00084E
:1021740038200008120000004C2000080400000071
:102184002020000816000000502000081C00000059
:10219400000000201A00000000C201000000080036
:1021A4000401000000000000000000000000000026
:1021B400000000000000000000000000000000001B
:1021C40000000000AF200008000000000000000034
:1021D40000000000000000000000000000000000FB
:1021E40000000000000000000000000000000000EB
:1021F40000000000000000000000000000000000DB
:0C2204000000000011010008ED000008BF
:0400000508000000EF
:00000001FF
