Archive member included to satisfy reference by file (symbol)

d:/progs/embitz/share/em_armgcc/bin/../lib/gcc/arm-none-eabi/5.4.1/../../../../arm-none-eabi/lib/armv7-m\libg_n.a(lib_a-exit.o)
                              d:/progs/embitz/share/em_armgcc/bin/../lib/gcc/arm-none-eabi/5.4.1/../../../../arm-none-eabi/lib/armv7-m/crt0.o (exit)
d:/progs/embitz/share/em_armgcc/bin/../lib/gcc/arm-none-eabi/5.4.1/../../../../arm-none-eabi/lib/armv7-m\libg_n.a(lib_a-impure.o)
                              d:/progs/embitz/share/em_armgcc/bin/../lib/gcc/arm-none-eabi/5.4.1/../../../../arm-none-eabi/lib/armv7-m\libg_n.a(lib_a-exit.o) (_global_impure_ptr)
d:/progs/embitz/share/em_armgcc/bin/../lib/gcc/arm-none-eabi/5.4.1/../../../../arm-none-eabi/lib/armv7-m\libg_n.a(lib_a-init.o)
                              d:/progs/embitz/share/em_armgcc/bin/../lib/gcc/arm-none-eabi/5.4.1/../../../../arm-none-eabi/lib/armv7-m/crt0.o (__libc_init_array)
d:/progs/embitz/share/em_armgcc/bin/../lib/gcc/arm-none-eabi/5.4.1/../../../../arm-none-eabi/lib/armv7-m\libg_n.a(lib_a-memset.o)
                              d:/progs/embitz/share/em_armgcc/bin/../lib/gcc/arm-none-eabi/5.4.1/../../../../arm-none-eabi/lib/armv7-m/crt0.o (memset)
d:/progs/embitz/share/em_armgcc/bin/../lib/gcc/arm-none-eabi/5.4.1/../../../../arm-none-eabi/lib/armv7-m\libnosys_s.a(_exit.o)
                              d:/progs/embitz/share/em_armgcc/bin/../lib/gcc/arm-none-eabi/5.4.1/../../../../arm-none-eabi/lib/armv7-m\libg_n.a(lib_a-exit.o) (_exit)

Allocating common symbols
Common symbol       size              file

SaveRState          0x2               obj\release\stm32_usb-fs-device_driver\src\usb_int.o
HSEStartUpStatus    0x1               obj\release\src\hw_config.o
SaveState           0x2               obj\release\stm32_usb-fs-device_driver\src\usb_init.o
settings            0xc               obj\release\src\main.o
new_data            0x8               obj\release\src\main.o
wIstr               0x2               obj\release\src\usb_istr.o
pProperty           0x4               obj\release\stm32_usb-fs-device_driver\src\usb_init.o
ADCbuf              0x800             obj\release\src\hw_config.o
EPindex             0x1               obj\release\stm32_usb-fs-device_driver\src\usb_init.o
SaveTState          0x2               obj\release\stm32_usb-fs-device_driver\src\usb_int.o
Device_Info         0x1c              obj\release\stm32_usb-fs-device_driver\src\usb_init.o
pUser_Standard_Requests
                    0x4               obj\release\stm32_usb-fs-device_driver\src\usb_init.o
USB_Rx_Buffer       0x40              obj\release\src\usb_endp.o
USART_Rx_Buffer     0x4000            obj\release\src\hw_config.o
StatusInfo          0x2               obj\release\stm32_usb-fs-device_driver\src\usb_core.o
pInformation        0x4               obj\release\stm32_usb-fs-device_driver\src\usb_init.o
ResumeS             0x2               obj\release\src\usb_pwr.o
USART_InitStructure
                    0x10              obj\release\src\hw_config.o
wInterrupt_Mask     0x2               obj\release\stm32_usb-fs-device_driver\src\usb_init.o

Discarded input sections

 .text          0x00000000        0x0 d:/progs/embitz/share/em_armgcc/bin/../lib/gcc/arm-none-eabi/5.4.1/armv7-m/crti.o
 .data          0x00000000        0x0 d:/progs/embitz/share/em_armgcc/bin/../lib/gcc/arm-none-eabi/5.4.1/armv7-m/crti.o
 .bss           0x00000000        0x0 d:/progs/embitz/share/em_armgcc/bin/../lib/gcc/arm-none-eabi/5.4.1/armv7-m/crti.o
 .data          0x00000000        0x4 d:/progs/embitz/share/em_armgcc/bin/../lib/gcc/arm-none-eabi/5.4.1/armv7-m/crtbegin.o
 .data          0x00000000        0x0 d:/progs/embitz/share/em_armgcc/bin/../lib/gcc/arm-none-eabi/5.4.1/../../../../arm-none-eabi/lib/armv7-m/crt0.o
 .bss           0x00000000        0x0 d:/progs/embitz/share/em_armgcc/bin/../lib/gcc/arm-none-eabi/5.4.1/../../../../arm-none-eabi/lib/armv7-m/crt0.o
 .ARM.extab     0x00000000        0x0 d:/progs/embitz/share/em_armgcc/bin/../lib/gcc/arm-none-eabi/5.4.1/../../../../arm-none-eabi/lib/armv7-m/crt0.o
 .text          0x00000000        0x0 obj\release\spl\src\misc.o
 .data          0x00000000        0x0 obj\release\spl\src\misc.o
 .bss           0x00000000        0x0 obj\release\spl\src\misc.o
 .text.NVIC_SetVectorTable
                0x00000000       0x14 obj\release\spl\src\misc.o
 .text.NVIC_SystemLPConfig
                0x00000000       0x18 obj\release\spl\src\misc.o
 .text.SysTick_CLKSourceConfig
                0x00000000       0x18 obj\release\spl\src\misc.o
 .text          0x00000000        0x0 obj\release\spl\src\stm32f10x_adc.o
 .data          0x00000000        0x0 obj\release\spl\src\stm32f10x_adc.o
Memory Configuration

Name             Origin             Length             Attributes
ROM              0x08000000         0x00010000         xr
RAM              0x20000000         0x00005000         xrw
*default*        0x00000000         0xffffffff

Linker script and memory map

LOAD d:/progs/embitz/share/em_armgcc/bin/../lib/gcc/arm-none-eabi/5.4.1/armv7-m/crti.o
LOAD d:/progs/embitz/share/em_armgcc/bin/../lib/gcc/arm-none-eabi/5.4.1/armv7-m/crtbegin.o
LOAD d:/progs/embitz/share/em_armgcc/bin/../lib/gcc/arm-none-eabi/5.4.1/../../../../arm-none-eabi/lib/armv7-m/crt0.o
                0x00000000                __HEAP_SIZE = 0x0
                0x00000200                __STACK_SIZE = 0x200

.text           0x08000000     0x20bc
 *(.isr_vector)
 .isr_vector    0x08000000       0xec obj\release\src\startup_stm32f10x_md.o
                0x08000000                __isr_vector
 *(.text*)
 .text          0x080000ec       0x5c d:/progs/embitz/share/em_armgcc/bin/../lib/gcc/arm-none-eabi/5.4.1/armv7-m/crtbegin.o
 .text          0x08000148       0x74 d:/progs/embitz/share/em_armgcc/bin/../lib/gcc/arm-none-eabi/5.4.1/../../../../arm-none-eabi/lib/armv7-m/crt0.o
                0x08000148                _start
                0x08000148                _mainCRTStartup
 .text.NVIC_PriorityGroupConfig
                0x080001bc       0x14 obj\release\spl\src\misc.o
                0x080001bc                NVIC_PriorityGroupConfig
 .text.NVIC_Init
                0x080001d0       0x6c obj\release\spl\src\misc.o
                0x080001d0                NVIC_Init
 .text.ADC_Init
                0x0800023c       0x48 obj\release\spl\src\stm32f10x_adc.o
                0x0800023c                ADC_Init
 .text.ADC_Cmd  0x08000284       0x14 obj\release\spl\src\stm32f10x_adc.o
                0x08000284                ADC_Cmd
 .text.ADC_DMACmd
                0x08000298       0x14 obj\release\spl\src\stm32f10x_adc.o
                0x08000298                ADC_DMACmd
 .text.ADC_ResetCalibration
                0x080002ac        0xc obj\release\spl\src\stm32f10x_adc.o
                0x080002ac                ADC_ResetCalibration
 .text.ADC_GetResetCalibrationStatus
                0x080002b8        0x8 obj\release\spl\src\stm32f10x_adc.o
                0x080002b8                ADC_GetResetCalibrationStatus
 .text.ADC_StartCalibration
                0x080002c0        0xc obj\release\spl\src\stm32f10x_adc.o
                0x080002c0                ADC_StartCalibration
 .text.ADC_GetCalibrationStatus
                0x080002cc        0x8 obj\release\spl\src\stm32f10x_adc.o
                0x080002cc                ADC_GetCalibrationStatus
 .text.ADC_SoftwareStartConvCmd
                0x080002d4       0x14 obj\release\spl\src\stm32f10x_adc.o
                0x080002d4                ADC_SoftwareStartConvCmd
 .text.ADC_RegularChannelConfig
                0x080002e8       0x94 obj\release\spl\src\stm32f10x_adc.o
                0x080002e8                ADC_RegularChannelConfig
 .text.ADC_ExternalTrigConvCmd
                0x0800037c       0x14 obj\release\spl\src\stm32f10x_adc.o
                0x0800037c                ADC_ExternalTrigConvCmd
 .text.DMA_DeInit
                0x08000390      0x128 obj\release\spl\src\stm32f10x_dma.o
                0x08000390                DMA_DeInit
 .text.DMA_Init
                0x080004b8       0x40 obj\release\spl\src\stm32f10x_dma.o
                0x080004b8                DMA_Init
 .text.DMA_Cmd  0x080004f8       0x18 obj\release\spl\src\stm32f10x_dma.o
                0x080004f8                DMA_Cmd
 .text.DMA_ITConfig
                0x08000510       0x14 obj\release\spl\src\stm32f10x_dma.o
                0x08000510                DMA_ITConfig
 .text.DMA_GetITStatus
                0x08000524       0x1c obj\release\spl\src\stm32f10x_dma.o
                0x08000524                DMA_GetITStatus
 .text.DMA_GetFlagStatus
                0x08000540        0x4 obj\release\spl\src\stm32f10x_dma.o
                0x08000540                DMA_GetFlagStatus
 .text.DMA_ClearITPendingBit
                0x08000544       0x14 obj\release\spl\src\stm32f10x_dma.o
                0x08000544                DMA_ClearITPendingBit
 .text.DMA_ClearFlag
                0x08000558        0x4 obj\release\spl\src\stm32f10x_dma.o
                0x08000558                DMA_ClearFlag
 .text.GPIO_Init
                0x0800055c       0xcc obj\release\spl\src\stm32f10x_gpio.o
                0x0800055c                GPIO_Init
 .text.RCC_USBCLKConfig
                0x08000628        0xc obj\release\spl\src\stm32f10x_rcc.o
                0x08000628                RCC_USBCLKConfig
 .text.RCC_ADCCLKConfig
                0x08000634       0x14 obj\release\spl\src\stm32f10x_rcc.o
                0x08000634                RCC_ADCCLKConfig
 .text.RCC_AHBPeriphClockCmd
                0x08000648       0x1c obj\release\spl\src\stm32f10x_rcc.o
                0x08000648                RCC_AHBPeriphClockCmd
 .text.RCC_APB2PeriphClockCmd
                0x08000664       0x1c obj\release\spl\src\stm32f10x_rcc.o
                0x08000664                RCC_APB2PeriphClockCmd
 .text.RCC_APB1PeriphClockCmd
                0x08000680       0x1c obj\release\spl\src\stm32f10x_rcc.o
                0x08000680                RCC_APB1PeriphClockCmd
 .text.beep     0x0800069c       0x48 obj\release\src\buzzer.o
                0x0800069c                beep
 .text.ExecuteCmd
                0x080006e4       0x18 obj\release\src\command.o
                0x080006e4                ExecuteCmd
 .text.IntToUnicode
                0x080006fc       0x34 obj\release\src\hw_config.o
 .text.Set_System
                0x08000730      0x1a0 obj\release\src\hw_config.o
                0x08000730                Set_System
 .text.ADC_DMA_Handler
                0x080008d0       0x58 obj\release\src\hw_config.o
                0x080008d0                DMA1_Channel1_IRQHandler
                0x080008d0                ADC_DMA_Handler
 .text.Buzzer_On
                0x08000928       0x10 obj\release\src\hw_config.o
                0x08000928                Buzzer_On
 .text.Buzzer_Off
                0x08000938       0x10 obj\release\src\hw_config.o
                0x08000938                Buzzer_Off
 .text.Led_On   0x08000948       0x10 obj\release\src\hw_config.o
                0x08000948                Led_On
 .text.Led_Off  0x08000958       0x10 obj\release\src\hw_config.o
                0x08000958                Led_Off
 .text.Set_USBClock
                0x08000968       0x18 obj\release\src\hw_config.o
                0x08000968                Set_USBClock
 .text.USB_Interrupts_Config
                0x08000980       0x30 obj\release\src\hw_config.o
                0x08000980                USB_Interrupts_Config
 .text.USB_Cable_Config
                0x080009b0        0x4 obj\release\src\hw_config.o
                0x080009b0                USB_Cable_Config
 .text.UsbSendData
                0x080009b4       0x38 obj\release\src\hw_config.o
                0x080009b4                UsbSendData
 .text.Get_SerialNum
                0x080009ec       0x40 obj\release\src\hw_config.o
                0x080009ec                Get_SerialNum
 .text.startup.main
                0x08000a2c      0x120 obj\release\src\main.o
                0x08000a2c                main
 .text.OnUsbDataRx
                0x08000b4c       0x28 obj\release\src\main.o
                0x08000b4c                OnUsbDataRx
 .text.OnAdcData
                0x08000b74        0xc obj\release\src\main.o
                0x08000b74                OnAdcData
 .text.assert_failed
                0x08000b80        0x8 obj\release\src\main.o
                0x08000b80                assert_failed
 .text          0x08000b88       0xb8 obj\release\src\startup_stm32f10x_md.o
                0x08000b88                Reset_Handler
                0x08000be0                Default_Handler
                0x08000be2                WWDG_IRQHandler
                0x08000be4                PVD_IRQHandler
                0x08000be6                TAMPER_IRQHandler
                0x08000be8                RTC_IRQHandler
                0x08000bea                FLASH_IRQHandler
                0x08000bec                RCC_IRQHandler
                0x08000bee                EXTI0_IRQHandler
                0x08000bf0                EXTI1_IRQHandler
                0x08000bf2                EXTI2_IRQHandler
                0x08000bf4                EXTI3_IRQHandler
                0x08000bf6                EXTI4_IRQHandler
                0x08000bfa                DMA1_Channel2_IRQHandler
                0x08000bfc                DMA1_Channel3_IRQHandler
                0x08000bfe                DMA1_Channel4_IRQHandler
                0x08000c00                DMA1_Channel5_IRQHandler
                0x08000c02                DMA1_Channel6_IRQHandler
                0x08000c04                DMA1_Channel7_IRQHandler
                0x08000c06                ADC1_2_IRQHandler
                0x08000c08                USB_HP_CAN1_TX_IRQHandler
                0x08000c0c                CAN1_RX1_IRQHandler
                0x08000c0e                CAN1_SCE_IRQHandler
                0x08000c10                EXTI9_5_IRQHandler
                0x08000c12                TIM1_BRK_IRQHandler
                0x08000c14                TIM1_UP_IRQHandler
                0x08000c16                TIM1_TRG_COM_IRQHandler
                0x08000c18                TIM1_CC_IRQHandler
                0x08000c1a                TIM2_IRQHandler
                0x08000c1c                TIM3_IRQHandler
                0x08000c1e                TIM4_IRQHandler
                0x08000c20                I2C1_EV_IRQHandler
                0x08000c22                I2C1_ER_IRQHandler
                0x08000c24                I2C2_EV_IRQHandler
                0x08000c26                I2C2_ER_IRQHandler
                0x08000c28                SPI1_IRQHandler
                0x08000c2a                SPI2_IRQHandler
                0x08000c2c                USART1_IRQHandler
                0x08000c2e                USART2_IRQHandler
                0x08000c30                USART3_IRQHandler
                0x08000c32                EXTI15_10_IRQHandler
                0x08000c34                RTCAlarm_IRQHandler
                0x08000c36                USBWakeUp_IRQHandler
 .text.NMI_Handler
                0x08000c40        0x4 obj\release\src\stm32f10x_it.o
                0x08000c40                NMI_Handler
 .text.HardFault_Handler
                0x08000c44        0x4 obj\release\src\stm32f10x_it.o
                0x08000c44                HardFault_Handler
 .text.MemManage_Handler
                0x08000c48        0x4 obj\release\src\stm32f10x_it.o
                0x08000c48                MemManage_Handler
 .text.BusFault_Handler
                0x08000c4c        0x4 obj\release\src\stm32f10x_it.o
                0x08000c4c                BusFault_Handler
 .text.UsageFault_Handler
                0x08000c50        0x4 obj\release\src\stm32f10x_it.o
                0x08000c50                UsageFault_Handler
 .text.SVC_Handler
                0x08000c54        0x4 obj\release\src\stm32f10x_it.o
                0x08000c54                SVC_Handler
 .text.DebugMon_Handler
                0x08000c58        0x4 obj\release\src\stm32f10x_it.o
                0x08000c58                DebugMon_Handler
 .text.PendSV_Handler
                0x08000c5c        0x4 obj\release\src\stm32f10x_it.o
                0x08000c5c                PendSV_Handler
 .text.SysTick_Handler
                0x08000c60        0x4 obj\release\src\stm32f10x_it.o
                0x08000c60                SysTick_Handler
 .text.USB_LP_CAN1_RX0_IRQHandler
                0x08000c64        0x4 obj\release\src\stm32f10x_it.o
                0x08000c64                USB_LP_CAN1_RX0_IRQHandler
 .text.SystemInit
                0x08000c68      0x104 obj\release\src\system_stm32f10x.o
                0x08000c68                SystemInit
 .text.EP3_OUT_Callback
                0x08000d6c       0x24 obj\release\src\usb_endp.o
                0x08000d6c                EP3_OUT_Callback
 .text.EP1_IN_Callback
                0x08000d90       0x60 obj\release\src\usb_endp.o
                0x08000d90                EP1_IN_Callback
 .text.SOF_Callback
                0x08000df0       0xa0 obj\release\src\usb_endp.o
                0x08000df0                SOF_Callback
 .text.USB_Istr
                0x08000e90       0x74 obj\release\src\usb_istr.o
                0x08000e90                USB_Istr
 .text.Virtual_Com_Port_SetConfiguration
                0x08000f04       0x18 obj\release\src\usb_prop.o
                0x08000f04                Virtual_Com_Port_SetConfiguration
 .text.Virtual_Com_Port_SetDeviceAddress
                0x08000f1c        0xc obj\release\src\usb_prop.o
                0x08000f1c                Virtual_Com_Port_SetDeviceAddress
 .text.Virtual_Com_Port_Status_In
                0x08000f28       0x14 obj\release\src\usb_prop.o
                0x08000f28                Virtual_Com_Port_Status_In
 .text.Virtual_Com_Port_Status_Out
                0x08000f3c        0x4 obj\release\src\usb_prop.o
                0x08000f3c                Virtual_Com_Port_Status_Out
 .text.Virtual_Com_Port_Data_Setup
                0x08000f40       0x5c obj\release\src\usb_prop.o
                0x08000f40                Virtual_Com_Port_Data_Setup
 .text.Virtual_Com_Port_NoData_Setup
                0x08000f9c       0x24 obj\release\src\usb_prop.o
                0x08000f9c                Virtual_Com_Port_NoData_Setup
 .text.Virtual_Com_Port_Get_Interface_Setting
                0x08000fc0       0x10 obj\release\src\usb_prop.o
                0x08000fc0                Virtual_Com_Port_Get_Interface_Setting
 .text.Virtual_Com_Port_SetLineCoding
                0x08000fd0       0x18 obj\release\src\usb_prop.o
                0x08000fd0                Virtual_Com_Port_SetLineCoding
 .text.Virtual_Com_Port_GetLineCoding
                0x08000fe8        0x4 obj\release\src\usb_prop.o
                0x08000fe8                Virtual_Com_Port_GetLineCoding
 .text.Virtual_Com_Port_init
                0x08000fec       0x24 obj\release\src\usb_prop.o
                0x08000fec                Virtual_Com_Port_init
 .text.Virtual_Com_Port_Reset
                0x08001010       0xe0 obj\release\src\usb_prop.o
                0x08001010                Virtual_Com_Port_Reset
 .text.Virtual_Com_Port_GetDeviceDescriptor
                0x080010f0        0xc obj\release\src\usb_prop.o
                0x080010f0                Virtual_Com_Port_GetDeviceDescriptor
 .text.Virtual_Com_Port_GetConfigDescriptor
                0x080010fc        0xc obj\release\src\usb_prop.o
                0x080010fc                Virtual_Com_Port_GetConfigDescriptor
 .text.Virtual_Com_Port_GetStringDescriptor
                0x08001108       0x20 obj\release\src\usb_prop.o
                0x08001108                Virtual_Com_Port_GetStringDescriptor
 .text.PowerOn  0x08001128       0x30 obj\release\src\usb_pwr.o
                0x08001128                PowerOn
 .text.Standard_GetConfiguration
                0x08001158       0x28 obj\release\stm32_usb-fs-device_driver\src\usb_core.o
                0x08001158                Standard_GetConfiguration
 .text.Standard_GetInterface
                0x08001180       0x28 obj\release\stm32_usb-fs-device_driver\src\usb_core.o
                0x08001180                Standard_GetInterface
 .text.Standard_GetStatus
                0x080011a8       0x8c obj\release\stm32_usb-fs-device_driver\src\usb_core.o
                0x080011a8                Standard_GetStatus
 .text.DataStageIn
                0x08001234       0xb0 obj\release\stm32_usb-fs-device_driver\src\usb_core.o
 .text.Standard_SetConfiguration
                0x080012e4       0x3c obj\release\stm32_usb-fs-device_driver\src\usb_core.o
                0x080012e4                Standard_SetConfiguration
 .text.Standard_SetInterface
                0x08001320       0x50 obj\release\stm32_usb-fs-device_driver\src\usb_core.o
                0x08001320                Standard_SetInterface
 .text.Standard_ClearFeature
                0x08001370       0xd8 obj\release\stm32_usb-fs-device_driver\src\usb_core.o
                0x08001370                Standard_ClearFeature
 .text.Standard_SetEndPointFeature
                0x08001448       0x98 obj\release\stm32_usb-fs-device_driver\src\usb_core.o
                0x08001448                Standard_SetEndPointFeature
 .text.Standard_GetDescriptorData
                0x080014e0       0x1c obj\release\stm32_usb-fs-device_driver\src\usb_core.o
                0x080014e0                Standard_GetDescriptorData
 .text.Post0_Process
                0x080014fc       0x44 obj\release\stm32_usb-fs-device_driver\src\usb_core.o
                0x080014fc                Post0_Process
 .text.Setup0_Process
                0x08001540      0x37c obj\release\stm32_usb-fs-device_driver\src\usb_core.o
                0x08001540                Setup0_Process
 .text.Out0_Process
                0x080018bc       0xdc obj\release\stm32_usb-fs-device_driver\src\usb_core.o
                0x080018bc                Out0_Process
 .text.In0_Process
                0x08001998       0xa8 obj\release\stm32_usb-fs-device_driver\src\usb_core.o
                0x08001998                In0_Process
 .text.SetDeviceAddress
                0x08001a40       0x40 obj\release\stm32_usb-fs-device_driver\src\usb_core.o
                0x08001a40                SetDeviceAddress
 .text.NOP_Process
                0x08001a80        0x4 obj\release\stm32_usb-fs-device_driver\src\usb_core.o
                0x08001a80                NOP_Process
 .text.USB_Init
                0x08001a84       0x38 obj\release\stm32_usb-fs-device_driver\src\usb_init.o
                0x08001a84                USB_Init
 .text.CTR_LP   0x08001abc      0x18c obj\release\stm32_usb-fs-device_driver\src\usb_int.o
                0x08001abc                CTR_LP
 .text.UserToPMABufferCopy
                0x08001c48       0x28 obj\release\stm32_usb-fs-device_driver\src\usb_mem.o
                0x08001c48                UserToPMABufferCopy
 .text.PMAToUserBufferCopy
                0x08001c70       0x20 obj\release\stm32_usb-fs-device_driver\src\usb_mem.o
                0x08001c70                PMAToUserBufferCopy
 .text.SetBTABLE
                0x08001c90       0x10 obj\release\stm32_usb-fs-device_driver\src\usb_regs.o
                0x08001c90                SetBTABLE
 .text.SetEPType
                0x08001ca0       0x1c obj\release\stm32_usb-fs-device_driver\src\usb_regs.o
                0x08001ca0                SetEPType
 .text.SetEPTxStatus
                0x08001cbc       0x34 obj\release\stm32_usb-fs-device_driver\src\usb_regs.o
                0x08001cbc                SetEPTxStatus
 .text.SetEPRxStatus
                0x08001cf0       0x34 obj\release\stm32_usb-fs-device_driver\src\usb_regs.o
                0x08001cf0                SetEPRxStatus
 .text.SetEPTxValid
                0x08001d24       0x28 obj\release\stm32_usb-fs-device_driver\src\usb_regs.o
                0x08001d24                SetEPTxValid
 .text.SetEPRxValid
                0x08001d4c       0x28 obj\release\stm32_usb-fs-device_driver\src\usb_regs.o
                0x08001d4c                SetEPRxValid
 .text.ClearEPDoubleBuff
                0x08001d74       0x20 obj\release\stm32_usb-fs-device_driver\src\usb_regs.o
                0x08001d74                ClearEPDoubleBuff
 .text.Clear_Status_Out
                0x08001d94        0x4 obj\release\stm32_usb-fs-device_driver\src\usb_regs.o
                0x08001d94                Clear_Status_Out
 .text.ClearDTOG_RX
                0x08001d98       0x24 obj\release\stm32_usb-fs-device_driver\src\usb_regs.o
                0x08001d98                ClearDTOG_RX
 .text.ClearDTOG_TX
                0x08001dbc       0x24 obj\release\stm32_usb-fs-device_driver\src\usb_regs.o
                0x08001dbc                ClearDTOG_TX
 .text.SetEPTxCount
                0x08001de0       0x1c obj\release\stm32_usb-fs-device_driver\src\usb_regs.o
                0x08001de0                SetEPTxCount
 .text.SetEPRxCount
                0x08001dfc       0x44 obj\release\stm32_usb-fs-device_driver\src\usb_regs.o
                0x08001dfc                SetEPRxCount
 .text.SetEPDblBuf0Addr
                0x08001e40       0x20 obj\release\stm32_usb-fs-device_driver\src\usb_regs.o
                0x08001e40                SetEPDblBuf0Addr
 .text.SetEPTxAddr
                0x08001e60        0x4 obj\release\stm32_usb-fs-device_driver\src\usb_regs.o
                0x08001e60                SetEPTxAddr
 .text.SetEPDblBuf1Addr
                0x08001e64       0x20 obj\release\stm32_usb-fs-device_driver\src\usb_regs.o
                0x08001e64                SetEPDblBuf1Addr
 .text.SetEPRxAddr
                0x08001e84        0x4 obj\release\stm32_usb-fs-device_driver\src\usb_regs.o
                0x08001e84                SetEPRxAddr
 .text.GetEPDblBuf0Addr
                0x08001e88       0x1c obj\release\stm32_usb-fs-device_driver\src\usb_regs.o
                0x08001e88                GetEPDblBuf0Addr
 .text.GetEPTxAddr
                0x08001ea4        0x4 obj\release\stm32_usb-fs-device_driver\src\usb_regs.o
                0x08001ea4                GetEPTxAddr
 .text.GetEPDblBuf1Addr
                0x08001ea8       0x1c obj\release\stm32_usb-fs-device_driver\src\usb_regs.o
                0x08001ea8                GetEPDblBuf1Addr
 .text.GetEPRxAddr
                0x08001ec4        0x4 obj\release\stm32_usb-fs-device_driver\src\usb_regs.o
                0x08001ec4                GetEPRxAddr
 .text.GetEPDblBuf1Count
                0x08001ec8       0x20 obj\release\stm32_usb-fs-device_driver\src\usb_regs.o
                0x08001ec8                GetEPDblBuf1Count
 .text.GetEPRxCount
                0x08001ee8        0x4 obj\release\stm32_usb-fs-device_driver\src\usb_regs.o
                0x08001ee8                GetEPRxCount
 .text.ByteSwap
                0x08001eec        0xc obj\release\stm32_usb-fs-device_driver\src\usb_regs.o
                0x08001eec                ByteSwap
 .text.USB_SIL_Init
                0x08001ef8       0x24 obj\release\stm32_usb-fs-device_driver\src\usb_sil.o
                0x08001ef8                USB_SIL_Init
 .text.USB_SIL_Read
                0x08001f1c       0x24 obj\release\stm32_usb-fs-device_driver\src\usb_sil.o
                0x08001f1c                USB_SIL_Read
 .text.exit     0x08001f40       0x28 d:/progs/embitz/share/em_armgcc/bin/../lib/gcc/arm-none-eabi/5.4.1/../../../../arm-none-eabi/lib/armv7-m\libg_n.a(lib_a-exit.o)
                0x08001f40                exit
 .text.__libc_init_array
                0x08001f68       0x4c d:/progs/embitz/share/em_armgcc/bin/../lib/gcc/arm-none-eabi/5.4.1/../../../../arm-none-eabi/lib/armv7-m\libg_n.a(lib_a-init.o)
                0x08001f68                __libc_init_array
 .text.memset   0x08001fb4       0x10 d:/progs/embitz/share/em_armgcc/bin/../lib/gcc/arm-none-eabi/5.4.1/../../../../arm-none-eabi/lib/armv7-m\libg_n.a(lib_a-memset.o)
                0x08001fb4                memset
 .text._exit    0x08001fc4        0x2 d:/progs/embitz/share/em_armgcc/bin/../lib/gcc/arm-none-eabi/5.4.1/../../../../arm-none-eabi/lib/armv7-m\libnosys_s.a(_exit.o)
                0x08001fc4                _exit
 *(.init)
 *fill*         0x08001fc6        0x2 
 .init          0x08001fc8        0x4 d:/progs/embitz/share/em_armgcc/bin/../lib/gcc/arm-none-eabi/5.4.1/armv7-m/crti.o
                0x08001fc8                _init
 .init          0x08001fcc        0x8 d:/progs/embitz/share/em_armgcc/bin/../lib/gcc/arm-none-eabi/5.4.1/armv7-m/crtn.o
 *(.fini)
 .fini          0x08001fd4        0x4 d:/progs/embitz/share/em_armgcc/bin/../lib/gcc/arm-none-eabi/5.4.1/armv7-m/crti.o
                0x08001fd4                _fini
 .fini          0x08001fd8        0x8 d:/progs/embitz/share/em_armgcc/bin/../lib/gcc/arm-none-eabi/5.4.1/armv7-m/crtn.o
 *crtbegin.o(.ctors)
 *crtbegin?.o(.ctors)
 *(EXCLUDE_FILE(*crtend.o *crtend?.o) .ctors)
 *(SORT(.ctors.*))
 *(.ctors)
 *crtbegin.o(.dtors)
 *crtbegin?.o(.dtors)
 *(EXCLUDE_FILE(*crtend.o *crtend?.o) .dtors)
 *(SORT(.dtors.*))
 *(.dtors)
 *(.rodata*)
 .rodata.str1.4
                0x08001fe0       0x10 obj\release\src\hw_config.o
 .rodata.replyHeader
                0x08001ff0       0x18 obj\release\src\main.o
 .rodata.szId   0x08002008       0x17 obj\release\src\main.o
 *fill*         0x0800201f        0x1 
 .rodata.Virtual_Com_Port_StringVendor
                0x08002020       0x16 obj\release\src\usb_desc.o
                0x08002020                Virtual_Com_Port_StringVendor
 *fill*         0x08002036        0x2 
 .rodata.Virtual_Com_Port_DeviceDescriptor
                0x08002038       0x12 obj\release\src\usb_desc.o
                0x08002038                Virtual_Com_Port_DeviceDescriptor
 *fill*         0x0800204a        0x2 
 .rodata.Virtual_Com_Port_StringLangID
                0x0800204c        0x4 obj\release\src\usb_desc.o
                0x0800204c                Virtual_Com_Port_StringLangID
 .rodata.Virtual_Com_Port_StringProduct
                0x08002050       0x1c obj\release\src\usb_desc.o
                0x08002050                Virtual_Com_Port_StringProduct
 .rodata.Virtual_Com_Port_ConfigDescriptor
                0x0800206c       0x43 obj\release\src\usb_desc.o
                0x0800206c                Virtual_Com_Port_ConfigDescriptor
 .rodata.str1.1
                0x080020af        0x2 d:/progs/embitz/share/em_armgcc/bin/../lib/gcc/arm-none-eabi/5.4.1/../../../../arm-none-eabi/lib/armv7-m\libg_n.a(lib_a-impure.o)
 *fill*         0x080020b1        0x3 
 .rodata._global_impure_ptr
                0x080020b4        0x4 d:/progs/embitz/share/em_armgcc/bin/../lib/gcc/arm-none-eabi/5.4.1/../../../../arm-none-eabi/lib/armv7-m\libg_n.a(lib_a-impure.o)
                0x080020b4                _global_impure_ptr
 *(.eh_frame*)
 .eh_frame      0x080020b8        0x0 d:/progs/embitz/share/em_armgcc/bin/../lib/gcc/arm-none-eabi/5.4.1/armv7-m/crtbegin.o
 .eh_frame      0x080020b8        0x4 d:/progs/embitz/share/em_armgcc/bin/../lib/gcc/arm-none-eabi/5.4.1/armv7-m/crtend.o

.glue_7         0x080020bc        0x0
 .glue_7        0x080020bc        0x0 linker stubs

.glue_7t        0x080020bc        0x0
 .glue_7t       0x080020bc        0x0 linker stubs

.vfp11_veneer   0x080020bc        0x0
 .vfp11_veneer  0x080020bc        0x0 linker stubs

.v4_bx          0x080020bc        0x0
 .v4_bx         0x080020bc        0x0 linker stubs

.iplt           0x080020bc        0x0
 .iplt          0x080020bc        0x0 d:/progs/embitz/share/em_armgcc/bin/../lib/gcc/arm-none-eabi/5.4.1/armv7-m/crtbegin.o

.ARM.extab
 *(.ARM.extab* .gnu.linkonce.armextab.*)
                0x080020bc                __exidx_start = .

.ARM.exidx      0x080020bc        0x8
 *(.ARM.exidx* .gnu.linkonce.armexidx.*)
 .ARM.exidx     0x080020bc        0x8 d:/progs/embitz/share/em_armgcc/bin/../lib/gcc/arm-none-eabi/5.4.1/../../../../arm-none-eabi/lib/armv7-m/crt0.o
                0x080020c4                __exidx_end = .
                0x080020c4                __etext = .

.rel.dyn        0x080020c4        0x0
 .rel.iplt      0x080020c4        0x0 d:/progs/embitz/share/em_armgcc/bin/../lib/gcc/arm-none-eabi/5.4.1/armv7-m/crtbegin.o

.data           0x20000000      0x14c load address 0x080020c4
                0x20000000                __data_start__ = .
 *(vtable)
 *(.data*)
 .data.Virtual_Com_Port_StringSerial
                0x20000000       0x1a obj\release\src\usb_desc.o
                0x20000000                Virtual_Com_Port_StringSerial
 *fill*         0x2000001a        0x2 
 .data.pEpInt_IN
                0x2000001c       0x1c obj\release\src\usb_istr.o
                0x2000001c                pEpInt_IN
 .data.pEpInt_OUT
                0x20000038       0x1c obj\release\src\usb_istr.o
                0x20000038                pEpInt_OUT
 .data.Config_Descriptor
                0x20000054        0x8 obj\release\src\usb_prop.o
                0x20000054                Config_Descriptor
 .data.Device_Property
                0x2000005c       0x30 obj\release\src\usb_prop.o
                0x2000005c                Device_Property
 .data.User_Standard_Requests
                0x2000008c       0x24 obj\release\src\usb_prop.o
                0x2000008c                User_Standard_Requests
 .data.Device_Descriptor
                0x200000b0        0x8 obj\release\src\usb_prop.o
                0x200000b0                Device_Descriptor
 .data.String_Descriptor
                0x200000b8       0x20 obj\release\src\usb_prop.o
                0x200000b8                String_Descriptor
 .data.linecoding
                0x200000d8        0x8 obj\release\src\usb_prop.o
                0x200000d8                linecoding
 .data.Device_Table
                0x200000e0        0x2 obj\release\src\usb_prop.o
                0x200000e0                Device_Table
 *fill*         0x200000e2        0x2 
 .data.impure_data
                0x200000e4       0x60 d:/progs/embitz/share/em_armgcc/bin/../lib/gcc/arm-none-eabi/5.4.1/../../../../arm-none-eabi/lib/armv7-m\libg_n.a(lib_a-impure.o)
                0x20000144                . = ALIGN (0x4)
                0x20000144                PROVIDE (__preinit_array_start, .)
 *(.preinit_array)
                0x20000144                PROVIDE (__preinit_array_end, .)
                0x20000144                . = ALIGN (0x4)
                0x20000144                PROVIDE (__init_array_start, .)
 *(SORT(.init_array.*))
 *(.init_array)
 .init_array    0x20000144        0x4 d:/progs/embitz/share/em_armgcc/bin/../lib/gcc/arm-none-eabi/5.4.1/armv7-m/crtbegin.o
                0x20000148                PROVIDE (__init_array_end, .)
                0x20000148                . = ALIGN (0x4)
                [!provide]                PROVIDE (__fini_array_start, .)
 *(SORT(.fini_array.*))
 *(.fini_array)
 .fini_array    0x20000148        0x4 d:/progs/embitz/share/em_armgcc/bin/../lib/gcc/arm-none-eabi/5.4.1/armv7-m/crtbegin.o
                [!provide]                PROVIDE (__fini_array_end, .)
                0x2000014c                . = ALIGN (0x4)
                0x2000014c                __data_end__ = .

.jcr            0x2000014c        0x0 load address 0x08002210
 .jcr           0x2000014c        0x0 d:/progs/embitz/share/em_armgcc/bin/../lib/gcc/arm-none-eabi/5.4.1/armv7-m/crtbegin.o

.igot.plt       0x2000014c        0x0 load address 0x08002210
 .igot.plt      0x2000014c        0x0 d:/progs/embitz/share/em_armgcc/bin/../lib/gcc/arm-none-eabi/5.4.1/armv7-m/crtbegin.o

.bss            0x2000014c     0x48e2 load address 0x08002210
                0x2000014c                __bss_start__ = .
 *(.bss*)
 .bss           0x2000014c       0x1c d:/progs/embitz/share/em_armgcc/bin/../lib/gcc/arm-none-eabi/5.4.1/armv7-m/crtbegin.o
 .bss.USART_Rx_ptr_in
                0x20000168        0x4 obj\release\src\hw_config.o
                0x20000168                USART_Rx_ptr_in
 .bss.USART_Rx_ptr_out
                0x2000016c        0x4 obj\release\src\hw_config.o
                0x2000016c                USART_Rx_ptr_out
 .bss.USART_Rx_length
                0x20000170        0x4 obj\release\src\hw_config.o
                0x20000170                USART_Rx_length
 .bss.action    0x20000174        0x1 obj\release\src\main.o
                0x20000174                action
 *fill*         0x20000175        0x3 
 .bss.buzz      0x20000178        0x4 obj\release\src\main.o
                0x20000178                buzz
 .bss.USB_Tx_State
                0x2000017c        0x1 obj\release\src\usb_endp.o
                0x2000017c                USB_Tx_State
 .bss.bIntPackSOF
                0x2000017d        0x1 obj\release\src\usb_istr.o
                0x2000017d                bIntPackSOF
 .bss.Request   0x2000017e        0x1 obj\release\src\usb_prop.o
                0x2000017e                Request
 *fill*         0x2000017f        0x1 
 .bss.bDeviceState
                0x20000180        0x4 obj\release\src\usb_pwr.o
                0x20000180                bDeviceState
 .bss.Data_Mul_MaxPacketSize
                0x20000184        0x1 obj\release\stm32_usb-fs-device_driver\src\usb_core.o
                0x20000184                Data_Mul_MaxPacketSize
 *(COMMON)
 *fill*         0x20000185        0x3 
 COMMON         0x20000188     0x4814 obj\release\src\hw_config.o
                0x20000188                HSEStartUpStatus
                0x2000018c                ADCbuf
                0x2000098c                USART_Rx_Buffer
                0x2000498c                USART_InitStructure
 COMMON         0x2000499c       0x14 obj\release\src\main.o
                0x2000499c                settings
                0x200049a8                new_data
 COMMON         0x200049b0       0x40 obj\release\src\usb_endp.o
                0x200049b0                USB_Rx_Buffer
 COMMON         0x200049f0        0x2 obj\release\src\usb_istr.o
                0x200049f0                wIstr
 *fill*         0x200049f2        0x2 
 COMMON         0x200049f4        0x2 obj\release\stm32_usb-fs-device_driver\src\usb_core.o
                0x200049f4                StatusInfo
 *fill*         0x200049f6        0x2 
 COMMON         0x200049f8       0x32 obj\release\stm32_usb-fs-device_driver\src\usb_init.o
                0x200049f8                SaveState
                0x200049fc                pProperty
                0x20004a00                EPindex
                0x20004a04                Device_Info
                0x20004a20                pUser_Standard_Requests
                0x20004a24                pInformation
                0x20004a28                wInterrupt_Mask
 COMMON         0x20004a2a        0x4 obj\release\stm32_usb-fs-device_driver\src\usb_int.o
                0x20004a2a                SaveRState
                0x20004a2c                SaveTState
                0x20004a2e                __bss_end__ = .

.heap           0x20004a30        0x0
                0x20004a30                __end__ = .
                0x20004a30                end = __end__
 *(.heap*)
 .heap          0x20004a30        0x0 obj\release\src\startup_stm32f10x_md.o
                0x20004a30                __HeapLimit = .

.stack_dummy    0x20004a30      0x200
 *(.stack)
 .stack         0x20004a30      0x200 obj\release\src\startup_stm32f10x_md.o
                0x20005000                __StackTop = (ORIGIN (RAM) + LENGTH (RAM))
                0x20004e00                __StackLimit = (__StackTop - SIZEOF (.stack_dummy))
                0x20005000                PROVIDE (__stack, __StackTop)
                0x00000001                ASSERT ((__StackLimit >= __HeapLimit), region RAM overflowed with stack)
LOAD obj\release\spl\src\misc.o
LOAD obj\release\spl\src\stm32f10x_adc.o
LOAD obj\release\spl\src\stm32f10x_bkp.o
LOAD obj\release\spl\src\stm32f10x_can.o
LOAD obj\release\spl\src\stm32f10x_cec.o
LOAD obj\release\spl\src\stm32f10x_crc.o
LOAD obj\release\spl\src\stm32f10x_dac.o
LOAD obj\release\spl\src\stm32f10x_dbgmcu.o
LOAD obj\release\spl\src\stm32f10x_dma.o
LOAD obj\release\spl\src\stm32f10x_exti.o
LOAD obj\release\spl\src\stm32f10x_flash.o
LOAD obj\release\spl\src\stm32f10x_fsmc.o
LOAD obj\release\spl\src\stm32f10x_gpio.o
LOAD obj\release\spl\src\stm32f10x_i2c.o
LOAD obj\release\spl\src\stm32f10x_iwdg.o
LOAD obj\release\spl\src\stm32f10x_pwr.o
LOAD obj\release\spl\src\stm32f10x_rcc.o
LOAD obj\release\spl\src\stm32f10x_rtc.o
LOAD obj\release\spl\src\stm32f10x_sdio.o
LOAD obj\release\spl\src\stm32f10x_spi.o
LOAD obj\release\spl\src\stm32f10x_tim.o
LOAD obj\release\spl\src\stm32f10x_usart.o
LOAD obj\release\spl\src\stm32f10x_wwdg.o
LOAD obj\release\src\buzzer.o
LOAD obj\release\src\command.o
LOAD obj\release\src\delay.o
LOAD obj\release\src\hw_config.o
LOAD obj\release\src\main.o
LOAD obj\release\src\startup_stm32f10x_md.o
LOAD obj\release\src\stm32f10x_it.o
LOAD obj\release\src\system_stm32f10x.o
LOAD obj\release\src\usb_desc.o
LOAD obj\release\src\usb_endp.o
LOAD obj\release\src\usb_istr.o
LOAD obj\release\src\usb_prop.o
LOAD obj\release\src\usb_pwr.o
LOAD obj\release\stm32_usb-fs-device_driver\src\usb_core.o
LOAD obj\release\stm32_usb-fs-device_driver\src\usb_init.o
LOAD obj\release\stm32_usb-fs-device_driver\src\usb_int.o
LOAD obj\release\stm32_usb-fs-device_driver\src\usb_mem.o
LOAD obj\release\stm32_usb-fs-device_driver\src\usb_regs.o
LOAD obj\release\stm32_usb-fs-device_driver\src\usb_sil.o
START GROUP
LOAD d:/progs/embitz/share/em_armgcc/bin/../lib/gcc/arm-none-eabi/5.4.1/armv7-m\libgcc.a
LOAD d:/progs/embitz/share/em_armgcc/bin/../lib/gcc/arm-none-eabi/5.4.1/../../../../arm-none-eabi/lib/armv7-m\libg_n.a
LOAD d:/progs/embitz/share/em_armgcc/bin/../lib/gcc/arm-none-eabi/5.4.1/../../../../arm-none-eabi/lib/armv7-m\libc_n.a
END GROUP
START GROUP
LOAD d:/progs/embitz/share/em_armgcc/bin/../lib/gcc/arm-none-eabi/5.4.1/armv7-m\libgcc.a
LOAD d:/progs/embitz/share/em_armgcc/bin/../lib/gcc/arm-none-eabi/5.4.1/../../../../arm-none-eabi/lib/armv7-m\libc_n.a
LOAD d:/progs/embitz/share/em_armgcc/bin/../lib/gcc/arm-none-eabi/5.4.1/../../../../arm-none-eabi/lib/armv7-m\libnosys_s.a
END GROUP
LOAD d:/progs/embitz/share/em_armgcc/bin/../lib/gcc/arm-none-eabi/5.4.1/armv7-m/crtend.o
LOAD d:/progs/embitz/share/em_armgcc/bin/../lib/gcc/arm-none-eabi/5.4.1/armv7-m/crtn.o
OUTPUT(bin\Release\stm32scope_embitz.elf elf32-littlearm)

.ARM.attributes
                0x00000000       0x29
 .ARM.attributes
                0x00000000       0x1d d:/progs/embitz/share/em_armgcc/bin/../lib/gcc/arm-none-eabi/5.4.1/armv7-m/crti.o
 .ARM.attributes
                0x0000001d       0x2d d:/progs/embitz/share/em_armgcc/bin/../lib/gcc/arm-none-eabi/5.4.1/armv7-m/crtbegin.o
 .ARM.attributes
                0x0000004a       0x1b d:/progs/embitz/share/em_armgcc/bin/../lib/gcc/arm-none-eabi/5.4.1/../../../../arm-none-eabi/lib/armv7-m/crt0.o
 .ARM.attributes
                0x00000065       0x33 obj\release\spl\src\misc.o
 .ARM.attributes
                0x00000098       0x33 obj\release\spl\src\stm32f10x_adc.o
 .ARM.attributes
                0x000000cb       0x33 obj\release\spl\src\stm32f10x_dma.o
 .ARM.attributes
                0x000000fe       0x33 obj\release\spl\src\stm32f10x_gpio.o
 .ARM.attributes
                0x00000131       0x33 obj\release\spl\src\stm32f10x_rcc.o
 .ARM.attributes
                0x00000164       0x33 obj\release\src\buzzer.o
 .ARM.attributes
                0x00000197       0x33 obj\release\src\command.o
 .ARM.attributes
                0x000001ca       0x33 obj\release\src\hw_config.o
 .ARM.attributes
                0x000001fd       0x33 obj\release\src\main.o
 .ARM.attributes
                0x00000230       0x1b obj\release\src\startup_stm32f10x_md.o
 .ARM.attributes
                0x0000024b       0x33 obj\release\src\stm32f10x_it.o
 .ARM.attributes
                0x0000027e       0x33 obj\release\src\system_stm32f10x.o
 .ARM.attributes
                0x000002b1       0x33 obj\release\src\usb_desc.o
 .ARM.attributes
                0x000002e4       0x33 obj\release\src\usb_endp.o
 .ARM.attributes
                0x00000317       0x33 obj\release\src\usb_istr.o
 .ARM.attributes
                0x0000034a       0x33 obj\release\src\usb_prop.o
 .ARM.attributes
                0x0000037d       0x33 obj\release\src\usb_pwr.o
 .ARM.attributes
                0x000003b0       0x33 obj\release\stm32_usb-fs-device_driver\src\usb_core.o
 .ARM.attributes
                0x000003e3       0x33 obj\release\stm32_usb-fs-device_driver\src\usb_init.o
 .ARM.attributes
                0x00000416       0x33 obj\release\stm32_usb-fs-device_driver\src\usb_int.o
 .ARM.attributes
                0x00000449       0x33 obj\release\stm32_usb-fs-device_driver\src\usb_mem.o
 .ARM.attributes
                0x0000047c       0x33 obj\release\stm32_usb-fs-device_driver\src\usb_regs.o
 .ARM.attributes
                0x000004af       0x33 obj\release\stm32_usb-fs-device_driver\src\usb_sil.o
 .ARM.attributes
                0x000004e2       0x2d d:/progs/embitz/share/em_armgcc/bin/../lib/gcc/arm-none-eabi/5.4.1/../../../../arm-none-eabi/lib/armv7-m\libg_n.a(lib_a-exit.o)
 .ARM.attributes
                0x0000050f       0x2d d:/progs/embitz/share/em_armgcc/bin/../lib/gcc/arm-none-eabi/5.4.1/../../../../arm-none-eabi/lib/armv7-m\libg_n.a(lib_a-impure.o)
 .ARM.attributes
                0x0000053c       0x2d d:/progs/embitz/share/em_armgcc/bin/../lib/gcc/arm-none-eabi/5.4.1/../../../../arm-none-eabi/lib/armv7-m\libg_n.a(lib_a-init.o)
 .ARM.attributes
                0x00000569       0x2d d:/progs/embitz/share/em_armgcc/bin/../lib/gcc/arm-none-eabi/5.4.1/../../../../arm-none-eabi/lib/armv7-m\libg_n.a(lib_a-memset.o)
 .ARM.attributes
                0x00000596       0x2d d:/progs/embitz/share/em_armgcc/bin/../lib/gcc/arm-none-eabi/5.4.1/../../../../arm-none-eabi/lib/armv7-m\libnosys_s.a(_exit.o)
 .ARM.attributes
                0x000005c3       0x2d d:/progs/embitz/share/em_armgcc/bin/../lib/gcc/arm-none-eabi/5.4.1/armv7-m/crtend.o
 .ARM.attributes
                0x000005f0       0x1d d:/progs/embitz/share/em_armgcc/bin/../lib/gcc/arm-none-eabi/5.4.1/armv7-m/crtn.o

.comment        0x00000000       0x6e
 .comment       0x00000000       0x6e obj\release\spl\src\misc.o
                                 0x6f (size before relaxing)
 .comment       0x0000006e       0x6f obj\release\spl\src\stm32f10x_adc.o
 .comment       0x0000006e       0x6f obj\release\spl\src\stm32f10x_dma.o
 .comment       0x0000006e       0x6f obj\release\spl\src\stm32f10x_gpio.o
 .comment       0x0000006e       0x6f obj\release\spl\src\stm32f10x_rcc.o
 .comment       0x0000006e       0x6f obj\release\src\buzzer.o
 .comment       0x0000006e       0x6f obj\release\src\command.o
 .comment       0x0000006e       0x6f obj\release\src\hw_config.o
 .comment       0x0000006e       0x6f obj\release\src\main.o
 .comment       0x0000006e       0x6f obj\release\src\stm32f10x_it.o
 .comment       0x0000006e       0x6f obj\release\src\system_stm32f10x.o
 .comment       0x0000006e       0x6f obj\release\src\usb_desc.o
 .comment       0x0000006e       0x6f obj\release\src\usb_endp.o
 .comment       0x0000006e       0x6f obj\release\src\usb_istr.o
 .comment       0x0000006e       0x6f obj\release\src\usb_prop.o
 .comment       0x0000006e       0x6f obj\release\src\usb_pwr.o
 .comment       0x0000006e       0x6f obj\release\stm32_usb-fs-device_driver\src\usb_core.o
 .comment       0x0000006e       0x6f obj\release\stm32_usb-fs-device_driver\src\usb_init.o
 .comment       0x0000006e       0x6f obj\release\stm32_usb-fs-device_driver\src\usb_int.o
 .comment       0x0000006e       0x6f obj\release\stm32_usb-fs-device_driver\src\usb_mem.o
 .comment       0x0000006e       0x6f obj\release\stm32_usb-fs-device_driver\src\usb_regs.o
 .comment       0x0000006e       0x6f obj\release\stm32_usb-fs-device_driver\src\usb_sil.o

.debug_info     0x00000000     0x81bf
 .debug_info    0x00000000      0x560 obj\release\spl\src\misc.o
 .debug_info    0x00000560      0xc2b obj\release\spl\src\stm32f10x_adc.o
 .debug_info    0x0000118b      0x400 obj\release\spl\src\stm32f10x_dma.o
 .debug_info    0x0000158b      0x891 obj\release\spl\src\stm32f10x_gpio.o
 .debug_info    0x00001e1c      0x946 obj\release\spl\src\stm32f10x_rcc.o
 .debug_info    0x00002762      0x16d obj\release\src\buzzer.o
 .debug_info    0x000028cf      0x1f4 obj\release\src\command.o
 .debug_info    0x00002ac3     0x1086 obj\release\src\hw_config.o
 .debug_info    0x00003b49      0x537 obj\release\src\main.o
 .debug_info    0x00004080       0x7a obj\release\src\startup_stm32f10x_md.o
 .debug_info    0x000040fa      0x11f obj\release\src\stm32f10x_it.o
 .debug_info    0x00004219      0x4c8 obj\release\src\system_stm32f10x.o
 .debug_info    0x000046e1      0x18c obj\release\src\usb_desc.o
 .debug_info    0x0000486d      0x337 obj\release\src\usb_endp.o
 .debug_info    0x00004ba4      0x2a7 obj\release\src\usb_istr.o
 .debug_info    0x00004e4b      0xb29 obj\release\src\usb_prop.o
 .debug_info    0x00005974      0x3b6 obj\release\src\usb_pwr.o
 .debug_info    0x00005d2a      0xebd obj\release\stm32_usb-fs-device_driver\src\usb_core.o
 .debug_info    0x00006be7      0x458 obj\release\stm32_usb-fs-device_driver\src\usb_init.o
 .debug_info    0x0000703f      0x202 obj\release\stm32_usb-fs-device_driver\src\usb_int.o
 .debug_info    0x00007241      0x1e4 obj\release\stm32_usb-fs-device_driver\src\usb_mem.o
 .debug_info    0x00007425      0xb42 obj\release\stm32_usb-fs-device_driver\src\usb_regs.o
 .debug_info    0x00007f67      0x258 obj\release\stm32_usb-fs-device_driver\src\usb_sil.o

.debug_abbrev   0x00000000     0x21d0
 .debug_abbrev  0x00000000      0x158 obj\release\spl\src\misc.o
 .debug_abbrev  0x00000158      0x1e8 obj\release\spl\src\stm32f10x_adc.o
 .debug_abbrev  0x00000340      0x168 obj\release\spl\src\stm32f10x_dma.o
 .debug_abbrev  0x000004a8      0x202 obj\release\spl\src\stm32f10x_gpio.o
 .debug_abbrev  0x000006aa      0x270 obj\release\spl\src\stm32f10x_rcc.o
 .debug_abbrev  0x0000091a       0x9f obj\release\src\buzzer.o
 .debug_abbrev  0x000009b9       0xb9 obj\release\src\command.o
 .debug_abbrev  0x00000a72      0x2d8 obj\release\src\hw_config.o
 .debug_abbrev  0x00000d4a      0x1f0 obj\release\src\main.o
 .debug_abbrev  0x00000f3a       0x14 obj\release\src\startup_stm32f10x_md.o
 .debug_abbrev  0x00000f4e       0xc4 obj\release\src\stm32f10x_it.o
 .debug_abbrev  0x00001012      0x170 obj\release\src\system_stm32f10x.o
 .debug_abbrev  0x00001182       0x75 obj\release\src\usb_desc.o
 .debug_abbrev  0x000011f7      0x12a obj\release\src\usb_endp.o
 .debug_abbrev  0x00001321      0x117 obj\release\src\usb_istr.o
 .debug_abbrev  0x00001438      0x22e obj\release\src\usb_prop.o
 .debug_abbrev  0x00001666      0x1cb obj\release\src\usb_pwr.o
 .debug_abbrev  0x00001831      0x3e5 obj\release\stm32_usb-fs-device_driver\src\usb_core.o
 .debug_abbrev  0x00001c16      0x11f obj\release\stm32_usb-fs-device_driver\src\usb_init.o
 .debug_abbrev  0x00001d35       0xfb obj\release\stm32_usb-fs-device_driver\src\usb_int.o
 .debug_abbrev  0x00001e30       0x9f obj\release\stm32_usb-fs-device_driver\src\usb_mem.o
 .debug_abbrev  0x00001ecf      0x1fe obj\release\stm32_usb-fs-device_driver\src\usb_regs.o
 .debug_abbrev  0x000020cd      0x103 obj\release\stm32_usb-fs-device_driver\src\usb_sil.o

.debug_loc      0x00000000     0x3926
 .debug_loc     0x00000000      0x193 obj\release\spl\src\misc.o
 .debug_loc     0x00000193      0x9cd obj\release\spl\src\stm32f10x_adc.o
 .debug_loc     0x00000b60      0x10a obj\release\spl\src\stm32f10x_dma.o
 .debug_loc     0x00000c6a      0x569 obj\release\spl\src\stm32f10x_gpio.o
 .debug_loc     0x000011d3      0x726 obj\release\spl\src\stm32f10x_rcc.o
 .debug_loc     0x000018f9       0x3a obj\release\src\command.o
 .debug_loc     0x00001933      0x15e obj\release\src\hw_config.o
 .debug_loc     0x00001a91      0x1fa obj\release\src\main.o
 .debug_loc     0x00001c8b       0xbc obj\release\src\system_stm32f10x.o
 .debug_loc     0x00001d47       0x98 obj\release\src\usb_endp.o
 .debug_loc     0x00001ddf      0x1e1 obj\release\src\usb_prop.o
 .debug_loc     0x00001fc0      0x10c obj\release\src\usb_pwr.o
 .debug_loc     0x000020cc      0xa4e obj\release\stm32_usb-fs-device_driver\src\usb_core.o
 .debug_loc     0x00002b1a       0x92 obj\release\stm32_usb-fs-device_driver\src\usb_int.o
 .debug_loc     0x00002bac      0x283 obj\release\stm32_usb-fs-device_driver\src\usb_mem.o
 .debug_loc     0x00002e2f      0xa28 obj\release\stm32_usb-fs-device_driver\src\usb_regs.o
 .debug_loc     0x00003857       0xcf obj\release\stm32_usb-fs-device_driver\src\usb_sil.o

.debug_aranges  0x00000000      0x930
 .debug_aranges
                0x00000000       0x40 obj\release\spl\src\misc.o
 .debug_aranges
                0x00000040      0x138 obj\release\spl\src\stm32f10x_adc.o
 .debug_aranges
                0x00000178       0x60 obj\release\spl\src\stm32f10x_dma.o
 .debug_aranges
                0x000001d8       0xa8 obj\release\spl\src\stm32f10x_gpio.o
 .debug_aranges
                0x00000280      0x118 obj\release\spl\src\stm32f10x_rcc.o
 .debug_aranges
                0x00000398       0x28 obj\release\src\buzzer.o
 .debug_aranges
                0x000003c0       0x20 obj\release\src\command.o
 .debug_aranges
                0x000003e0       0x88 obj\release\src\hw_config.o
 .debug_aranges
                0x00000468       0x38 obj\release\src\main.o
 .debug_aranges
                0x000004a0       0x20 obj\release\src\startup_stm32f10x_md.o
 .debug_aranges
                0x000004c0       0x48 obj\release\src\stm32f10x_it.o
 .debug_aranges
                0x00000508       0x28 obj\release\src\system_stm32f10x.o
 .debug_aranges
                0x00000530       0x18 obj\release\src\usb_desc.o
 .debug_aranges
                0x00000548       0x30 obj\release\src\usb_endp.o
 .debug_aranges
                0x00000578       0x20 obj\release\src\usb_istr.o
 .debug_aranges
                0x00000598       0x80 obj\release\src\usb_prop.o
 .debug_aranges
                0x00000618       0x40 obj\release\src\usb_pwr.o
 .debug_aranges
                0x00000658       0x98 obj\release\stm32_usb-fs-device_driver\src\usb_core.o
 .debug_aranges
                0x000006f0       0x20 obj\release\stm32_usb-fs-device_driver\src\usb_init.o
 .debug_aranges
                0x00000710       0x28 obj\release\stm32_usb-fs-device_driver\src\usb_int.o
 .debug_aranges
                0x00000738       0x28 obj\release\stm32_usb-fs-device_driver\src\usb_mem.o
 .debug_aranges
                0x00000760      0x1a0 obj\release\stm32_usb-fs-device_driver\src\usb_regs.o
 .debug_aranges
                0x00000900       0x30 obj\release\stm32_usb-fs-device_driver\src\usb_sil.o

.debug_ranges   0x00000000      0xaa0
 .debug_ranges  0x00000000       0x30 obj\release\spl\src\misc.o
 .debug_ranges  0x00000030      0x128 obj\release\spl\src\stm32f10x_adc.o
 .debug_ranges  0x00000158       0x50 obj\release\spl\src\stm32f10x_dma.o
 .debug_ranges  0x000001a8       0x98 obj\release\spl\src\stm32f10x_gpio.o
 .debug_ranges  0x00000240      0x128 obj\release\spl\src\stm32f10x_rcc.o
 .debug_ranges  0x00000368       0x18 obj\release\src\buzzer.o
 .debug_ranges  0x00000380       0x10 obj\release\src\command.o
 .debug_ranges  0x00000390       0x90 obj\release\src\hw_config.o
 .debug_ranges  0x00000420       0x58 obj\release\src\main.o
 .debug_ranges  0x00000478       0x38 obj\release\src\stm32f10x_it.o
 .debug_ranges  0x000004b0       0x40 obj\release\src\system_stm32f10x.o
 .debug_ranges  0x000004f0       0x50 obj\release\src\usb_endp.o
 .debug_ranges  0x00000540       0x10 obj\release\src\usb_istr.o
 .debug_ranges  0x00000550       0x70 obj\release\src\usb_prop.o
 .debug_ranges  0x000005c0       0x60 obj\release\src\usb_pwr.o
 .debug_ranges  0x00000620      0x1b0 obj\release\stm32_usb-fs-device_driver\src\usb_core.o
 .debug_ranges  0x000007d0       0x10 obj\release\stm32_usb-fs-device_driver\src\usb_init.o
 .debug_ranges  0x000007e0       0x30 obj\release\stm32_usb-fs-device_driver\src\usb_int.o
 .debug_ranges  0x00000810       0x18 obj\release\stm32_usb-fs-device_driver\src\usb_mem.o
 .debug_ranges  0x00000828      0x258 obj\release\stm32_usb-fs-device_driver\src\usb_regs.o
 .debug_ranges  0x00000a80       0x20 obj\release\stm32_usb-fs-device_driver\src\usb_sil.o

.debug_line     0x00000000     0x33ec
 .debug_line    0x00000000      0x188 obj\release\spl\src\misc.o
 .debug_line    0x00000188      0x486 obj\release\spl\src\stm32f10x_adc.o
 .debug_line    0x0000060e      0x223 obj\release\spl\src\stm32f10x_dma.o
 .debug_line    0x00000831      0x331 obj\release\spl\src\stm32f10x_gpio.o
 .debug_line    0x00000b62      0x409 obj\release\spl\src\stm32f10x_rcc.o
 .debug_line    0x00000f6b      0x133 obj\release\src\buzzer.o
 .debug_line    0x0000109e      0x120 obj\release\src\command.o
 .debug_line    0x000011be      0x363 obj\release\src\hw_config.o
 .debug_line    0x00001521      0x1ef obj\release\src\main.o
 .debug_line    0x00001710       0xa8 obj\release\src\startup_stm32f10x_md.o
 .debug_line    0x000017b8      0x156 obj\release\src\stm32f10x_it.o
 .debug_line    0x0000190e      0x18b obj\release\src\system_stm32f10x.o
 .debug_line    0x00001a99       0xde obj\release\src\usb_desc.o
 .debug_line    0x00001b77      0x1b7 obj\release\src\usb_endp.o
 .debug_line    0x00001d2e      0x16c obj\release\src\usb_istr.o
 .debug_line    0x00001e9a      0x2b6 obj\release\src\usb_prop.o
 .debug_line    0x00002150      0x21a obj\release\src\usb_pwr.o
 .debug_line    0x0000236a      0x58a obj\release\stm32_usb-fs-device_driver\src\usb_core.o
 .debug_line    0x000028f4      0x142 obj\release\stm32_usb-fs-device_driver\src\usb_init.o
 .debug_line    0x00002a36      0x1d0 obj\release\stm32_usb-fs-device_driver\src\usb_int.o
 .debug_line    0x00002c06      0x141 obj\release\stm32_usb-fs-device_driver\src\usb_mem.o
 .debug_line    0x00002d47      0x517 obj\release\stm32_usb-fs-device_driver\src\usb_regs.o
 .debug_line    0x0000325e      0x18e obj\release\stm32_usb-fs-device_driver\src\usb_sil.o

.debug_str      0x00000000     0x2cb7
 .debug_str     0x00000000      0x3aa obj\release\spl\src\misc.o
                                0x40b (size before relaxing)
 .debug_str     0x000003aa      0x543 obj\release\spl\src\stm32f10x_adc.o
                                0x75f (size before relaxing)
 .debug_str     0x000008ed      0x1c9 obj\release\spl\src\stm32f10x_dma.o
                                0x3cf (size before relaxing)
 .debug_str     0x00000ab6      0x353 obj\release\spl\src\stm32f10x_gpio.o
                                0x57d (size before relaxing)
 .debug_str     0x00000e09      0x404 obj\release\spl\src\stm32f10x_rcc.o
                                0x667 (size before relaxing)
 .debug_str     0x0000120d       0x28 obj\release\src\buzzer.o
                                0x1c3 (size before relaxing)
 .debug_str     0x00001235      0x204 obj\release\src\command.o
                                0x3b3 (size before relaxing)
 .debug_str     0x00001439      0x6a6 obj\release\src\hw_config.o
                                0xdb7 (size before relaxing)
 .debug_str     0x00001adf       0x61 obj\release\src\main.o
                                0x445 (size before relaxing)
 .debug_str     0x00001b40       0x94 obj\release\src\stm32f10x_it.o
                                0x22a (size before relaxing)
 .debug_str     0x00001bd4       0x88 obj\release\src\system_stm32f10x.o
                                0x339 (size before relaxing)
 .debug_str     0x00001c5c       0xae obj\release\src\usb_desc.o
                                0x274 (size before relaxing)
 .debug_str     0x00001d0a       0xc4 obj\release\src\usb_endp.o
                                0x338 (size before relaxing)
 .debug_str     0x00001dce      0x115 obj\release\src\usb_istr.o
                                0x34f (size before relaxing)
 .debug_str     0x00001ee3      0x461 obj\release\src\usb_prop.o
                                0xa37 (size before relaxing)
 .debug_str     0x00002344       0xec obj\release\src\usb_pwr.o
                                0x3ce (size before relaxing)
 .debug_str     0x00002430      0x46b obj\release\stm32_usb-fs-device_driver\src\usb_core.o
                                0xb48 (size before relaxing)
 .debug_str     0x0000289b       0x3c obj\release\stm32_usb-fs-device_driver\src\usb_init.o
                                0x591 (size before relaxing)
 .debug_str     0x000028d7       0x37 obj\release\stm32_usb-fs-device_driver\src\usb_int.o
                                0x278 (size before relaxing)
 .debug_str     0x0000290e       0x59 obj\release\stm32_usb-fs-device_driver\src\usb_mem.o
                                0x251 (size before relaxing)
 .debug_str     0x00002967      0x2de obj\release\stm32_usb-fs-device_driver\src\usb_regs.o
                                0x551 (size before relaxing)
 .debug_str     0x00002c45       0x72 obj\release\stm32_usb-fs-device_driver\src\usb_sil.o
                                0x2b9 (size before relaxing)

.debug_frame    0x00000000     0x1518
 .debug_frame   0x00000000       0x6c obj\release\spl\src\misc.o
 .debug_frame   0x0000006c      0x2c0 obj\release\spl\src\stm32f10x_adc.o
 .debug_frame   0x0000032c       0xcc obj\release\spl\src\stm32f10x_dma.o
 .debug_frame   0x000003f8      0x1b0 obj\release\spl\src\stm32f10x_gpio.o
 .debug_frame   0x000005a8      0x228 obj\release\spl\src\stm32f10x_rcc.o
 .debug_frame   0x000007d0       0x48 obj\release\src\buzzer.o
 .debug_frame   0x00000818       0x20 obj\release\src\command.o
 .debug_frame   0x00000838      0x16c obj\release\src\hw_config.o
 .debug_frame   0x000009a4       0x7c obj\release\src\main.o
 .debug_frame   0x00000a20       0xc0 obj\release\src\stm32f10x_it.o
 .debug_frame   0x00000ae0       0x48 obj\release\src\system_stm32f10x.o
 .debug_frame   0x00000b28       0x80 obj\release\src\usb_endp.o
 .debug_frame   0x00000ba8       0x38 obj\release\src\usb_istr.o
 .debug_frame   0x00000be0      0x108 obj\release\src\usb_prop.o
 .debug_frame   0x00000ce8       0x8c obj\release\src\usb_pwr.o
 .debug_frame   0x00000d74      0x1fc obj\release\stm32_usb-fs-device_driver\src\usb_core.o
 .debug_frame   0x00000f70       0x30 obj\release\stm32_usb-fs-device_driver\src\usb_init.o
 .debug_frame   0x00000fa0       0x60 obj\release\stm32_usb-fs-device_driver\src\usb_int.o
 .debug_frame   0x00001000       0x3c obj\release\stm32_usb-fs-device_driver\src\usb_mem.o
 .debug_frame   0x0000103c      0x3e4 obj\release\stm32_usb-fs-device_driver\src\usb_regs.o
 .debug_frame   0x00001420       0x64 obj\release\stm32_usb-fs-device_driver\src\usb_sil.o
 .debug_frame   0x00001484       0x28 d:/progs/embitz/share/em_armgcc/bin/../lib/gcc/arm-none-eabi/5.4.1/../../../../arm-none-eabi/lib/armv7-m\libg_n.a(lib_a-exit.o)
 .debug_frame   0x000014ac       0x2c d:/progs/embitz/share/em_armgcc/bin/../lib/gcc/arm-none-eabi/5.4.1/../../../../arm-none-eabi/lib/armv7-m\libg_n.a(lib_a-init.o)
 .debug_frame   0x000014d8       0x20 d:/progs/embitz/share/em_armgcc/bin/../lib/gcc/arm-none-eabi/5.4.1/../../../../arm-none-eabi/lib/armv7-m\libg_n.a(lib_a-memset.o)
 .debug_frame   0x000014f8       0x20 d:/progs/embitz/share/em_armgcc/bin/../lib/gcc/arm-none-eabi/5.4.1/../../../../arm-none-eabi/lib/armv7-m\libnosys_s.a(_exit.o)
