:020000040800F2
:100000007006002089010008910100089301000892
:100010009501000897010008990100080000000000
:100020000000000000000000000000009B0100082C
:100030009D010008000000009F010008A1010008C8
:10004000A3010008A3010008A3010008A301000800
:10005000A3010008A3010008A3010008A3010008F0
:10006000A3010008A3010008A3010008A3010008E0
:10007000A3010008A3010008A3010008A3010008D0
:10008000A3010008A3010008A3010008A3010008C0
:10009000A3010008A3010008A3010008A3010008B0
:1000A000A3010008A3010008A3010008A3010008A0
:1000B000A3010008A3010008A3010008A301000890
:1000C000A3010008A3010008A3010008A301000880
:1000D000A3010008A3010008A3010008A301000870
:1000E000A3010008A3010008A301000800F002F822
:1000F00000F03AF80AA090E8000C82448344AAF188
:100100000107DA4501D100F02FF8AFF2090EBAE885
:100110000F0013F0010F18BFFB1A43F0010318473B
:100120004C0400006C040000103A24BF78C878C169
:10013000FAD8520724BF30C830C144BF04680C60ED
:10014000704700000023002400250026103A28BF35
:1001500078C1FBD8520728BF30C148BF0B60704739
:100160001FB51FBD10B510BD00F031F81146FFF7E7
:10017000F7FF00F0B7F900F04FF803B4FFF7F2FF14
:1001800003BC00F057F800000948804709480047C1
:10019000FEE7FEE7FEE7FEE7FEE7FEE7FEE7FEE737
:1001A000FEE7FEE704480549054A064B7047000094
:1001B00069040008ED0000087000002070060020AF
:1001C000700200207002002070477047704775462B
:1001D00000F02CF8AE4605006946534620F00700B3
:1001E000854618B020B5FFF7DDFFBDE820404FF091
:1001F00000064FF000074FF000084FF0000B21F011
:100200000701AC46ACE8C009ACE8C009ACE8C009DD
:10021000ACE8C0098D46704710B50446AFF30080C6
:100220002046BDE81040FFF7A8BF00000048704717
:100230000C00002001491820ABBEFEE7260002009A
:1002400070472DE9F04102460025002600200023DA
:100250000024002791F803C00CF00F0591F803C0AB
:100260000CF0100CBCF1000F03D091F802C04CEA66
:10027000050591F800C0BCF1000F31D014680020D2
:100280002BE04FF0010C0CFA00F3B1F800C00CEABF
:1002900003069E4220D183004FF00F0C0CFA03F7A7
:1002A000BC4305FA03FC4CEA040491F803C0BCF11A
:1002B000280F06D14FF0010C0CFA00FCC2F814C054
:1002C0000AE091F803C0BCF1480F05D14FF0010CD2
:1002D0000CFA00FCC2F810C0401C0828D1D31460EE
:1002E000B1F800C0BCF1FF0F34DD546800202EE0EF
:1002F00000F1080C4FF0010808FA0CF3B1F800C047
:100300000CEA03069E4221D183004FF00F0C0CFA39
:1003100003F7BC4305FA03FC4CEA040491F803C05C
:10032000BCF1280F05D100F1080C08FA0CF8C2F84E
:10033000148091F803C0BCF1480F07D100F1080CFC
:100340004FF0010808FA0CF8C2F81080401C082889
:10035000CED35460BDE8F0814161704701617047C0
:1003600029B1064A92690243044B9A6104E0034AA8
:1003700092698243014B9A6170470000001002406D
:1003800010B500F001F810BD0CB5002001900090F0
:100390003348006840F480303149086000BF30487D
:1003A000006800F4003000900198401C0190009813
:1003B00018B90198B0F5A06FF1D12948006800F490
:1003C000003010B10120009001E000200090009862
:1003D000012843D12348006840F0100021490860FB
:1003E0000846006820F0030008600846006840F0F6
:1003F000020008601A484068194948600846406889
:1004000048600846406840F480604860084640689C
:1004100020F47C1048600846406840F4E8104860CA
:100420000846006840F08070086000BF0C48006813
:1004300000F000700028F9D00948406820F003005F
:10044000074948600846406840F00200486000BF25
:100450000348406800F00C000828F9D10CBD0000EA
:10046000001002400020024010B51348006840F020
:1004700001001149086008464068104908400E49CB
:100480004860084600680E4908400B490860084665
:10049000006820F4802008600846406820F4FE00D0
:1004A00048604FF41F008860FFF76AFF4FF000605C
:1004B0000449086010BD0000001002400000FFF871
:1004C000FFFFF6FE08ED00E0002107E0002200E05B
:1004D000521C42F6FF239A42FAD3491C8142F5D3BB
:1004E0007047000001210820FFF73AFF012110208A
:1004F000FFF736FF4FF4005018490880022088703B
:100500001020C8701648FFF79CFE4FF40070154984
:100510000880022088701020C8701348FFF791FEF1
:100520001BE04FF400711048FFF716FF4FF4005125
:100530000B48FFF713FF4FF47A70FFF7C5FF4FF436
:1005400000710948FFF70AFF4FF400510448FFF714
:1005500003FF4FF47A70FFF7B7FFE2E704000020D3
:100560000010014000000020000C01408C05000834
:10057000000000200C000000280100089805000879
:100580000C00002064060000440100080000000088
:08059000000000000000000063
:040000050800018965
:00000001FF
